{
  "address": "0x82e01223d51Eb87e16A03E24687EDF0F294da6f1",
  "abi": [
    {
      "inputs": [
        {
          "internalType": "address",
          "name": "_token",
          "type": "address"
        },
        {
          "internalType": "address",
          "name": "_router",
          "type": "address"
        },
        {
          "internalType": "address",
          "name": "_wETH",
          "type": "address"
        }
      ],
      "stateMutability": "nonpayable",
      "type": "constructor"
    },
    {
      "inputs": [
        {
          "internalType": "uint256",
          "name": "tokenAmount",
          "type": "uint256"
        }
      ],
      "name": "addLiquidity",
      "outputs": [],
      "stateMutability": "payable",
      "type": "function"
    },
    {
      "inputs": [
        {
          "internalType": "uint256",
          "name": "minTokenAmount",
          "type": "uint256"
        }
      ],
      "name": "buyToken",
      "outputs": [],
      "stateMutability": "payable",
      "type": "function"
    },
    {
      "inputs": [],
      "name": "myToken",
      "outputs": [
        {
          "internalType": "address",
          "name": "",
          "type": "address"
        }
      ],
      "stateMutability": "view",
      "type": "function"
    },
    {
      "inputs": [],
      "name": "router",
      "outputs": [
        {
          "internalType": "address",
          "name": "",
          "type": "address"
        }
      ],
      "stateMutability": "view",
      "type": "function"
    },
    {
      "inputs": [],
      "name": "wETH",
      "outputs": [
        {
          "internalType": "address",
          "name": "",
          "type": "address"
        }
      ],
      "stateMutability": "view",
      "type": "function"
    }
  ],
  "transactionHash": "0x1cfd2ea70e020dafd0abc29365ea7108a4d35cefabb3621678eb816875037dba",
  "args": [
    "0xb7278A61aa25c888815aFC32Ad3cC52fF24fE575",
    "0x0165878A594ca255338adfa4d48449f69242Eb8F",
    "0x5FC8d32690cc91D4c39d9d3abcBD16989F875707"
  ],
  "numDeployments": 4,
  "solcInputHash": "6aa6106052247c2e502d70ec853e19a9",
  "bytecode": "0x60806040523480156200001157600080fd5b506040516200146638038062001466833981810160405281019062000037919062000119565b826000806101000a81548173ffffffffffffffffffffffffffffffffffffffff021916908373ffffffffffffffffffffffffffffffffffffffff16021790555081600160006101000a81548173ffffffffffffffffffffffffffffffffffffffff021916908373ffffffffffffffffffffffffffffffffffffffff16021790555080600260006101000a81548173ffffffffffffffffffffffffffffffffffffffff021916908373ffffffffffffffffffffffffffffffffffffffff160217905550505050620001bd565b6000815190506200011381620001a3565b92915050565b6000806000606084860312156200012f57600080fd5b60006200013f8682870162000102565b9350506020620001528682870162000102565b9250506040620001658682870162000102565b9150509250925092565b60006200017c8262000183565b9050919050565b600073ffffffffffffffffffffffffffffffffffffffff82169050919050565b620001ae816200016f565b8114620001ba57600080fd5b50565b61129980620001cd6000396000f3fe60806040526004361061004a5760003560e01c80632d296bf11461004f57806351c6590a1461006b578063b8fcf93714610087578063f2428621146100b2578063f887ea40146100dd575b600080fd5b61006960048036038101906100649190610b12565b610108565b005b61008560048036038101906100809190610b12565b610366565b005b34801561009357600080fd5b5061009c6104ff565b6040516100a99190610d72565b60405180910390f35b3480156100be57600080fd5b506100c7610523565b6040516100d49190610d72565b60405180910390f35b3480156100e957600080fd5b506100f2610549565b6040516100ff9190610d72565b60405180910390f35b6000600267ffffffffffffffff81111561014b577f4e487b7100000000000000000000000000000000000000000000000000000000600052604160045260246000fd5b6040519080825280602002602001820160405280156101795781602001602082028036833780820191505090505b509050600260009054906101000a900473ffffffffffffffffffffffffffffffffffffffff16816000815181106101d9577f4e487b7100000000000000000000000000000000000000000000000000000000600052603260045260246000fd5b602002602001019073ffffffffffffffffffffffffffffffffffffffff16908173ffffffffffffffffffffffffffffffffffffffff168152505060008054906101000a900473ffffffffffffffffffffffffffffffffffffffff168160018151811061026e577f4e487b7100000000000000000000000000000000000000000000000000000000600052603260045260246000fd5b602002602001019073ffffffffffffffffffffffffffffffffffffffff16908173ffffffffffffffffffffffffffffffffffffffff1681525050600160009054906101000a900473ffffffffffffffffffffffffffffffffffffffff1673ffffffffffffffffffffffffffffffffffffffff16637ff36ab534848433426040518663ffffffff1660e01b815260040161030a9493929190610f19565b6000604051808303818588803b15801561032357600080fd5b505af1158015610337573d6000803e3d6000fd5b50505050506040513d6000823e3d601f19601f820116820180604052508101906103619190610aa8565b505050565b6103b333308360008054906101000a900473ffffffffffffffffffffffffffffffffffffffff1673ffffffffffffffffffffffffffffffffffffffff1661056f909392919063ffffffff16565b610420600160009054906101000a900473ffffffffffffffffffffffffffffffffffffffff168260008054906101000a900473ffffffffffffffffffffffffffffffffffffffff1673ffffffffffffffffffffffffffffffffffffffff166105f89092919063ffffffff16565b600160009054906101000a900473ffffffffffffffffffffffffffffffffffffffff1673ffffffffffffffffffffffffffffffffffffffff1663f305d7193460008054906101000a900473ffffffffffffffffffffffffffffffffffffffff168460008033426040518863ffffffff1660e01b81526004016104a796959493929190610e16565b6060604051808303818588803b1580156104c057600080fd5b505af11580156104d4573d6000803e3d6000fd5b50505050506040513d601f19601f820116820180604052508101906104f99190610b64565b50505050565b60008054906101000a900473ffffffffffffffffffffffffffffffffffffffff1681565b600260009054906101000a900473ffffffffffffffffffffffffffffffffffffffff1681565b600160009054906101000a900473ffffffffffffffffffffffffffffffffffffffff1681565b6105f2846323b872dd60e01b85858560405160240161059093929190610db6565b604051602081830303815290604052907bffffffffffffffffffffffffffffffffffffffffffffffffffffffff19166020820180517bffffffffffffffffffffffffffffffffffffffffffffffffffffffff8381831617835250505050610756565b50505050565b6000811480610691575060008373ffffffffffffffffffffffffffffffffffffffff1663dd62ed3e30856040518363ffffffff1660e01b815260040161063f929190610d8d565b60206040518083038186803b15801561065757600080fd5b505afa15801561066b573d6000803e3d6000fd5b505050506040513d601f19601f8201168201806040525081019061068f9190610b3b565b145b6106d0576040517f08c379a00000000000000000000000000000000000000000000000000000000081526004016106c790610ef9565b60405180910390fd5b6107518363095ea7b360e01b84846040516024016106ef929190610ded565b604051602081830303815290604052907bffffffffffffffffffffffffffffffffffffffffffffffffffffffff19166020820180517bffffffffffffffffffffffffffffffffffffffffffffffffffffffff8381831617835250505050610756565b505050565b60006107b8826040518060400160405280602081526020017f5361666545524332303a206c6f772d6c6576656c2063616c6c206661696c65648152508573ffffffffffffffffffffffffffffffffffffffff1661081d9092919063ffffffff16565b905060008151111561081857808060200190518101906107d89190610ae9565b610817576040517f08c379a000000000000000000000000000000000000000000000000000000000815260040161080e90610ed9565b60405180910390fd5b5b505050565b606061082c8484600085610835565b90509392505050565b60608247101561087a576040517f08c379a000000000000000000000000000000000000000000000000000000000815260040161087190610e99565b60405180910390fd5b61088385610949565b6108c2576040517f08c379a00000000000000000000000000000000000000000000000000000000081526004016108b990610eb9565b60405180910390fd5b6000808673ffffffffffffffffffffffffffffffffffffffff1685876040516108eb9190610d5b565b60006040518083038185875af1925050503d8060008114610928576040519150601f19603f3d011682016040523d82523d6000602084013e61092d565b606091505b509150915061093d82828661096c565b92505050949350505050565b6000808273ffffffffffffffffffffffffffffffffffffffff163b119050919050565b6060831561097c578290506109cc565b60008351111561098f5782518084602001fd5b816040517f08c379a00000000000000000000000000000000000000000000000000000000081526004016109c39190610e77565b60405180910390fd5b9392505050565b60006109e66109e184610f8a565b610f65565b90508083825260208201905082856020860282011115610a0557600080fd5b60005b85811015610a355781610a1b8882610a93565b845260208401935060208301925050600181019050610a08565b5050509392505050565b600082601f830112610a5057600080fd5b8151610a608482602086016109d3565b91505092915050565b600081519050610a7881611235565b92915050565b600081359050610a8d8161124c565b92915050565b600081519050610aa28161124c565b92915050565b600060208284031215610aba57600080fd5b600082015167ffffffffffffffff811115610ad457600080fd5b610ae084828501610a3f565b91505092915050565b600060208284031215610afb57600080fd5b6000610b0984828501610a69565b91505092915050565b600060208284031215610b2457600080fd5b6000610b3284828501610a7e565b91505092915050565b600060208284031215610b4d57600080fd5b6000610b5b84828501610a93565b91505092915050565b600080600060608486031215610b7957600080fd5b6000610b8786828701610a93565b9350506020610b9886828701610a93565b9250506040610ba986828701610a93565b9150509250925092565b6000610bbf8383610bcb565b60208301905092915050565b610bd481611021565b82525050565b610be381611021565b82525050565b6000610bf482610fc6565b610bfe8185610ff4565b9350610c0983610fb6565b8060005b83811015610c3a578151610c218882610bb3565b9750610c2c83610fe7565b925050600181019050610c0d565b5085935050505092915050565b6000610c5282610fd1565b610c5c8185611005565b9350610c6c81856020860161107b565b80840191505092915050565b610c8181611069565b82525050565b6000610c9282610fdc565b610c9c8185611010565b9350610cac81856020860161107b565b610cb58161110e565b840191505092915050565b6000610ccd602683611010565b9150610cd88261111f565b604082019050919050565b6000610cf0601d83611010565b9150610cfb8261116e565b602082019050919050565b6000610d13602a83611010565b9150610d1e82611197565b604082019050919050565b6000610d36603683611010565b9150610d41826111e6565b604082019050919050565b610d558161105f565b82525050565b6000610d678284610c47565b915081905092915050565b6000602082019050610d876000830184610bda565b92915050565b6000604082019050610da26000830185610bda565b610daf6020830184610bda565b9392505050565b6000606082019050610dcb6000830186610bda565b610dd86020830185610bda565b610de56040830184610d4c565b949350505050565b6000604082019050610e026000830185610bda565b610e0f6020830184610d4c565b9392505050565b600060c082019050610e2b6000830189610bda565b610e386020830188610d4c565b610e456040830187610c78565b610e526060830186610c78565b610e5f6080830185610bda565b610e6c60a0830184610d4c565b979650505050505050565b60006020820190508181036000830152610e918184610c87565b905092915050565b60006020820190508181036000830152610eb281610cc0565b9050919050565b60006020820190508181036000830152610ed281610ce3565b9050919050565b60006020820190508181036000830152610ef281610d06565b9050919050565b60006020820190508181036000830152610f1281610d29565b9050919050565b6000608082019050610f2e6000830187610d4c565b8181036020830152610f408186610be9565b9050610f4f6040830185610bda565b610f5c6060830184610d4c565b95945050505050565b6000610f6f610f80565b9050610f7b82826110ae565b919050565b6000604051905090565b600067ffffffffffffffff821115610fa557610fa46110df565b5b602082029050602081019050919050565b6000819050602082019050919050565b600081519050919050565b600081519050919050565b600081519050919050565b6000602082019050919050565b600082825260208201905092915050565b600081905092915050565b600082825260208201905092915050565b600061102c8261103f565b9050919050565b60008115159050919050565b600073ffffffffffffffffffffffffffffffffffffffff82169050919050565b6000819050919050565b60006110748261105f565b9050919050565b60005b8381101561109957808201518184015260208101905061107e565b838111156110a8576000848401525b50505050565b6110b78261110e565b810181811067ffffffffffffffff821117156110d6576110d56110df565b5b80604052505050565b7f4e487b7100000000000000000000000000000000000000000000000000000000600052604160045260246000fd5b6000601f19601f8301169050919050565b7f416464726573733a20696e73756666696369656e742062616c616e636520666f60008201527f722063616c6c0000000000000000000000000000000000000000000000000000602082015250565b7f416464726573733a2063616c6c20746f206e6f6e2d636f6e7472616374000000600082015250565b7f5361666545524332303a204552433230206f7065726174696f6e20646964206e60008201527f6f74207375636365656400000000000000000000000000000000000000000000602082015250565b7f5361666545524332303a20617070726f76652066726f6d206e6f6e2d7a65726f60008201527f20746f206e6f6e2d7a65726f20616c6c6f77616e636500000000000000000000602082015250565b61123e81611033565b811461124957600080fd5b50565b6112558161105f565b811461126057600080fd5b5056fea2646970667358221220355849694051ef1d27b70cbb928dcc57cee1812da20be132630ef837a60a44e964736f6c63430008040033",
  "devdoc": {
    "kind": "dev",
    "methods": {},
    "version": 1
  },
  "userdoc": {
    "kind": "user",
    "methods": {},
    "version": 1
  },
  "storageLayout": {
    "storage": [
      {
        "astId": 1550,
        "contract": "contracts/MyTokenMarket.sol:MyTokenMarket",
        "label": "myToken",
        "offset": 0,
        "slot": "0",
        "type": "t_address"
      },
      {
        "astId": 1552,
        "contract": "contracts/MyTokenMarket.sol:MyTokenMarket",
        "label": "router",
        "offset": 0,
        "slot": "1",
        "type": "t_address"
      },
      {
        "astId": 1554,
        "contract": "contracts/MyTokenMarket.sol:MyTokenMarket",
        "label": "wETH",
        "offset": 0,
        "slot": "2",
        "type": "t_address"
      }
    ],
    "types": {
      "t_address": {
        "encoding": "inplace",
        "label": "address",
        "numberOfBytes": "20"
      }
    }
  }
}