{
  "address": "0xa722bdA6968F50778B973Ae2701e90200C564B49",
  "abi": [
    {
      "inputs": [
        {
          "internalType": "address",
          "name": "_token",
          "type": "address"
        },
        {
          "internalType": "address",
          "name": "_router",
          "type": "address"
        },
        {
          "internalType": "address",
          "name": "_masterChef",
          "type": "address"
        },
        {
          "internalType": "address",
          "name": "_wETH",
          "type": "address"
        }
      ],
      "stateMutability": "nonpayable",
      "type": "constructor"
    },
    {
      "inputs": [
        {
          "internalType": "uint256",
          "name": "tokenAmount",
          "type": "uint256"
        }
      ],
      "name": "addLiquidity",
      "outputs": [],
      "stateMutability": "payable",
      "type": "function"
    },
    {
      "inputs": [
        {
          "internalType": "uint256",
          "name": "minTokenAmount",
          "type": "uint256"
        }
      ],
      "name": "buyToken",
      "outputs": [],
      "stateMutability": "payable",
      "type": "function"
    },
    {
      "inputs": [
        {
          "internalType": "uint256",
          "name": "_pid",
          "type": "uint256"
        },
        {
          "internalType": "uint256",
          "name": "minTokenAmount",
          "type": "uint256"
        }
      ],
      "name": "buyTokenAndStake",
      "outputs": [],
      "stateMutability": "payable",
      "type": "function"
    },
    {
      "inputs": [],
      "name": "masterChef",
      "outputs": [
        {
          "internalType": "address",
          "name": "",
          "type": "address"
        }
      ],
      "stateMutability": "view",
      "type": "function"
    },
    {
      "inputs": [],
      "name": "myToken",
      "outputs": [
        {
          "internalType": "address",
          "name": "",
          "type": "address"
        }
      ],
      "stateMutability": "view",
      "type": "function"
    },
    {
      "inputs": [],
      "name": "router",
      "outputs": [
        {
          "internalType": "address",
          "name": "",
          "type": "address"
        }
      ],
      "stateMutability": "view",
      "type": "function"
    },
    {
      "inputs": [
        {
          "internalType": "address",
          "name": "",
          "type": "address"
        }
      ],
      "name": "stakeAmounts",
      "outputs": [
        {
          "internalType": "uint256",
          "name": "",
          "type": "uint256"
        }
      ],
      "stateMutability": "view",
      "type": "function"
    },
    {
      "inputs": [],
      "name": "wETH",
      "outputs": [
        {
          "internalType": "address",
          "name": "",
          "type": "address"
        }
      ],
      "stateMutability": "view",
      "type": "function"
    },
    {
      "inputs": [
        {
          "internalType": "uint256",
          "name": "_pid",
          "type": "uint256"
        }
      ],
      "name": "withdraw",
      "outputs": [],
      "stateMutability": "nonpayable",
      "type": "function"
    }
  ],
  "transactionHash": "0x2b4fcc9c87ea7f839a552ed70ee3f005dc7b027f7c6381c92f45f23e807d2d82",
  "args": [
    "0x8198f5d8F8CfFE8f9C413d98a0A55aEB8ab9FbB7",
    "0x0165878A594ca255338adfa4d48449f69242Eb8F",
    "0x51A1ceB83B83F1985a81C295d1fF28Afef186E02",
    "0x5FC8d32690cc91D4c39d9d3abcBD16989F875707"
  ],
  "numDeployments": 20,
  "solcInputHash": "660d78efc88cc9f74170ccbc7ce2eb87",
  "bytecode": "0x608060405234801561001057600080fd5b50604051610f7b380380610f7b83398101604081905261002f9161009e565b600080546001600160a01b039586166001600160a01b03199182161790915560018054948616948216949094179093556003805492851692841692909217909155600280549190931691161790556100f1565b80516001600160a01b038116811461009957600080fd5b919050565b600080600080608085870312156100b3578384fd5b6100bc85610082565b93506100ca60208601610082565b92506100d860408601610082565b91506100e660608601610082565b905092959194509250565b610e7b806101006000396000f3fe6080604052600436106100865760003560e01c80636d8eb80e116100595780636d8eb80e14610110578063b8fcf93714610123578063e5afa56614610143578063f24286211461017e578063f887ea401461019e57600080fd5b80632d296bf11461008b5780632e1a7d4d146100a057806351c6590a146100c0578063575a86b2146100d3575b600080fd5b61009e610099366004610c7b565b6101be565b005b3480156100ac57600080fd5b5061009e6100bb366004610c7b565b6102ec565b61009e6100ce366004610c7b565b61038d565b3480156100df57600080fd5b506003546100f3906001600160a01b031681565b6040516001600160a01b0390911681526020015b60405180910390f35b61009e61011e366004610cab565b61046f565b34801561012f57600080fd5b506000546100f3906001600160a01b031681565b34801561014f57600080fd5b5061017061015e366004610b74565b60046020526000908152604090205481565b604051908152602001610107565b34801561018a57600080fd5b506002546100f3906001600160a01b031681565b3480156101aa57600080fd5b506001546100f3906001600160a01b031681565b604080516002808252606082018352600092602083019080368337505060025482519293506001600160a01b03169183915060009061020d57634e487b7160e01b600052603260045260246000fd5b6001600160a01b03928316602091820292909201015260005482519116908290600190811061024c57634e487b7160e01b600052603260045260246000fd5b6001600160a01b039283166020918202929092010152600154604051637ff36ab560e01b8152911690637ff36ab5903490610291908690869033904290600401610d76565b6000604051808303818588803b1580156102aa57600080fd5b505af11580156102be573d6000803e3d6000fd5b50505050506040513d6000823e601f3d908101601f191682016040526102e79190810190610b9b565b505050565b336000908152600460208190526040808320546003549151630441a3e760e41b815292830193909352602482018390526001600160a01b03169063441a3e7090604401600060405180830381600087803b15801561034957600080fd5b505af115801561035d573d6000803e3d6000fd5b505060005461037992506001600160a01b0316905033836106f1565b505033600090815260046020526040812055565b6000546103a5906001600160a01b0316333084610754565b6001546000546103c2916001600160a01b0391821691168361078c565b6001546000805460405163f305d71960e01b81526001600160a01b039182166004820152602481018590526044810183905260648101929092523360848301524260a48301529091169063f305d71990349060c4016060604051808303818588803b15801561043057600080fd5b505af1158015610444573d6000803e3d6000fd5b50505050506040513d601f19601f820116820180604052508101906104699190610ccc565b50505050565b604080516002808252606082018352600092602083019080368337505060025482519293506001600160a01b0316918391506000906104be57634e487b7160e01b600052603260045260246000fd5b6001600160a01b0392831660209182029290920101526000548251911690829060019081106104fd57634e487b7160e01b600052603260045260246000fd5b6001600160a01b039283166020918202929092010152600154604051637ff36ab560e01b8152911690637ff36ab5903490610542908690869030904290600401610d76565b6000604051808303818588803b15801561055b57600080fd5b505af115801561056f573d6000803e3d6000fd5b50505050506040513d6000823e601f3d908101601f191682016040526105989190810190610b9b565b50600080546040516370a0823160e01b81523060048201526001600160a01b03909116906370a082319060240160206040518083038186803b1580156105dd57600080fd5b505afa1580156105f1573d6000803e3d6000fd5b505050506040513d601f19601f820116820180604052508101906106159190610c93565b90506106446040518060400160405280600b81526020016a3130b630b731b29027b31d60a91b815250826108b5565b600354600054610661916001600160a01b0391821691168361078c565b600354604051631c57762b60e31b815260006004820152602481018390526001600160a01b039091169063e2bbb15890604401600060405180830381600087803b1580156106ae57600080fd5b505af11580156106c2573d6000803e3d6000fd5b505033600090815260046020526040812080548594509092506106e6908490610ddf565b909155505050505050565b6040516001600160a01b0383166024820152604481018290526102e790849063a9059cbb60e01b906064015b60408051601f198184030181529190526020810180516001600160e01b03166001600160e01b0319909316929092179091526108fe565b6040516001600160a01b03808516602483015283166044820152606481018290526104699085906323b872dd60e01b9060840161071d565b8015806108155750604051636eb1769f60e11b81523060048201526001600160a01b03838116602483015284169063dd62ed3e9060440160206040518083038186803b1580156107db57600080fd5b505afa1580156107ef573d6000803e3d6000fd5b505050506040513d601f19601f820116820180604052508101906108139190610c93565b155b6108855760405162461bcd60e51b815260206004820152603660248201527f5361666545524332303a20617070726f76652066726f6d206e6f6e2d7a65726f60448201527520746f206e6f6e2d7a65726f20616c6c6f77616e636560501b60648201526084015b60405180910390fd5b6040516001600160a01b0383166024820152604481018290526102e790849063095ea7b360e01b9060640161071d565b6108fa82826040516024016108cb929190610d54565b60408051601f198184030181529190526020810180516001600160e01b03166309710a9d60e41b1790526109d0565b5050565b6000610953826040518060400160405280602081526020017f5361666545524332303a206c6f772d6c6576656c2063616c6c206661696c6564815250856001600160a01b03166109f19092919063ffffffff16565b8051909150156102e757808060200190518101906109719190610c5b565b6102e75760405162461bcd60e51b815260206004820152602a60248201527f5361666545524332303a204552433230206f7065726174696f6e20646964206e6044820152691bdd081cdd58d8d9595960b21b606482015260840161087c565b80516a636f6e736f6c652e6c6f67602083016000808483855afa5050505050565b6060610a008484600085610a0a565b90505b9392505050565b606082471015610a6b5760405162461bcd60e51b815260206004820152602660248201527f416464726573733a20696e73756666696369656e742062616c616e636520666f6044820152651c8818d85b1b60d21b606482015260840161087c565b6001600160a01b0385163b610ac25760405162461bcd60e51b815260206004820152601d60248201527f416464726573733a2063616c6c20746f206e6f6e2d636f6e7472616374000000604482015260640161087c565b600080866001600160a01b03168587604051610ade9190610d25565b60006040518083038185875af1925050503d8060008114610b1b576040519150601f19603f3d011682016040523d82523d6000602084013e610b20565b606091505b5091509150610b30828286610b3b565b979650505050505050565b60608315610b4a575081610a03565b825115610b5a5782518084602001fd5b8160405162461bcd60e51b815260040161087c9190610d41565b600060208284031215610b85578081fd5b81356001600160a01b0381168114610a03578182fd5b60006020808385031215610bad578182fd5b825167ffffffffffffffff80821115610bc4578384fd5b818501915085601f830112610bd7578384fd5b815181811115610be957610be9610e2f565b8060051b604051601f19603f83011681018181108582111715610c0e57610c0e610e2f565b604052828152858101935084860182860187018a1015610c2c578788fd5b8795505b83861015610c4e578051855260019590950194938601938601610c30565b5098975050505050505050565b600060208284031215610c6c578081fd5b81518015158114610a03578182fd5b600060208284031215610c8c578081fd5b5035919050565b600060208284031215610ca4578081fd5b5051919050565b60008060408385031215610cbd578081fd5b50508035926020909101359150565b600080600060608486031215610ce0578081fd5b8351925060208401519150604084015190509250925092565b60008151808452610d11816020860160208601610e03565b601f01601f19169290920160200192915050565b60008251610d37818460208701610e03565b9190910192915050565b602081526000610a036020830184610cf9565b604081526000610d676040830185610cf9565b90508260208301529392505050565b600060808201868352602060808185015281875180845260a0860191508289019350845b81811015610dbf5784516001600160a01b031683529383019391830191600101610d9a565b50506001600160a01b039690961660408501525050506060015292915050565b60008219821115610dfe57634e487b7160e01b81526011600452602481fd5b500190565b60005b83811015610e1e578181015183820152602001610e06565b838111156104695750506000910152565b634e487b7160e01b600052604160045260246000fdfea2646970667358221220c895a76f058480201ecd0df338898569d8dd143794d4f4268b572a82f5925f3564736f6c63430008040033",
  "devdoc": {
    "kind": "dev",
    "methods": {},
    "version": 1
  },
  "userdoc": {
    "kind": "user",
    "methods": {},
    "version": 1
  },
  "storageLayout": {
    "storage": [
      {
        "astId": 1552,
        "contract": "contracts/MyTokenMarket.sol:MyTokenMarket",
        "label": "myToken",
        "offset": 0,
        "slot": "0",
        "type": "t_address"
      },
      {
        "astId": 1554,
        "contract": "contracts/MyTokenMarket.sol:MyTokenMarket",
        "label": "router",
        "offset": 0,
        "slot": "1",
        "type": "t_address"
      },
      {
        "astId": 1556,
        "contract": "contracts/MyTokenMarket.sol:MyTokenMarket",
        "label": "wETH",
        "offset": 0,
        "slot": "2",
        "type": "t_address"
      },
      {
        "astId": 1558,
        "contract": "contracts/MyTokenMarket.sol:MyTokenMarket",
        "label": "masterChef",
        "offset": 0,
        "slot": "3",
        "type": "t_address"
      },
      {
        "astId": 1562,
        "contract": "contracts/MyTokenMarket.sol:MyTokenMarket",
        "label": "stakeAmounts",
        "offset": 0,
        "slot": "4",
        "type": "t_mapping(t_address,t_uint256)"
      }
    ],
    "types": {
      "t_address": {
        "encoding": "inplace",
        "label": "address",
        "numberOfBytes": "20"
      },
      "t_mapping(t_address,t_uint256)": {
        "encoding": "mapping",
        "key": "t_address",
        "label": "mapping(address => uint256)",
        "numberOfBytes": "32",
        "value": "t_uint256"
      },
      "t_uint256": {
        "encoding": "inplace",
        "label": "uint256",
        "numberOfBytes": "32"
      }
    }
  }
}