{
  "address": "0x9fE46736679d2D9a65F0992F2272dE9f3c7fa6e0",
  "abi": [
    {
      "inputs": [],
      "stateMutability": "nonpayable",
      "type": "constructor"
    },
    {
      "anonymous": false,
      "inputs": [
        {
          "indexed": true,
          "internalType": "address",
          "name": "owner",
          "type": "address"
        },
        {
          "indexed": true,
          "internalType": "address",
          "name": "approved",
          "type": "address"
        },
        {
          "indexed": true,
          "internalType": "uint256",
          "name": "tokenId",
          "type": "uint256"
        }
      ],
      "name": "Approval",
      "type": "event"
    },
    {
      "anonymous": false,
      "inputs": [
        {
          "indexed": true,
          "internalType": "address",
          "name": "owner",
          "type": "address"
        },
        {
          "indexed": true,
          "internalType": "address",
          "name": "operator",
          "type": "address"
        },
        {
          "indexed": false,
          "internalType": "bool",
          "name": "approved",
          "type": "bool"
        }
      ],
      "name": "ApprovalForAll",
      "type": "event"
    },
    {
      "anonymous": false,
      "inputs": [
        {
          "indexed": true,
          "internalType": "address",
          "name": "from",
          "type": "address"
        },
        {
          "indexed": true,
          "internalType": "address",
          "name": "to",
          "type": "address"
        },
        {
          "indexed": true,
          "internalType": "uint256",
          "name": "tokenId",
          "type": "uint256"
        }
      ],
      "name": "Transfer",
      "type": "event"
    },
    {
      "inputs": [
        {
          "internalType": "address",
          "name": "to",
          "type": "address"
        },
        {
          "internalType": "uint256",
          "name": "tokenId",
          "type": "uint256"
        }
      ],
      "name": "approve",
      "outputs": [],
      "stateMutability": "nonpayable",
      "type": "function"
    },
    {
      "inputs": [
        {
          "internalType": "address",
          "name": "owner",
          "type": "address"
        }
      ],
      "name": "balanceOf",
      "outputs": [
        {
          "internalType": "uint256",
          "name": "",
          "type": "uint256"
        }
      ],
      "stateMutability": "view",
      "type": "function"
    },
    {
      "inputs": [
        {
          "internalType": "uint256",
          "name": "tokenId",
          "type": "uint256"
        }
      ],
      "name": "getApproved",
      "outputs": [
        {
          "internalType": "address",
          "name": "",
          "type": "address"
        }
      ],
      "stateMutability": "view",
      "type": "function"
    },
    {
      "inputs": [
        {
          "internalType": "address",
          "name": "owner",
          "type": "address"
        },
        {
          "internalType": "address",
          "name": "operator",
          "type": "address"
        }
      ],
      "name": "isApprovedForAll",
      "outputs": [
        {
          "internalType": "bool",
          "name": "",
          "type": "bool"
        }
      ],
      "stateMutability": "view",
      "type": "function"
    },
    {
      "inputs": [
        {
          "internalType": "address",
          "name": "to",
          "type": "address"
        },
        {
          "internalType": "uint256",
          "name": "tokenId",
          "type": "uint256"
        }
      ],
      "name": "mint",
      "outputs": [],
      "stateMutability": "nonpayable",
      "type": "function"
    },
    {
      "inputs": [],
      "name": "name",
      "outputs": [
        {
          "internalType": "string",
          "name": "",
          "type": "string"
        }
      ],
      "stateMutability": "view",
      "type": "function"
    },
    {
      "inputs": [],
      "name": "owner",
      "outputs": [
        {
          "internalType": "address",
          "name": "",
          "type": "address"
        }
      ],
      "stateMutability": "view",
      "type": "function"
    },
    {
      "inputs": [
        {
          "internalType": "uint256",
          "name": "tokenId",
          "type": "uint256"
        }
      ],
      "name": "ownerOf",
      "outputs": [
        {
          "internalType": "address",
          "name": "",
          "type": "address"
        }
      ],
      "stateMutability": "view",
      "type": "function"
    },
    {
      "inputs": [
        {
          "internalType": "address",
          "name": "from",
          "type": "address"
        },
        {
          "internalType": "address",
          "name": "to",
          "type": "address"
        },
        {
          "internalType": "uint256",
          "name": "tokenId",
          "type": "uint256"
        }
      ],
      "name": "safeTransferFrom",
      "outputs": [],
      "stateMutability": "nonpayable",
      "type": "function"
    },
    {
      "inputs": [
        {
          "internalType": "address",
          "name": "from",
          "type": "address"
        },
        {
          "internalType": "address",
          "name": "to",
          "type": "address"
        },
        {
          "internalType": "uint256",
          "name": "tokenId",
          "type": "uint256"
        },
        {
          "internalType": "bytes",
          "name": "_data",
          "type": "bytes"
        }
      ],
      "name": "safeTransferFrom",
      "outputs": [],
      "stateMutability": "nonpayable",
      "type": "function"
    },
    {
      "inputs": [
        {
          "internalType": "address",
          "name": "operator",
          "type": "address"
        },
        {
          "internalType": "bool",
          "name": "approved",
          "type": "bool"
        }
      ],
      "name": "setApprovalForAll",
      "outputs": [],
      "stateMutability": "nonpayable",
      "type": "function"
    },
    {
      "inputs": [
        {
          "internalType": "bytes4",
          "name": "interfaceId",
          "type": "bytes4"
        }
      ],
      "name": "supportsInterface",
      "outputs": [
        {
          "internalType": "bool",
          "name": "",
          "type": "bool"
        }
      ],
      "stateMutability": "view",
      "type": "function"
    },
    {
      "inputs": [],
      "name": "symbol",
      "outputs": [
        {
          "internalType": "string",
          "name": "",
          "type": "string"
        }
      ],
      "stateMutability": "view",
      "type": "function"
    },
    {
      "inputs": [
        {
          "internalType": "uint256",
          "name": "tokenId",
          "type": "uint256"
        }
      ],
      "name": "tokenURI",
      "outputs": [
        {
          "internalType": "string",
          "name": "",
          "type": "string"
        }
      ],
      "stateMutability": "view",
      "type": "function"
    },
    {
      "inputs": [
        {
          "internalType": "address",
          "name": "from",
          "type": "address"
        },
        {
          "internalType": "address",
          "name": "to",
          "type": "address"
        },
        {
          "internalType": "uint256",
          "name": "tokenId",
          "type": "uint256"
        }
      ],
      "name": "transferFrom",
      "outputs": [],
      "stateMutability": "nonpayable",
      "type": "function"
    }
  ],
  "transactionHash": "0x8fd5f6ec390bc932d2517eeb8cb09c59f53189c6331466bc337c764078f113c5",
  "args": [],
  "numDeployments": 1,
  "solcInputHash": "67a78b836159f21e6f4cbd3a2c92f047",
  "bytecode": "0x60806040523480156200001157600080fd5b506040518060400160405280600881526020017f4d794552433732310000000000000000000000000000000000000000000000008152506040518060400160405280600481526020017f4d37323100000000000000000000000000000000000000000000000000000000815250816000908051906020019062000096929190620000f9565b508060019080519060200190620000af929190620000f9565b50505033600660006101000a81548173ffffffffffffffffffffffffffffffffffffffff021916908373ffffffffffffffffffffffffffffffffffffffff1602179055506200020e565b8280546200010790620001a9565b90600052602060002090601f0160209004810192826200012b576000855562000177565b82601f106200014657805160ff191683800117855562000177565b8280016001018555821562000177579182015b828111156200017657825182559160200191906001019062000159565b5b5090506200018691906200018a565b5090565b5b80821115620001a55760008160009055506001016200018b565b5090565b60006002820490506001821680620001c257607f821691505b60208210811415620001d957620001d8620001df565b5b50919050565b7f4e487b7100000000000000000000000000000000000000000000000000000000600052602260045260246000fd5b612882806200021e6000396000f3fe608060405234801561001057600080fd5b50600436106100f55760003560e01c80636352211e11610097578063a22cb46511610066578063a22cb46514610284578063b88d4fde146102a0578063c87b56dd146102bc578063e985e9c5146102ec576100f5565b80636352211e146101e857806370a08231146102185780638da5cb5b1461024857806395d89b4114610266576100f5565b8063095ea7b3116100d3578063095ea7b31461017857806323b872dd1461019457806340c10f19146101b057806342842e0e146101cc576100f5565b806301ffc9a7146100fa57806306fdde031461012a578063081812fc14610148575b600080fd5b610114600480360381019061010f9190611a18565b61031c565b6040516101219190611dfb565b60405180910390f35b6101326103fe565b60405161013f9190611e16565b60405180910390f35b610162600480360381019061015d9190611a6a565b610490565b60405161016f9190611d94565b60405180910390f35b610192600480360381019061018d91906119dc565b610515565b005b6101ae60048036038101906101a991906118d6565b61062d565b005b6101ca60048036038101906101c591906119dc565b61068d565b005b6101e660048036038101906101e191906118d6565b61072b565b005b61020260048036038101906101fd9190611a6a565b61074b565b60405161020f9190611d94565b60405180910390f35b610232600480360381019061022d9190611871565b6107fd565b60405161023f9190612018565b60405180910390f35b6102506108b5565b60405161025d9190611d94565b60405180910390f35b61026e6108db565b60405161027b9190611e16565b60405180910390f35b61029e600480360381019061029991906119a0565b61096d565b005b6102ba60048036038101906102b59190611925565b610983565b005b6102d660048036038101906102d19190611a6a565b6109e5565b6040516102e39190611e16565b60405180910390f35b6103066004803603810190610301919061189a565b610a8c565b6040516103139190611dfb565b60405180910390f35b60007f80ac58cd000000000000000000000000000000000000000000000000000000007bffffffffffffffffffffffffffffffffffffffffffffffffffffffff1916827bffffffffffffffffffffffffffffffffffffffffffffffffffffffff191614806103e757507f5b5e139f000000000000000000000000000000000000000000000000000000007bffffffffffffffffffffffffffffffffffffffffffffffffffffffff1916827bffffffffffffffffffffffffffffffffffffffffffffffffffffffff1916145b806103f757506103f682610b20565b5b9050919050565b60606000805461040d9061223d565b80601f01602080910402602001604051908101604052809291908181526020018280546104399061223d565b80156104865780601f1061045b57610100808354040283529160200191610486565b820191906000526020600020905b81548152906001019060200180831161046957829003601f168201915b5050505050905090565b600061049b82610b8a565b6104da576040517f08c379a00000000000000000000000000000000000000000000000000000000081526004016104d190611f78565b60405180910390fd5b6004600083815260200190815260200160002060009054906101000a900473ffffffffffffffffffffffffffffffffffffffff169050919050565b60006105208261074b565b90508073ffffffffffffffffffffffffffffffffffffffff168373ffffffffffffffffffffffffffffffffffffffff161415610591576040517f08c379a000000000000000000000000000000000000000000000000000000000815260040161058890611fb8565b60405180910390fd5b8073ffffffffffffffffffffffffffffffffffffffff166105b0610bf6565b73ffffffffffffffffffffffffffffffffffffffff1614806105df57506105de816105d9610bf6565b610a8c565b5b61061e576040517f08c379a000000000000000000000000000000000000000000000000000000000815260040161061590611ef8565b60405180910390fd5b6106288383610bfe565b505050565b61063e610638610bf6565b82610cb7565b61067d576040517f08c379a000000000000000000000000000000000000000000000000000000000815260040161067490611fd8565b60405180910390fd5b610688838383610d95565b505050565b600660009054906101000a900473ffffffffffffffffffffffffffffffffffffffff1673ffffffffffffffffffffffffffffffffffffffff163373ffffffffffffffffffffffffffffffffffffffff161461071d576040517f08c379a000000000000000000000000000000000000000000000000000000000815260040161071490611ff8565b60405180910390fd5b6107278282610ffc565b5050565b61074683838360405180602001604052806000815250610983565b505050565b6000806002600084815260200190815260200160002060009054906101000a900473ffffffffffffffffffffffffffffffffffffffff169050600073ffffffffffffffffffffffffffffffffffffffff168173ffffffffffffffffffffffffffffffffffffffff1614156107f4576040517f08c379a00000000000000000000000000000000000000000000000000000000081526004016107eb90611f38565b60405180910390fd5b80915050919050565b60008073ffffffffffffffffffffffffffffffffffffffff168273ffffffffffffffffffffffffffffffffffffffff16141561086e576040517f08c379a000000000000000000000000000000000000000000000000000000000815260040161086590611f18565b60405180910390fd5b600360008373ffffffffffffffffffffffffffffffffffffffff1673ffffffffffffffffffffffffffffffffffffffff168152602001908152602001600020549050919050565b600660009054906101000a900473ffffffffffffffffffffffffffffffffffffffff1681565b6060600180546108ea9061223d565b80601f01602080910402602001604051908101604052809291908181526020018280546109169061223d565b80156109635780601f1061093857610100808354040283529160200191610963565b820191906000526020600020905b81548152906001019060200180831161094657829003601f168201915b5050505050905090565b61097f610978610bf6565b838361101a565b5050565b61099461098e610bf6565b83610cb7565b6109d3576040517f08c379a00000000000000000000000000000000000000000000000000000000081526004016109ca90611fd8565b60405180910390fd5b6109df84848484611187565b50505050565b60606109f082610b8a565b610a2f576040517f08c379a0000000000000000000000000000000000000000000000000000000008152600401610a2690611f98565b60405180910390fd5b6000610a396111e3565b90506000815111610a595760405180602001604052806000815250610a84565b80610a63846111fa565b604051602001610a74929190611d70565b6040516020818303038152906040525b915050919050565b6000600560008473ffffffffffffffffffffffffffffffffffffffff1673ffffffffffffffffffffffffffffffffffffffff16815260200190815260200160002060008373ffffffffffffffffffffffffffffffffffffffff1673ffffffffffffffffffffffffffffffffffffffff16815260200190815260200160002060009054906101000a900460ff16905092915050565b60007f01ffc9a7000000000000000000000000000000000000000000000000000000007bffffffffffffffffffffffffffffffffffffffffffffffffffffffff1916827bffffffffffffffffffffffffffffffffffffffffffffffffffffffff1916149050919050565b60008073ffffffffffffffffffffffffffffffffffffffff166002600084815260200190815260200160002060009054906101000a900473ffffffffffffffffffffffffffffffffffffffff1673ffffffffffffffffffffffffffffffffffffffff1614159050919050565b600033905090565b816004600083815260200190815260200160002060006101000a81548173ffffffffffffffffffffffffffffffffffffffff021916908373ffffffffffffffffffffffffffffffffffffffff160217905550808273ffffffffffffffffffffffffffffffffffffffff16610c718361074b565b73ffffffffffffffffffffffffffffffffffffffff167f8c5be1e5ebec7d5bd14f71427d1e84f3dd0314c0f7b2291e5b200ac8c7c3b92560405160405180910390a45050565b6000610cc282610b8a565b610d01576040517f08c379a0000000000000000000000000000000000000000000000000000000008152600401610cf890611ed8565b60405180910390fd5b6000610d0c8361074b565b90508073ffffffffffffffffffffffffffffffffffffffff168473ffffffffffffffffffffffffffffffffffffffff161480610d7b57508373ffffffffffffffffffffffffffffffffffffffff16610d6384610490565b73ffffffffffffffffffffffffffffffffffffffff16145b80610d8c5750610d8b8185610a8c565b5b91505092915050565b8273ffffffffffffffffffffffffffffffffffffffff16610db58261074b565b73ffffffffffffffffffffffffffffffffffffffff1614610e0b576040517f08c379a0000000000000000000000000000000000000000000000000000000008152600401610e0290611e58565b60405180910390fd5b600073ffffffffffffffffffffffffffffffffffffffff168273ffffffffffffffffffffffffffffffffffffffff161415610e7b576040517f08c379a0000000000000000000000000000000000000000000000000000000008152600401610e7290611e98565b60405180910390fd5b610e868383836113a7565b610e91600082610bfe565b6001600360008573ffffffffffffffffffffffffffffffffffffffff1673ffffffffffffffffffffffffffffffffffffffff1681526020019081526020016000206000828254610ee19190612153565b925050819055506001600360008473ffffffffffffffffffffffffffffffffffffffff1673ffffffffffffffffffffffffffffffffffffffff1681526020019081526020016000206000828254610f3891906120cc565b92505081905550816002600083815260200190815260200160002060006101000a81548173ffffffffffffffffffffffffffffffffffffffff021916908373ffffffffffffffffffffffffffffffffffffffff160217905550808273ffffffffffffffffffffffffffffffffffffffff168473ffffffffffffffffffffffffffffffffffffffff167fddf252ad1be2c89b69c2b068fc378daa952ba7f163c4a11628f55a4df523b3ef60405160405180910390a4610ff78383836113ac565b505050565b6110168282604051806020016040528060008152506113b1565b5050565b8173ffffffffffffffffffffffffffffffffffffffff168373ffffffffffffffffffffffffffffffffffffffff161415611089576040517f08c379a000000000000000000000000000000000000000000000000000000000815260040161108090611eb8565b60405180910390fd5b80600560008573ffffffffffffffffffffffffffffffffffffffff1673ffffffffffffffffffffffffffffffffffffffff16815260200190815260200160002060008473ffffffffffffffffffffffffffffffffffffffff1673ffffffffffffffffffffffffffffffffffffffff16815260200190815260200160002060006101000a81548160ff0219169083151502179055508173ffffffffffffffffffffffffffffffffffffffff168373ffffffffffffffffffffffffffffffffffffffff167f17307eab39ab6107e8899845ad3d59bd9653f200f220920489ca2b5937696c318360405161117a9190611dfb565b60405180910390a3505050565b611192848484610d95565b61119e8484848461140c565b6111dd576040517f08c379a00000000000000000000000000000000000000000000000000000000081526004016111d490611e38565b60405180910390fd5b50505050565b606060405180602001604052806000815250905090565b60606000821415611242576040518060400160405280600181526020017f300000000000000000000000000000000000000000000000000000000000000081525090506113a2565b600082905060005b6000821461127457808061125d906122a0565b915050600a8261126d9190612122565b915061124a565b60008167ffffffffffffffff8111156112b6577f4e487b7100000000000000000000000000000000000000000000000000000000600052604160045260246000fd5b6040519080825280601f01601f1916602001820160405280156112e85781602001600182028036833780820191505090505b5090505b6000851461139b576001826113019190612153565b9150600a8561131091906122e9565b603061131c91906120cc565b60f81b818381518110611358577f4e487b7100000000000000000000000000000000000000000000000000000000600052603260045260246000fd5b60200101907effffffffffffffffffffffffffffffffffffffffffffffffffffffffffffff1916908160001a905350600a856113949190612122565b94506112ec565b8093505050505b919050565b505050565b505050565b6113bb83836115a3565b6113c8600084848461140c565b611407576040517f08c379a00000000000000000000000000000000000000000000000000000000081526004016113fe90611e38565b60405180910390fd5b505050565b600061142d8473ffffffffffffffffffffffffffffffffffffffff1661177d565b15611596578373ffffffffffffffffffffffffffffffffffffffff1663150b7a02611456610bf6565b8786866040518563ffffffff1660e01b81526004016114789493929190611daf565b602060405180830381600087803b15801561149257600080fd5b505af19250505080156114c357506040513d601f19601f820116820180604052508101906114c09190611a41565b60015b611546573d80600081146114f3576040519150601f19603f3d011682016040523d82523d6000602084013e6114f8565b606091505b5060008151141561153e576040517f08c379a000000000000000000000000000000000000000000000000000000000815260040161153590611e38565b60405180910390fd5b805181602001fd5b63150b7a0260e01b7bffffffffffffffffffffffffffffffffffffffffffffffffffffffff1916817bffffffffffffffffffffffffffffffffffffffffffffffffffffffff19161491505061159b565b600190505b949350505050565b600073ffffffffffffffffffffffffffffffffffffffff168273ffffffffffffffffffffffffffffffffffffffff161415611613576040517f08c379a000000000000000000000000000000000000000000000000000000000815260040161160a90611f58565b60405180910390fd5b61161c81610b8a565b1561165c576040517f08c379a000000000000000000000000000000000000000000000000000000000815260040161165390611e78565b60405180910390fd5b611668600083836113a7565b6001600360008473ffffffffffffffffffffffffffffffffffffffff1673ffffffffffffffffffffffffffffffffffffffff16815260200190815260200160002060008282546116b891906120cc565b92505081905550816002600083815260200190815260200160002060006101000a81548173ffffffffffffffffffffffffffffffffffffffff021916908373ffffffffffffffffffffffffffffffffffffffff160217905550808273ffffffffffffffffffffffffffffffffffffffff16600073ffffffffffffffffffffffffffffffffffffffff167fddf252ad1be2c89b69c2b068fc378daa952ba7f163c4a11628f55a4df523b3ef60405160405180910390a4611779600083836113ac565b5050565b6000808273ffffffffffffffffffffffffffffffffffffffff163b119050919050565b60006117b36117ae84612058565b612033565b9050828152602081018484840111156117cb57600080fd5b6117d68482856121fb565b509392505050565b6000813590506117ed816127f0565b92915050565b60008135905061180281612807565b92915050565b6000813590506118178161281e565b92915050565b60008151905061182c8161281e565b92915050565b600082601f83011261184357600080fd5b81356118538482602086016117a0565b91505092915050565b60008135905061186b81612835565b92915050565b60006020828403121561188357600080fd5b6000611891848285016117de565b91505092915050565b600080604083850312156118ad57600080fd5b60006118bb858286016117de565b92505060206118cc858286016117de565b9150509250929050565b6000806000606084860312156118eb57600080fd5b60006118f9868287016117de565b935050602061190a868287016117de565b925050604061191b8682870161185c565b9150509250925092565b6000806000806080858703121561193b57600080fd5b6000611949878288016117de565b945050602061195a878288016117de565b935050604061196b8782880161185c565b925050606085013567ffffffffffffffff81111561198857600080fd5b61199487828801611832565b91505092959194509250565b600080604083850312156119b357600080fd5b60006119c1858286016117de565b92505060206119d2858286016117f3565b9150509250929050565b600080604083850312156119ef57600080fd5b60006119fd858286016117de565b9250506020611a0e8582860161185c565b9150509250929050565b600060208284031215611a2a57600080fd5b6000611a3884828501611808565b91505092915050565b600060208284031215611a5357600080fd5b6000611a618482850161181d565b91505092915050565b600060208284031215611a7c57600080fd5b6000611a8a8482850161185c565b91505092915050565b611a9c81612187565b82525050565b611aab81612199565b82525050565b6000611abc82612089565b611ac6818561209f565b9350611ad681856020860161220a565b611adf816123d6565b840191505092915050565b6000611af582612094565b611aff81856120b0565b9350611b0f81856020860161220a565b611b18816123d6565b840191505092915050565b6000611b2e82612094565b611b3881856120c1565b9350611b4881856020860161220a565b80840191505092915050565b6000611b616032836120b0565b9150611b6c826123e7565b604082019050919050565b6000611b846025836120b0565b9150611b8f82612436565b604082019050919050565b6000611ba7601c836120b0565b9150611bb282612485565b602082019050919050565b6000611bca6024836120b0565b9150611bd5826124ae565b604082019050919050565b6000611bed6019836120b0565b9150611bf8826124fd565b602082019050919050565b6000611c10602c836120b0565b9150611c1b82612526565b604082019050919050565b6000611c336038836120b0565b9150611c3e82612575565b604082019050919050565b6000611c56602a836120b0565b9150611c61826125c4565b604082019050919050565b6000611c796029836120b0565b9150611c8482612613565b604082019050919050565b6000611c9c6020836120b0565b9150611ca782612662565b602082019050919050565b6000611cbf602c836120b0565b9150611cca8261268b565b604082019050919050565b6000611ce2602f836120b0565b9150611ced826126da565b604082019050919050565b6000611d056021836120b0565b9150611d1082612729565b604082019050919050565b6000611d286031836120b0565b9150611d3382612778565b604082019050919050565b6000611d4b6013836120b0565b9150611d56826127c7565b602082019050919050565b611d6a816121f1565b82525050565b6000611d7c8285611b23565b9150611d888284611b23565b91508190509392505050565b6000602082019050611da96000830184611a93565b92915050565b6000608082019050611dc46000830187611a93565b611dd16020830186611a93565b611dde6040830185611d61565b8181036060830152611df08184611ab1565b905095945050505050565b6000602082019050611e106000830184611aa2565b92915050565b60006020820190508181036000830152611e308184611aea565b905092915050565b60006020820190508181036000830152611e5181611b54565b9050919050565b60006020820190508181036000830152611e7181611b77565b9050919050565b60006020820190508181036000830152611e9181611b9a565b9050919050565b60006020820190508181036000830152611eb181611bbd565b9050919050565b60006020820190508181036000830152611ed181611be0565b9050919050565b60006020820190508181036000830152611ef181611c03565b9050919050565b60006020820190508181036000830152611f1181611c26565b9050919050565b60006020820190508181036000830152611f3181611c49565b9050919050565b60006020820190508181036000830152611f5181611c6c565b9050919050565b60006020820190508181036000830152611f7181611c8f565b9050919050565b60006020820190508181036000830152611f9181611cb2565b9050919050565b60006020820190508181036000830152611fb181611cd5565b9050919050565b60006020820190508181036000830152611fd181611cf8565b9050919050565b60006020820190508181036000830152611ff181611d1b565b9050919050565b6000602082019050818103600083015261201181611d3e565b9050919050565b600060208201905061202d6000830184611d61565b92915050565b600061203d61204e565b9050612049828261226f565b919050565b6000604051905090565b600067ffffffffffffffff821115612073576120726123a7565b5b61207c826123d6565b9050602081019050919050565b600081519050919050565b600081519050919050565b600082825260208201905092915050565b600082825260208201905092915050565b600081905092915050565b60006120d7826121f1565b91506120e2836121f1565b9250827fffffffffffffffffffffffffffffffffffffffffffffffffffffffffffffffff038211156121175761211661231a565b5b828201905092915050565b600061212d826121f1565b9150612138836121f1565b92508261214857612147612349565b5b828204905092915050565b600061215e826121f1565b9150612169836121f1565b92508282101561217c5761217b61231a565b5b828203905092915050565b6000612192826121d1565b9050919050565b60008115159050919050565b60007fffffffff0000000000000000000000000000000000000000000000000000000082169050919050565b600073ffffffffffffffffffffffffffffffffffffffff82169050919050565b6000819050919050565b82818337600083830152505050565b60005b8381101561222857808201518184015260208101905061220d565b83811115612237576000848401525b50505050565b6000600282049050600182168061225557607f821691505b6020821081141561226957612268612378565b5b50919050565b612278826123d6565b810181811067ffffffffffffffff82111715612297576122966123a7565b5b80604052505050565b60006122ab826121f1565b91507fffffffffffffffffffffffffffffffffffffffffffffffffffffffffffffffff8214156122de576122dd61231a565b5b600182019050919050565b60006122f4826121f1565b91506122ff836121f1565b92508261230f5761230e612349565b5b828206905092915050565b7f4e487b7100000000000000000000000000000000000000000000000000000000600052601160045260246000fd5b7f4e487b7100000000000000000000000000000000000000000000000000000000600052601260045260246000fd5b7f4e487b7100000000000000000000000000000000000000000000000000000000600052602260045260246000fd5b7f4e487b7100000000000000000000000000000000000000000000000000000000600052604160045260246000fd5b6000601f19601f8301169050919050565b7f4552433732313a207472616e7366657220746f206e6f6e20455243373231526560008201527f63656976657220696d706c656d656e7465720000000000000000000000000000602082015250565b7f4552433732313a207472616e736665722066726f6d20696e636f72726563742060008201527f6f776e6572000000000000000000000000000000000000000000000000000000602082015250565b7f4552433732313a20746f6b656e20616c7265616479206d696e74656400000000600082015250565b7f4552433732313a207472616e7366657220746f20746865207a65726f2061646460008201527f7265737300000000000000000000000000000000000000000000000000000000602082015250565b7f4552433732313a20617070726f766520746f2063616c6c657200000000000000600082015250565b7f4552433732313a206f70657261746f7220717565727920666f72206e6f6e657860008201527f697374656e7420746f6b656e0000000000000000000000000000000000000000602082015250565b7f4552433732313a20617070726f76652063616c6c6572206973206e6f74206f7760008201527f6e6572206e6f7220617070726f76656420666f7220616c6c0000000000000000602082015250565b7f4552433732313a2062616c616e636520717565727920666f7220746865207a6560008201527f726f206164647265737300000000000000000000000000000000000000000000602082015250565b7f4552433732313a206f776e657220717565727920666f72206e6f6e657869737460008201527f656e7420746f6b656e0000000000000000000000000000000000000000000000602082015250565b7f4552433732313a206d696e7420746f20746865207a65726f2061646472657373600082015250565b7f4552433732313a20617070726f76656420717565727920666f72206e6f6e657860008201527f697374656e7420746f6b656e0000000000000000000000000000000000000000602082015250565b7f4552433732314d657461646174613a2055524920717565727920666f72206e6f60008201527f6e6578697374656e7420746f6b656e0000000000000000000000000000000000602082015250565b7f4552433732313a20617070726f76616c20746f2063757272656e74206f776e6560008201527f7200000000000000000000000000000000000000000000000000000000000000602082015250565b7f4552433732313a207472616e736665722063616c6c6572206973206e6f74206f60008201527f776e6572206e6f7220617070726f766564000000000000000000000000000000602082015250565b7f6d757374206f776e65722063616e206d696e7400000000000000000000000000600082015250565b6127f981612187565b811461280457600080fd5b50565b61281081612199565b811461281b57600080fd5b50565b612827816121a5565b811461283257600080fd5b50565b61283e816121f1565b811461284957600080fd5b5056fea264697066735822122054bef632aef0e29532ff64f3095baf4bb19397548a282542940209881bb9dfb564736f6c63430008040033",
  "devdoc": {
    "kind": "dev",
    "methods": {
      "approve(address,uint256)": {
        "details": "See {IERC721-approve}."
      },
      "balanceOf(address)": {
        "details": "See {IERC721-balanceOf}."
      },
      "getApproved(uint256)": {
        "details": "See {IERC721-getApproved}."
      },
      "isApprovedForAll(address,address)": {
        "details": "See {IERC721-isApprovedForAll}."
      },
      "name()": {
        "details": "See {IERC721Metadata-name}."
      },
      "ownerOf(uint256)": {
        "details": "See {IERC721-ownerOf}."
      },
      "safeTransferFrom(address,address,uint256)": {
        "details": "See {IERC721-safeTransferFrom}."
      },
      "safeTransferFrom(address,address,uint256,bytes)": {
        "details": "See {IERC721-safeTransferFrom}."
      },
      "setApprovalForAll(address,bool)": {
        "details": "See {IERC721-setApprovalForAll}."
      },
      "supportsInterface(bytes4)": {
        "details": "See {IERC165-supportsInterface}."
      },
      "symbol()": {
        "details": "See {IERC721Metadata-symbol}."
      },
      "tokenURI(uint256)": {
        "details": "See {IERC721Metadata-tokenURI}."
      },
      "transferFrom(address,address,uint256)": {
        "details": "See {IERC721-transferFrom}."
      }
    },
    "version": 1
  },
  "userdoc": {
    "kind": "user",
    "methods": {},
    "version": 1
  },
  "storageLayout": {
    "storage": [
      {
        "astId": 25,
        "contract": "contracts/MyERC721.sol:MyERC721",
        "label": "_name",
        "offset": 0,
        "slot": "0",
        "type": "t_string_storage"
      },
      {
        "astId": 27,
        "contract": "contracts/MyERC721.sol:MyERC721",
        "label": "_symbol",
        "offset": 0,
        "slot": "1",
        "type": "t_string_storage"
      },
      {
        "astId": 31,
        "contract": "contracts/MyERC721.sol:MyERC721",
        "label": "_owners",
        "offset": 0,
        "slot": "2",
        "type": "t_mapping(t_uint256,t_address)"
      },
      {
        "astId": 35,
        "contract": "contracts/MyERC721.sol:MyERC721",
        "label": "_balances",
        "offset": 0,
        "slot": "3",
        "type": "t_mapping(t_address,t_uint256)"
      },
      {
        "astId": 39,
        "contract": "contracts/MyERC721.sol:MyERC721",
        "label": "_tokenApprovals",
        "offset": 0,
        "slot": "4",
        "type": "t_mapping(t_uint256,t_address)"
      },
      {
        "astId": 45,
        "contract": "contracts/MyERC721.sol:MyERC721",
        "label": "_operatorApprovals",
        "offset": 0,
        "slot": "5",
        "type": "t_mapping(t_address,t_mapping(t_address,t_bool))"
      },
      {
        "astId": 1589,
        "contract": "contracts/MyERC721.sol:MyERC721",
        "label": "owner",
        "offset": 0,
        "slot": "6",
        "type": "t_address"
      }
    ],
    "types": {
      "t_address": {
        "encoding": "inplace",
        "label": "address",
        "numberOfBytes": "20"
      },
      "t_bool": {
        "encoding": "inplace",
        "label": "bool",
        "numberOfBytes": "1"
      },
      "t_mapping(t_address,t_bool)": {
        "encoding": "mapping",
        "key": "t_address",
        "label": "mapping(address => bool)",
        "numberOfBytes": "32",
        "value": "t_bool"
      },
      "t_mapping(t_address,t_mapping(t_address,t_bool))": {
        "encoding": "mapping",
        "key": "t_address",
        "label": "mapping(address => mapping(address => bool))",
        "numberOfBytes": "32",
        "value": "t_mapping(t_address,t_bool)"
      },
      "t_mapping(t_address,t_uint256)": {
        "encoding": "mapping",
        "key": "t_address",
        "label": "mapping(address => uint256)",
        "numberOfBytes": "32",
        "value": "t_uint256"
      },
      "t_mapping(t_uint256,t_address)": {
        "encoding": "mapping",
        "key": "t_uint256",
        "label": "mapping(uint256 => address)",
        "numberOfBytes": "32",
        "value": "t_address"
      },
      "t_string_storage": {
        "encoding": "bytes",
        "label": "string",
        "numberOfBytes": "32"
      },
      "t_uint256": {
        "encoding": "inplace",
        "label": "uint256",
        "numberOfBytes": "32"
      }
    }
  }
}