{
  "address": "0x5FbDB2315678afecb367f032d93F642f64180aa3",
  "abi": [
    {
      "inputs": [],
      "stateMutability": "nonpayable",
      "type": "constructor"
    },
    {
      "inputs": [],
      "name": "count",
      "outputs": [],
      "stateMutability": "nonpayable",
      "type": "function"
    },
    {
      "inputs": [],
      "name": "counter",
      "outputs": [
        {
          "internalType": "uint256",
          "name": "",
          "type": "uint256"
        }
      ],
      "stateMutability": "view",
      "type": "function"
    },
    {
      "inputs": [
        {
          "internalType": "uint256",
          "name": "_counter",
          "type": "uint256"
        }
      ],
      "name": "setCounter",
      "outputs": [],
      "stateMutability": "nonpayable",
      "type": "function"
    }
  ],
  "transactionHash": "0x5b8f7083722e7bb04b90d896f7d9d31b1c47bc339f7138b1420d02f86280dcba",
  "args": [],
  "numDeployments": 1,
  "solcInputHash": "f53d73dcc3ed09c482f86cd945b70add",
  "bytecode": "0x608060405234801561001057600080fd5b50600080819055506103db806100276000396000f3fe608060405234801561001057600080fd5b50600436106100415760003560e01c806306661abd1461004657806361bc221a146100505780638bb5d9c31461006e575b600080fd5b61004e61008a565b005b6100586100a1565b6040516100659190610262565b60405180910390f35b610088600480360381019061008391906101b3565b6100a7565b005b60016000546100999190610299565b600081905550565b60005481565b6100cc60405180606001604052806022815260200161038460229139600054836100d6565b8060008190555050565b6101708383836040516024016100ee93929190610224565b6040516020818303038152906040527f969cdd03000000000000000000000000000000000000000000000000000000007bffffffffffffffffffffffffffffffffffffffffffffffffffffffff19166020820180517bffffffffffffffffffffffffffffffffffffffffffffffffffffffff8381831617835250505050610175565b505050565b60008151905060006a636f6e736f6c652e6c6f679050602083016000808483855afa5050505050565b6000813590506101ad8161036c565b92915050565b6000602082840312156101c557600080fd5b60006101d38482850161019e565b91505092915050565b60006101e78261027d565b6101f18185610288565b93506102018185602086016102f9565b61020a8161035b565b840191505092915050565b61021e816102ef565b82525050565b6000606082019050818103600083015261023e81866101dc565b905061024d6020830185610215565b61025a6040830184610215565b949350505050565b60006020820190506102776000830184610215565b92915050565b600081519050919050565b600082825260208201905092915050565b60006102a4826102ef565b91506102af836102ef565b9250827fffffffffffffffffffffffffffffffffffffffffffffffffffffffffffffffff038211156102e4576102e361032c565b5b828201905092915050565b6000819050919050565b60005b838110156103175780820151818401526020810190506102fc565b83811115610326576000848401525b50505050565b7f4e487b7100000000000000000000000000000000000000000000000000000000600052601160045260246000fd5b6000601f19601f8301169050919050565b610375816102ef565b811461038057600080fd5b5056fe4368616e67696e6720636f756e7465722066726f6d202725732720746f2027257327a26469706673582212209d73996a3011cdb854bc2c6715e004351e7e44305d995720589247dc75e9a20c64736f6c63430008040033",
  "devdoc": {
    "kind": "dev",
    "methods": {},
    "version": 1
  },
  "userdoc": {
    "kind": "user",
    "methods": {},
    "version": 1
  },
  "storageLayout": {
    "storage": [
      {
        "astId": 4,
        "contract": "contracts/Counter.sol:Counter",
        "label": "counter",
        "offset": 0,
        "slot": "0",
        "type": "t_uint256"
      }
    ],
    "types": {
      "t_uint256": {
        "encoding": "inplace",
        "label": "uint256",
        "numberOfBytes": "32"
      }
    }
  }
}