{
  "address": "0xDFA7Fcbc7E0cE9e582031d222687f646c18dfbD5",
  "abi": [
    {
      "inputs": [
        {
          "internalType": "address",
          "name": "_factory",
          "type": "address"
        },
        {
          "internalType": "address",
          "name": "_wETH",
          "type": "address"
        }
      ],
      "stateMutability": "nonpayable",
      "type": "constructor"
    },
    {
      "anonymous": false,
      "inputs": [
        {
          "indexed": false,
          "internalType": "string",
          "name": "message",
          "type": "string"
        },
        {
          "indexed": false,
          "internalType": "uint256",
          "name": "val",
          "type": "uint256"
        }
      ],
      "name": "Log",
      "type": "event"
    },
    {
      "inputs": [],
      "name": "swapRouter",
      "outputs": [
        {
          "internalType": "contract ISwapRouter",
          "name": "",
          "type": "address"
        }
      ],
      "stateMutability": "view",
      "type": "function"
    },
    {
      "inputs": [
        {
          "internalType": "address",
          "name": "_tokenA",
          "type": "address"
        },
        {
          "internalType": "address",
          "name": "_tokenB",
          "type": "address"
        },
        {
          "internalType": "uint256",
          "name": "_amount",
          "type": "uint256"
        }
      ],
      "name": "testFlashSwap",
      "outputs": [],
      "stateMutability": "nonpayable",
      "type": "function"
    },
    {
      "inputs": [
        {
          "internalType": "address",
          "name": "_sender",
          "type": "address"
        },
        {
          "internalType": "uint256",
          "name": "_amount0",
          "type": "uint256"
        },
        {
          "internalType": "uint256",
          "name": "_amount1",
          "type": "uint256"
        },
        {
          "internalType": "bytes",
          "name": "_data",
          "type": "bytes"
        }
      ],
      "name": "uniswapV2Call",
      "outputs": [],
      "stateMutability": "nonpayable",
      "type": "function"
    },
    {
      "inputs": [],
      "name": "v3PoolFee",
      "outputs": [
        {
          "internalType": "uint24",
          "name": "",
          "type": "uint24"
        }
      ],
      "stateMutability": "view",
      "type": "function"
    },
    {
      "stateMutability": "payable",
      "type": "receive"
    }
  ],
  "transactionHash": "0xb3722999de6bbf9330f0469a9e44ac543d05aba61b304ff82e9f7f9e78c93a7f",
  "args": [
    "0x5C69bEe701ef814a2B6a3EDD4B1652CB9cc5aA6f",
    "0xc778417E063141139Fce010982780140Aa0cD5Ab"
  ],
  "numDeployments": 1,
  "solcInputHash": "ca430f1202476d7e23f088294cca85fb",
  "bytecode": "0x60a06040527fffffffffffffffffffffffffffffffffffffffffffffffffffffffffffffffff60025573e592427a0aece92de3edee1f18e0157c05861564600360006101000a81548173ffffffffffffffffffffffffffffffffffffffff021916908373ffffffffffffffffffffffffffffffffffffffff160217905550737a250d5630b4cf539739df2c5dacb4c659f2488d600460006101000a81548173ffffffffffffffffffffffffffffffffffffffff021916908373ffffffffffffffffffffffffffffffffffffffff160217905550348015620000df57600080fd5b506040516200291d3803806200291d8339818101604052810190620001059190620001fe565b816000806101000a81548173ffffffffffffffffffffffffffffffffffffffff021916908373ffffffffffffffffffffffffffffffffffffffff16021790555080600160006101000a81548173ffffffffffffffffffffffffffffffffffffffff021916908373ffffffffffffffffffffffffffffffffffffffff160217905550600360009054906101000a900473ffffffffffffffffffffffffffffffffffffffff1673ffffffffffffffffffffffffffffffffffffffff1660808173ffffffffffffffffffffffffffffffffffffffff1660601b8152505050506200028d565b600081519050620001f88162000273565b92915050565b600080604083850312156200021257600080fd5b60006200022285828601620001e7565b92505060206200023585828601620001e7565b9150509250929050565b60006200024c8262000253565b9050919050565b600073ffffffffffffffffffffffffffffffffffffffff82169050919050565b6200027e816200023f565b81146200028a57600080fd5b50565b60805160601c612663620002ba6000396000818161063c0152818161070401526115d301526126636000f3fe6080604052600436106100435760003560e01c806310d1e85c1461004f5780631727533f14610078578063a39992d4146100a3578063c31c9c07146100cc5761004a565b3661004a57005b600080fd5b34801561005b57600080fd5b5061007660048036038101906100719190611b7d565b6100f7565b005b34801561008457600080fd5b5061008d610f5f565b60405161009a919061210e565b60405180910390f35b3480156100af57600080fd5b506100ca60048036038101906100c59190611b2e565b610f65565b005b3480156100d857600080fd5b506100e16115d1565b6040516100ee9190611ff5565b60405180910390f35b60003373ffffffffffffffffffffffffffffffffffffffff16630dfe16816040518163ffffffff1660e01b815260040160206040518083038186803b15801561013f57600080fd5b505afa158015610153573d6000803e3d6000fd5b505050506040513d601f19601f820116820180604052508101906101779190611aa2565b905060003373ffffffffffffffffffffffffffffffffffffffff1663d21220a76040518163ffffffff1660e01b815260040160206040518083038186803b1580156101c157600080fd5b505afa1580156101d5573d6000803e3d6000fd5b505050506040513d601f19601f820116820180604052508101906101f99190611aa2565b905060008060009054906101000a900473ffffffffffffffffffffffffffffffffffffffff1673ffffffffffffffffffffffffffffffffffffffff1663e6a4390584846040518363ffffffff1660e01b8152600401610259929190611f5e565b60206040518083038186803b15801561027157600080fd5b505afa158015610285573d6000803e3d6000fd5b505050506040513d601f19601f820116820180604052508101906102a99190611aa2565b90508073ffffffffffffffffffffffffffffffffffffffff163373ffffffffffffffffffffffffffffffffffffffff1614610319576040517f08c379a0000000000000000000000000000000000000000000000000000000008152600401610310906120b2565b60405180910390fd5b3073ffffffffffffffffffffffffffffffffffffffff168873ffffffffffffffffffffffffffffffffffffffff1614610387576040517f08c379a000000000000000000000000000000000000000000000000000000000815260040161037e906120d2565b60405180910390fd5b600080600080888881019061039c9190611acb565b935093509350935060008473ffffffffffffffffffffffffffffffffffffffff166370a08231306040518263ffffffff1660e01b81526004016103df9190611f43565b60206040518083038186803b1580156103f757600080fd5b505afa15801561040b573d6000803e3d6000fd5b505050506040513d601f19601f8201168201806040525081019061042f9190611c67565b905060008473ffffffffffffffffffffffffffffffffffffffff166370a08231306040518263ffffffff1660e01b815260040161046c9190611f43565b60206040518083038186803b15801561048457600080fd5b505afa158015610498573d6000803e3d6000fd5b505050506040513d601f19601f820116820180604052508101906104bc9190611c67565b90506104fc6040518060400160405280600f81526020017f3d3d64656275672061667465723d3d00000000000000000000000000000000008152506115f5565b61053b6040518060400160405280600681526020017f746f6b656e4100000000000000000000000000000000000000000000000000008152508761168e565b61057a6040518060400160405280600681526020017f746f6b656e4200000000000000000000000000000000000000000000000000008152508661168e565b6105b96040518060400160405280600681526020017f61746f6b656e00000000000000000000000000000000000000000000000000008152508361172a565b6105f86040518060400160405280600681526020017f62746f6b656e00000000000000000000000000000000000000000000000000008152508261172a565b6106366040518060400160405280600481526020017f3d3d3d3d000000000000000000000000000000000000000000000000000000008152506115f5565b610661867f0000000000000000000000000000000000000000000000000000000000000000846117c6565b60006040518061010001604052808873ffffffffffffffffffffffffffffffffffffffff1681526020018773ffffffffffffffffffffffffffffffffffffffff168152602001610bb862ffffff1681526020013073ffffffffffffffffffffffffffffffffffffffff16815260200142815260200184815260200160008152602001600073ffffffffffffffffffffffffffffffffffffffff16815250905060007f000000000000000000000000000000000000000000000000000000000000000073ffffffffffffffffffffffffffffffffffffffff1663414bf389836040518263ffffffff1660e01b815260040161075b91906120f2565b602060405180830381600087803b15801561077557600080fd5b505af1158015610789573d6000803e3d6000fd5b505050506040513d601f19601f820116820180604052508101906107ad9190611c67565b90506108596040518060600160405280602581526020016125e4602591398973ffffffffffffffffffffffffffffffffffffffff166370a08231306040518263ffffffff1660e01b81526004016108049190611f43565b60206040518083038186803b15801561081c57600080fd5b505afa158015610830573d6000803e3d6000fd5b505050506040513d601f19601f820116820180604052508101906108549190611c67565b61172a565b610903604051806060016040528060258152602001612609602591398873ffffffffffffffffffffffffffffffffffffffff166370a08231306040518263ffffffff1660e01b81526004016108ae9190611f43565b60206040518083038186803b1580156108c657600080fd5b505afa1580156108da573d6000803e3d6000fd5b505050506040513d601f19601f820116820180604052508101906108fe9190611c67565b61172a565b6000808873ffffffffffffffffffffffffffffffffffffffff166370a08231306040518263ffffffff1660e01b815260040161093f9190611f43565b60206040518083038186803b15801561095757600080fd5b505afa15801561096b573d6000803e3d6000fd5b505050506040513d601f19601f8201168201806040525081019061098f9190611c67565b90508873ffffffffffffffffffffffffffffffffffffffff1663095ea7b3600460009054906101000a900473ffffffffffffffffffffffffffffffffffffffff16836040518363ffffffff1660e01b81526004016109ee929190611fcc565b602060405180830381600087803b158015610a0857600080fd5b505af1158015610a1c573d6000803e3d6000fd5b505050506040513d601f19601f82011682018060405250810190610a409190611c3e565b506060600267ffffffffffffffff811115610a84577f4e487b7100000000000000000000000000000000000000000000000000000000600052604160045260246000fd5b604051908082528060200260200182016040528015610ab25781602001602082028036833780820191505090505b5090508981600081518110610af0577f4e487b7100000000000000000000000000000000000000000000000000000000600052603260045260246000fd5b602002602001019073ffffffffffffffffffffffffffffffffffffffff16908173ffffffffffffffffffffffffffffffffffffffff16815250508a81600181518110610b65577f4e487b7100000000000000000000000000000000000000000000000000000000600052603260045260246000fd5b602002602001019073ffffffffffffffffffffffffffffffffffffffff16908173ffffffffffffffffffffffffffffffffffffffff1681525050600460009054906101000a900473ffffffffffffffffffffffffffffffffffffffff1673ffffffffffffffffffffffffffffffffffffffff166338ed173983858430426040518663ffffffff1660e01b8152600401610c02959493929190612175565b600060405180830381600087803b158015610c1c57600080fd5b505af1158015610c30573d6000803e3d6000fd5b505050506040513d6000823e3d601f19601f82011682018060405250810190610c599190611bfd565b50600060016103e560038c610c6e9190612323565b610c7891906122f2565b610c82919061229c565b90506000818b610c92919061229c565b9050610cd36040518060400160405280600381526020017f66656500000000000000000000000000000000000000000000000000000000008152508361172a565b610d126040518060400160405280600f81526020017f616d6f756e7420746f20726570617900000000000000000000000000000000008152508261172a565b8c73ffffffffffffffffffffffffffffffffffffffff1663a9059cbb8f836040518363ffffffff1660e01b8152600401610d4d929190611fcc565b602060405180830381600087803b158015610d6757600080fd5b505af1158015610d7b573d6000803e3d6000fd5b505050506040513d601f19601f82011682018060405250810190610d9f9190611c3e565b5060008d73ffffffffffffffffffffffffffffffffffffffff166370a08231306040518263ffffffff1660e01b8152600401610ddb9190611f43565b60206040518083038186803b158015610df357600080fd5b505afa158015610e07573d6000803e3d6000fd5b505050506040513d601f19601f82011682018060405250810190610e2b9190611c67565b1115610f48578c73ffffffffffffffffffffffffffffffffffffffff1663a9059cbb8b8f73ffffffffffffffffffffffffffffffffffffffff166370a08231306040518263ffffffff1660e01b8152600401610e879190611f43565b60206040518083038186803b158015610e9f57600080fd5b505afa158015610eb3573d6000803e3d6000fd5b505050506040513d601f19601f82011682018060405250810190610ed79190611c67565b6040518363ffffffff1660e01b8152600401610ef4929190611fcc565b602060405180830381600087803b158015610f0e57600080fd5b505af1158015610f22573d6000803e3d6000fd5b505050506040513d601f19601f82011682018060405250810190610f469190611c3e565b505b505050505050505050505050505050505050505050565b610bb881565b60008060009054906101000a900473ffffffffffffffffffffffffffffffffffffffff1673ffffffffffffffffffffffffffffffffffffffff1663e6a4390585856040518363ffffffff1660e01b8152600401610fc3929190611f5e565b60206040518083038186803b158015610fdb57600080fd5b505afa158015610fef573d6000803e3d6000fd5b505050506040513d601f19601f820116820180604052508101906110139190611aa2565b9050600073ffffffffffffffffffffffffffffffffffffffff168173ffffffffffffffffffffffffffffffffffffffff161415611085576040517f08c379a000000000000000000000000000000000000000000000000000000000815260040161107c906120b2565b60405180910390fd5b60008173ffffffffffffffffffffffffffffffffffffffff16630dfe16816040518163ffffffff1660e01b815260040160206040518083038186803b1580156110cd57600080fd5b505afa1580156110e1573d6000803e3d6000fd5b505050506040513d601f19601f820116820180604052508101906111059190611aa2565b905060008273ffffffffffffffffffffffffffffffffffffffff1663d21220a76040518163ffffffff1660e01b815260040160206040518083038186803b15801561114f57600080fd5b505afa158015611163573d6000803e3d6000fd5b505050506040513d601f19601f820116820180604052508101906111879190611aa2565b905060008273ffffffffffffffffffffffffffffffffffffffff168773ffffffffffffffffffffffffffffffffffffffff16146111c55760006111c7565b845b905060008273ffffffffffffffffffffffffffffffffffffffff168873ffffffffffffffffffffffffffffffffffffffff1614611205576000611207565b855b90506000888888336040516020016112229493929190611f87565b60405160208183030381529060405290508873ffffffffffffffffffffffffffffffffffffffff1663095ea7b387896040518363ffffffff1660e01b815260040161126e929190611fcc565b602060405180830381600087803b15801561128857600080fd5b505af115801561129c573d6000803e3d6000fd5b505050506040513d601f19601f820116820180604052508101906112c09190611c3e565b5060008973ffffffffffffffffffffffffffffffffffffffff166370a08231306040518263ffffffff1660e01b81526004016112fc9190611f43565b60206040518083038186803b15801561131457600080fd5b505afa158015611328573d6000803e3d6000fd5b505050506040513d601f19601f8201168201806040525081019061134c9190611c67565b905060008973ffffffffffffffffffffffffffffffffffffffff166370a08231306040518263ffffffff1660e01b81526004016113899190611f43565b60206040518083038186803b1580156113a157600080fd5b505afa1580156113b5573d6000803e3d6000fd5b505050506040513d601f19601f820116820180604052508101906113d99190611c67565b90506114196040518060400160405280601081526020017f3d3d6465627567206265666f72653d3d000000000000000000000000000000008152506115f5565b6114586040518060400160405280600681526020017f746f6b656e4100000000000000000000000000000000000000000000000000008152508c61168e565b6114976040518060400160405280600681526020017f746f6b656e4200000000000000000000000000000000000000000000000000008152508b61168e565b6114d66040518060400160405280600681526020017f61746f6b656e00000000000000000000000000000000000000000000000000008152508361172a565b6115156040518060400160405280600681526020017f62746f6b656e00000000000000000000000000000000000000000000000000008152508261172a565b6115536040518060400160405280600481526020017f3d3d3d3d000000000000000000000000000000000000000000000000000000008152506115f5565b8773ffffffffffffffffffffffffffffffffffffffff1663022c0d9f868630876040518563ffffffff1660e01b81526004016115929493929190612129565b600060405180830381600087803b1580156115ac57600080fd5b505af11580156115c0573d6000803e3d6000fd5b505050505050505050505050505050565b7f000000000000000000000000000000000000000000000000000000000000000081565b61168b816040516024016116099190612010565b6040516020818303038152906040527f41304fac000000000000000000000000000000000000000000000000000000007bffffffffffffffffffffffffffffffffffffffffffffffffffffffff19166020820180517bffffffffffffffffffffffffffffffffffffffffffffffffffffffff838183161783525050505061191b565b50565b61172682826040516024016116a4929190612032565b6040516020818303038152906040527f319af333000000000000000000000000000000000000000000000000000000007bffffffffffffffffffffffffffffffffffffffffffffffffffffffff19166020820180517bffffffffffffffffffffffffffffffffffffffffffffffffffffffff838183161783525050505061191b565b5050565b6117c28282604051602401611740929190612062565b6040516020818303038152906040527f9710a9d0000000000000000000000000000000000000000000000000000000007bffffffffffffffffffffffffffffffffffffffffffffffffffffffff19166020820180517bffffffffffffffffffffffffffffffffffffffffffffffffffffffff838183161783525050505061191b565b5050565b6000808473ffffffffffffffffffffffffffffffffffffffff1663095ea7b360e01b85856040516024016117fb929190611fcc565b604051602081830303815290604052907bffffffffffffffffffffffffffffffffffffffffffffffffffffffff19166020820180517bffffffffffffffffffffffffffffffffffffffffffffffffffffffff83818316178352505050506040516118659190611f2c565b6000604051808303816000865af19150503d80600081146118a2576040519150601f19603f3d011682016040523d82523d6000602084013e6118a7565b606091505b50915091508180156118d557506000815114806118d45750808060200190518101906118d39190611c3e565b5b5b611914576040517f08c379a000000000000000000000000000000000000000000000000000000000815260040161190b90612092565b60405180910390fd5b5050505050565b60008151905060006a636f6e736f6c652e6c6f679050602083016000808483855afa5050505050565b6000611957611952846121f4565b6121cf565b9050808382526020820190508285602086028201111561197657600080fd5b60005b858110156119a6578161198c8882611a8d565b845260208401935060208301925050600181019050611979565b5050509392505050565b6000813590506119bf81612587565b92915050565b6000815190506119d481612587565b92915050565b6000813590506119e98161259e565b92915050565b600082601f830112611a0057600080fd5b8151611a10848260208601611944565b91505092915050565b600081519050611a28816125b5565b92915050565b60008083601f840112611a4057600080fd5b8235905067ffffffffffffffff811115611a5957600080fd5b602083019150836001820283011115611a7157600080fd5b9250929050565b600081359050611a87816125cc565b92915050565b600081519050611a9c816125cc565b92915050565b600060208284031215611ab457600080fd5b6000611ac2848285016119c5565b91505092915050565b60008060008060808587031215611ae157600080fd5b6000611aef878288016119da565b9450506020611b00878288016119da565b9350506040611b1187828801611a78565b9250506060611b22878288016119da565b91505092959194509250565b600080600060608486031215611b4357600080fd5b6000611b51868287016119b0565b9350506020611b62868287016119b0565b9250506040611b7386828701611a78565b9150509250925092565b600080600080600060808688031215611b9557600080fd5b6000611ba3888289016119b0565b9550506020611bb488828901611a78565b9450506040611bc588828901611a78565b935050606086013567ffffffffffffffff811115611be257600080fd5b611bee88828901611a2e565b92509250509295509295909350565b600060208284031215611c0f57600080fd5b600082015167ffffffffffffffff811115611c2957600080fd5b611c35848285016119ef565b91505092915050565b600060208284031215611c5057600080fd5b6000611c5e84828501611a19565b91505092915050565b600060208284031215611c7957600080fd5b6000611c8784828501611a8d565b91505092915050565b6000611c9c8383611ca8565b60208301905092915050565b611cb18161237d565b82525050565b611cc08161237d565b82525050565b6000611cd182612230565b611cdb818561225e565b9350611ce683612220565b8060005b83811015611d17578151611cfe8882611c90565b9750611d0983612251565b925050600181019050611cea565b5085935050505092915050565b6000611d2f8261223b565b611d39818561226f565b9350611d4981856020860161240a565b611d52816124fb565b840191505092915050565b6000611d688261223b565b611d728185612280565b9350611d8281856020860161240a565b80840191505092915050565b611d97816123e6565b82525050565b6000611da882612246565b611db2818561228b565b9350611dc281856020860161240a565b611dcb816124fb565b840191505092915050565b6000611de360028361228b565b9150611dee8261250c565b602082019050919050565b6000611e0660058361228b565b9150611e1182612535565b602082019050919050565b6000611e2960078361228b565b9150611e348261255e565b602082019050919050565b61010082016000820151611e566000850182611ca8565b506020820151611e696020850182611ca8565b506040820151611e7c6040850182611ef0565b506060820151611e8f6060850182611ca8565b506080820151611ea26080850182611f0e565b5060a0820151611eb560a0850182611f0e565b5060c0820151611ec860c0850182611f0e565b5060e0820151611edb60e0850182611ee1565b50505050565b611eea816123ad565b82525050565b611ef9816123cd565b82525050565b611f08816123cd565b82525050565b611f17816123dc565b82525050565b611f26816123dc565b82525050565b6000611f388284611d5d565b915081905092915050565b6000602082019050611f586000830184611cb7565b92915050565b6000604082019050611f736000830185611cb7565b611f806020830184611cb7565b9392505050565b6000608082019050611f9c6000830187611cb7565b611fa96020830186611cb7565b611fb66040830185611f1d565b611fc36060830184611cb7565b95945050505050565b6000604082019050611fe16000830185611cb7565b611fee6020830184611f1d565b9392505050565b600060208201905061200a6000830184611d8e565b92915050565b6000602082019050818103600083015261202a8184611d9d565b905092915050565b6000604082019050818103600083015261204c8185611d9d565b905061205b6020830184611cb7565b9392505050565b6000604082019050818103600083015261207c8185611d9d565b905061208b6020830184611f1d565b9392505050565b600060208201905081810360008301526120ab81611dd6565b9050919050565b600060208201905081810360008301526120cb81611df9565b9050919050565b600060208201905081810360008301526120eb81611e1c565b9050919050565b6000610100820190506121086000830184611e3f565b92915050565b60006020820190506121236000830184611eff565b92915050565b600060808201905061213e6000830187611f1d565b61214b6020830186611f1d565b6121586040830185611cb7565b818103606083015261216a8184611d24565b905095945050505050565b600060a08201905061218a6000830188611f1d565b6121976020830187611f1d565b81810360408301526121a98186611cc6565b90506121b86060830185611cb7565b6121c56080830184611f1d565b9695505050505050565b60006121d96121ea565b90506121e5828261243d565b919050565b6000604051905090565b600067ffffffffffffffff82111561220f5761220e6124cc565b5b602082029050602081019050919050565b6000819050602082019050919050565b600081519050919050565b600081519050919050565b600081519050919050565b6000602082019050919050565b600082825260208201905092915050565b600082825260208201905092915050565b600081905092915050565b600082825260208201905092915050565b60006122a7826123dc565b91506122b2836123dc565b9250827fffffffffffffffffffffffffffffffffffffffffffffffffffffffffffffffff038211156122e7576122e661246e565b5b828201905092915050565b60006122fd826123dc565b9150612308836123dc565b9250826123185761231761249d565b5b828204905092915050565b600061232e826123dc565b9150612339836123dc565b9250817fffffffffffffffffffffffffffffffffffffffffffffffffffffffffffffffff04831182151516156123725761237161246e565b5b828202905092915050565b6000612388826123ad565b9050919050565b600061239a826123ad565b9050919050565b60008115159050919050565b600073ffffffffffffffffffffffffffffffffffffffff82169050919050565b600062ffffff82169050919050565b6000819050919050565b60006123f1826123f8565b9050919050565b6000612403826123ad565b9050919050565b60005b8381101561242857808201518184015260208101905061240d565b83811115612437576000848401525b50505050565b612446826124fb565b810181811067ffffffffffffffff82111715612465576124646124cc565b5b80604052505050565b7f4e487b7100000000000000000000000000000000000000000000000000000000600052601160045260246000fd5b7f4e487b7100000000000000000000000000000000000000000000000000000000600052601260045260246000fd5b7f4e487b7100000000000000000000000000000000000000000000000000000000600052604160045260246000fd5b6000601f19601f8301169050919050565b7f5341000000000000000000000000000000000000000000000000000000000000600082015250565b7f2170616972000000000000000000000000000000000000000000000000000000600082015250565b7f2173656e64657200000000000000000000000000000000000000000000000000600082015250565b6125908161237d565b811461259b57600080fd5b50565b6125a78161238f565b81146125b257600080fd5b50565b6125be816123a1565b81146125c957600080fd5b50565b6125d5816123dc565b81146125e057600080fd5b5056fe616674657220756e6973776170207633202c2061746f6b656e20616d6f756e74203e3e3e20616674657220756e6973776170207633202c2062746f6b656e20616d6f756e74203e3e3e20a26469706673582212205b0086416a52fcc03389dd40d4d9bf046fc5cf5c50b003d5190749a07738a51e64736f6c63430008040033",
  "devdoc": {
    "kind": "dev",
    "methods": {},
    "version": 1
  },
  "userdoc": {
    "kind": "user",
    "methods": {},
    "version": 1
  },
  "storageLayout": {
    "storage": [
      {
        "astId": 1422,
        "contract": "contracts/FlashSwap.sol:FlashSwap",
        "label": "FACTORY",
        "offset": 0,
        "slot": "0",
        "type": "t_address"
      },
      {
        "astId": 1424,
        "contract": "contracts/FlashSwap.sol:FlashSwap",
        "label": "WETH",
        "offset": 0,
        "slot": "1",
        "type": "t_address"
      },
      {
        "astId": 1431,
        "contract": "contracts/FlashSwap.sol:FlashSwap",
        "label": "MAX_INT",
        "offset": 0,
        "slot": "2",
        "type": "t_uint256"
      },
      {
        "astId": 1434,
        "contract": "contracts/FlashSwap.sol:FlashSwap",
        "label": "SWAP_ROUTER",
        "offset": 0,
        "slot": "3",
        "type": "t_address"
      },
      {
        "astId": 1437,
        "contract": "contracts/FlashSwap.sol:FlashSwap",
        "label": "UNISWAP_V2_ROUTER",
        "offset": 0,
        "slot": "4",
        "type": "t_address"
      }
    ],
    "types": {
      "t_address": {
        "encoding": "inplace",
        "label": "address",
        "numberOfBytes": "20"
      },
      "t_uint256": {
        "encoding": "inplace",
        "label": "uint256",
        "numberOfBytes": "32"
      }
    }
  }
}