{
  "address": "0x21D1e40eC17043dF1d13A5db19E86f39d2F35d7A",
  "abi": [
    {
      "inputs": [
        {
          "internalType": "address",
          "name": "_factory",
          "type": "address"
        },
        {
          "internalType": "address",
          "name": "_wETH",
          "type": "address"
        }
      ],
      "stateMutability": "nonpayable",
      "type": "constructor"
    },
    {
      "anonymous": false,
      "inputs": [
        {
          "indexed": false,
          "internalType": "string",
          "name": "message",
          "type": "string"
        },
        {
          "indexed": false,
          "internalType": "uint256",
          "name": "val",
          "type": "uint256"
        }
      ],
      "name": "Log",
      "type": "event"
    },
    {
      "inputs": [],
      "name": "swapRouter",
      "outputs": [
        {
          "internalType": "contract ISwapRouter",
          "name": "",
          "type": "address"
        }
      ],
      "stateMutability": "view",
      "type": "function"
    },
    {
      "inputs": [
        {
          "internalType": "address",
          "name": "_tokenA",
          "type": "address"
        },
        {
          "internalType": "address",
          "name": "_tokenB",
          "type": "address"
        },
        {
          "internalType": "uint256",
          "name": "_amount",
          "type": "uint256"
        }
      ],
      "name": "testFlashSwap",
      "outputs": [],
      "stateMutability": "nonpayable",
      "type": "function"
    },
    {
      "inputs": [
        {
          "internalType": "address",
          "name": "_sender",
          "type": "address"
        },
        {
          "internalType": "uint256",
          "name": "_amount0",
          "type": "uint256"
        },
        {
          "internalType": "uint256",
          "name": "_amount1",
          "type": "uint256"
        },
        {
          "internalType": "bytes",
          "name": "_data",
          "type": "bytes"
        }
      ],
      "name": "uniswapV2Call",
      "outputs": [],
      "stateMutability": "nonpayable",
      "type": "function"
    },
    {
      "inputs": [],
      "name": "v3PoolFee",
      "outputs": [
        {
          "internalType": "uint24",
          "name": "",
          "type": "uint24"
        }
      ],
      "stateMutability": "view",
      "type": "function"
    },
    {
      "stateMutability": "payable",
      "type": "receive"
    }
  ],
  "transactionHash": "0x92f591132055d7c5289cf16993bca59ce8eff643ac789daaa9b32d87dfe2c19d",
  "args": [
    "0x5C69bEe701ef814a2B6a3EDD4B1652CB9cc5aA6f",
    "0xc778417E063141139Fce010982780140Aa0cD5Ab"
  ],
  "numDeployments": 2,
  "solcInputHash": "e73dd65ec00544aee7502bcad51a47f8",
  "bytecode": "0x60a06040527fffffffffffffffffffffffffffffffffffffffffffffffffffffffffffffffff60025573e592427a0aece92de3edee1f18e0157c05861564600360006101000a81548173ffffffffffffffffffffffffffffffffffffffff021916908373ffffffffffffffffffffffffffffffffffffffff1602179055503480156200008a57600080fd5b5060405162002315380380620023158339818101604052810190620000b09190620001a9565b816000806101000a81548173ffffffffffffffffffffffffffffffffffffffff021916908373ffffffffffffffffffffffffffffffffffffffff16021790555080600160006101000a81548173ffffffffffffffffffffffffffffffffffffffff021916908373ffffffffffffffffffffffffffffffffffffffff160217905550600360009054906101000a900473ffffffffffffffffffffffffffffffffffffffff1673ffffffffffffffffffffffffffffffffffffffff1660808173ffffffffffffffffffffffffffffffffffffffff1660601b81525050505062000238565b600081519050620001a3816200021e565b92915050565b60008060408385031215620001bd57600080fd5b6000620001cd8582860162000192565b9250506020620001e08582860162000192565b9150509250929050565b6000620001f782620001fe565b9050919050565b600073ffffffffffffffffffffffffffffffffffffffff82169050919050565b6200022981620001ea565b81146200023557600080fd5b50565b60805160601c6120b0620002656000396000818161083f0152818161090701526112b101526120b06000f3fe6080604052600436106100435760003560e01c806310d1e85c1461004f5780631727533f14610078578063a39992d4146100a3578063c31c9c07146100cc5761004a565b3661004a57005b600080fd5b34801561005b57600080fd5b50610076600480360381019061007191906117c5565b6100f7565b005b34801561008457600080fd5b5061008d610ed1565b60405161009a9190611c9f565b60405180910390f35b3480156100af57600080fd5b506100ca60048036038101906100c59190611776565b610ed7565b005b3480156100d857600080fd5b506100e16112af565b6040516100ee9190611b86565b60405180910390f35b60003373ffffffffffffffffffffffffffffffffffffffff16630dfe16816040518163ffffffff1660e01b815260040160206040518083038186803b15801561013f57600080fd5b505afa158015610153573d6000803e3d6000fd5b505050506040513d601f19601f8201168201806040525081019061017791906116ea565b905060003373ffffffffffffffffffffffffffffffffffffffff1663d21220a76040518163ffffffff1660e01b815260040160206040518083038186803b1580156101c157600080fd5b505afa1580156101d5573d6000803e3d6000fd5b505050506040513d601f19601f820116820180604052508101906101f991906116ea565b905060008060009054906101000a900473ffffffffffffffffffffffffffffffffffffffff1673ffffffffffffffffffffffffffffffffffffffff1663e6a4390584846040518363ffffffff1660e01b8152600401610259929190611aef565b60206040518083038186803b15801561027157600080fd5b505afa158015610285573d6000803e3d6000fd5b505050506040513d601f19601f820116820180604052508101906102a991906116ea565b90508073ffffffffffffffffffffffffffffffffffffffff163373ffffffffffffffffffffffffffffffffffffffff1614610319576040517f08c379a000000000000000000000000000000000000000000000000000000000815260040161031090611c43565b60405180910390fd5b3073ffffffffffffffffffffffffffffffffffffffff168873ffffffffffffffffffffffffffffffffffffffff1614610387576040517f08c379a000000000000000000000000000000000000000000000000000000000815260040161037e90611c63565b60405180910390fd5b600080600080888881019061039c9190611713565b9350935093509350600060016103e56003856103b89190611dd0565b6103c29190611d9f565b6103cc9190611d49565b9050600081846103dc9190611d49565b905061041d6040518060400160405280600381526020017f6665650000000000000000000000000000000000000000000000000000000000815250836112d3565b61045c6040518060400160405280600f81526020017f616d6f756e7420746f2072657061790000000000000000000000000000000000815250826112d3565b8573ffffffffffffffffffffffffffffffffffffffff1663a9059cbb88836040518363ffffffff1660e01b8152600401610497929190611b5d565b602060405180830381600087803b1580156104b157600080fd5b505af11580156104c5573d6000803e3d6000fd5b505050506040513d601f19601f820116820180604052508101906104e99190611845565b506105296040518060400160405280600681526020017f616d6f756e740000000000000000000000000000000000000000000000000000815250856112d3565b6105686040518060400160405280600781526020017f616d6f756e7430000000000000000000000000000000000000000000000000008152508e6112d3565b6105a76040518060400160405280600781526020017f616d6f756e7431000000000000000000000000000000000000000000000000008152508d6112d3565b60008673ffffffffffffffffffffffffffffffffffffffff166370a08231306040518263ffffffff1660e01b81526004016105e29190611ad4565b60206040518083038186803b1580156105fa57600080fd5b505afa15801561060e573d6000803e3d6000fd5b505050506040513d601f19601f82011682018060405250810190610632919061186e565b905060008673ffffffffffffffffffffffffffffffffffffffff166370a08231306040518263ffffffff1660e01b815260040161066f9190611ad4565b60206040518083038186803b15801561068757600080fd5b505afa15801561069b573d6000803e3d6000fd5b505050506040513d601f19601f820116820180604052508101906106bf919061186e565b90506106ff6040518060400160405280600981526020017f3d3d64656275673d3d000000000000000000000000000000000000000000000081525061136f565b61073e6040518060400160405280600681526020017f746f6b656e41000000000000000000000000000000000000000000000000000081525089611408565b61077d6040518060400160405280600681526020017f746f6b656e42000000000000000000000000000000000000000000000000000081525088611408565b6107bc6040518060400160405280600681526020017f61746f6b656e0000000000000000000000000000000000000000000000000000815250836112d3565b6107fb6040518060400160405280600681526020017f62746f6b656e0000000000000000000000000000000000000000000000000000815250826112d3565b6108396040518060400160405280600481526020017f3d3d3d3d0000000000000000000000000000000000000000000000000000000081525061136f565b610864887f0000000000000000000000000000000000000000000000000000000000000000846114a4565b60006040518061010001604052808a73ffffffffffffffffffffffffffffffffffffffff1681526020018973ffffffffffffffffffffffffffffffffffffffff168152602001610bb862ffffff1681526020013073ffffffffffffffffffffffffffffffffffffffff16815260200142815260200184815260200160008152602001600073ffffffffffffffffffffffffffffffffffffffff16815250905060007f000000000000000000000000000000000000000000000000000000000000000073ffffffffffffffffffffffffffffffffffffffff1663414bf389836040518263ffffffff1660e01b815260040161095e9190611c83565b602060405180830381600087803b15801561097857600080fd5b505af115801561098c573d6000803e3d6000fd5b505050506040513d601f19601f820116820180604052508101906109b0919061186e565b9050610a5c604051806060016040528060258152602001612056602591398b73ffffffffffffffffffffffffffffffffffffffff166370a08231306040518263ffffffff1660e01b8152600401610a079190611ad4565b60206040518083038186803b158015610a1f57600080fd5b505afa158015610a33573d6000803e3d6000fd5b505050506040513d601f19601f82011682018060405250810190610a57919061186e565b6112d3565b610b06604051806060016040528060258152602001612031602591398a73ffffffffffffffffffffffffffffffffffffffff166370a08231306040518263ffffffff1660e01b8152600401610ab19190611ad4565b60206040518083038186803b158015610ac957600080fd5b505afa158015610add573d6000803e3d6000fd5b505050506040513d601f19601f82011682018060405250810190610b01919061186e565b6112d3565b610b456040518060400160405280600981526020017f696e69746961746f72000000000000000000000000000000000000000000000081525088611408565b60008a73ffffffffffffffffffffffffffffffffffffffff166370a08231306040518263ffffffff1660e01b8152600401610b809190611ad4565b60206040518083038186803b158015610b9857600080fd5b505afa158015610bac573d6000803e3d6000fd5b505050506040513d601f19601f82011682018060405250810190610bd0919061186e565b1115610d01578973ffffffffffffffffffffffffffffffffffffffff1663a9059cbb738565ec58ca699c2afbc9872fde6dc5ad3f62c01d8c73ffffffffffffffffffffffffffffffffffffffff166370a08231306040518263ffffffff1660e01b8152600401610c409190611ad4565b60206040518083038186803b158015610c5857600080fd5b505afa158015610c6c573d6000803e3d6000fd5b505050506040513d601f19601f82011682018060405250810190610c90919061186e565b6040518363ffffffff1660e01b8152600401610cad929190611b5d565b602060405180830381600087803b158015610cc757600080fd5b505af1158015610cdb573d6000803e3d6000fd5b505050506040513d601f19601f82011682018060405250810190610cff9190611845565b505b60008973ffffffffffffffffffffffffffffffffffffffff166370a08231306040518263ffffffff1660e01b8152600401610d3c9190611ad4565b60206040518083038186803b158015610d5457600080fd5b505afa158015610d68573d6000803e3d6000fd5b505050506040513d601f19601f82011682018060405250810190610d8c919061186e565b1115610ebd578873ffffffffffffffffffffffffffffffffffffffff1663a9059cbb738565ec58ca699c2afbc9872fde6dc5ad3f62c01d8b73ffffffffffffffffffffffffffffffffffffffff166370a08231306040518263ffffffff1660e01b8152600401610dfc9190611ad4565b60206040518083038186803b158015610e1457600080fd5b505afa158015610e28573d6000803e3d6000fd5b505050506040513d601f19601f82011682018060405250810190610e4c919061186e565b6040518363ffffffff1660e01b8152600401610e69929190611b5d565b602060405180830381600087803b158015610e8357600080fd5b505af1158015610e97573d6000803e3d6000fd5b505050506040513d601f19601f82011682018060405250810190610ebb9190611845565b505b505050505050505050505050505050505050565b610bb881565b60008060009054906101000a900473ffffffffffffffffffffffffffffffffffffffff1673ffffffffffffffffffffffffffffffffffffffff1663e6a4390585856040518363ffffffff1660e01b8152600401610f35929190611aef565b60206040518083038186803b158015610f4d57600080fd5b505afa158015610f61573d6000803e3d6000fd5b505050506040513d601f19601f82011682018060405250810190610f8591906116ea565b9050600073ffffffffffffffffffffffffffffffffffffffff168173ffffffffffffffffffffffffffffffffffffffff161415610ff7576040517f08c379a0000000000000000000000000000000000000000000000000000000008152600401610fee90611c43565b60405180910390fd5b60008173ffffffffffffffffffffffffffffffffffffffff16630dfe16816040518163ffffffff1660e01b815260040160206040518083038186803b15801561103f57600080fd5b505afa158015611053573d6000803e3d6000fd5b505050506040513d601f19601f8201168201806040525081019061107791906116ea565b905060008273ffffffffffffffffffffffffffffffffffffffff1663d21220a76040518163ffffffff1660e01b815260040160206040518083038186803b1580156110c157600080fd5b505afa1580156110d5573d6000803e3d6000fd5b505050506040513d601f19601f820116820180604052508101906110f991906116ea565b905060008273ffffffffffffffffffffffffffffffffffffffff168773ffffffffffffffffffffffffffffffffffffffff1614611137576000611139565b845b905060008273ffffffffffffffffffffffffffffffffffffffff168873ffffffffffffffffffffffffffffffffffffffff1614611177576000611179565b855b90506000888888336040516020016111949493929190611b18565b60405160208183030381529060405290508873ffffffffffffffffffffffffffffffffffffffff1663095ea7b387896040518363ffffffff1660e01b81526004016111e0929190611b5d565b602060405180830381600087803b1580156111fa57600080fd5b505af115801561120e573d6000803e3d6000fd5b505050506040513d601f19601f820116820180604052508101906112329190611845565b508573ffffffffffffffffffffffffffffffffffffffff1663022c0d9f848430856040518563ffffffff1660e01b81526004016112729493929190611cba565b600060405180830381600087803b15801561128c57600080fd5b505af11580156112a0573d6000803e3d6000fd5b50505050505050505050505050565b7f000000000000000000000000000000000000000000000000000000000000000081565b61136b82826040516024016112e9929190611bf3565b6040516020818303038152906040527f9710a9d0000000000000000000000000000000000000000000000000000000007bffffffffffffffffffffffffffffffffffffffffffffffffffffffff19166020820180517bffffffffffffffffffffffffffffffffffffffffffffffffffffffff83818316178352505050506115f9565b5050565b611405816040516024016113839190611ba1565b6040516020818303038152906040527f41304fac000000000000000000000000000000000000000000000000000000007bffffffffffffffffffffffffffffffffffffffffffffffffffffffff19166020820180517bffffffffffffffffffffffffffffffffffffffffffffffffffffffff83818316178352505050506115f9565b50565b6114a0828260405160240161141e929190611bc3565b6040516020818303038152906040527f319af333000000000000000000000000000000000000000000000000000000007bffffffffffffffffffffffffffffffffffffffffffffffffffffffff19166020820180517bffffffffffffffffffffffffffffffffffffffffffffffffffffffff83818316178352505050506115f9565b5050565b6000808473ffffffffffffffffffffffffffffffffffffffff1663095ea7b360e01b85856040516024016114d9929190611b5d565b604051602081830303815290604052907bffffffffffffffffffffffffffffffffffffffffffffffffffffffff19166020820180517bffffffffffffffffffffffffffffffffffffffffffffffffffffffff83818316178352505050506040516115439190611abd565b6000604051808303816000865af19150503d8060008114611580576040519150601f19603f3d011682016040523d82523d6000602084013e611585565b606091505b50915091508180156115b357506000815114806115b25750808060200190518101906115b19190611845565b5b5b6115f2576040517f08c379a00000000000000000000000000000000000000000000000000000000081526004016115e990611c23565b60405180910390fd5b5050505050565b60008151905060006a636f6e736f6c652e6c6f679050602083016000808483855afa5050505050565b60008135905061163181611fd4565b92915050565b60008151905061164681611fd4565b92915050565b60008135905061165b81611feb565b92915050565b60008151905061167081612002565b92915050565b60008083601f84011261168857600080fd5b8235905067ffffffffffffffff8111156116a157600080fd5b6020830191508360018202830111156116b957600080fd5b9250929050565b6000813590506116cf81612019565b92915050565b6000815190506116e481612019565b92915050565b6000602082840312156116fc57600080fd5b600061170a84828501611637565b91505092915050565b6000806000806080858703121561172957600080fd5b60006117378782880161164c565b94505060206117488782880161164c565b9350506040611759878288016116c0565b925050606061176a8782880161164c565b91505092959194509250565b60008060006060848603121561178b57600080fd5b600061179986828701611622565b93505060206117aa86828701611622565b92505060406117bb868287016116c0565b9150509250925092565b6000806000806000608086880312156117dd57600080fd5b60006117eb88828901611622565b95505060206117fc888289016116c0565b945050604061180d888289016116c0565b935050606086013567ffffffffffffffff81111561182a57600080fd5b61183688828901611676565b92509250509295509295909350565b60006020828403121561185757600080fd5b600061186584828501611661565b91505092915050565b60006020828403121561188057600080fd5b600061188e848285016116d5565b91505092915050565b6118a081611e2a565b82525050565b6118af81611e2a565b82525050565b60006118c082611d06565b6118ca8185611d1c565b93506118da818560208601611eb7565b6118e381611f48565b840191505092915050565b60006118f982611d06565b6119038185611d2d565b9350611913818560208601611eb7565b80840191505092915050565b61192881611e93565b82525050565b600061193982611d11565b6119438185611d38565b9350611953818560208601611eb7565b61195c81611f48565b840191505092915050565b6000611974600283611d38565b915061197f82611f59565b602082019050919050565b6000611997600583611d38565b91506119a282611f82565b602082019050919050565b60006119ba600783611d38565b91506119c582611fab565b602082019050919050565b610100820160008201516119e76000850182611897565b5060208201516119fa6020850182611897565b506040820151611a0d6040850182611a81565b506060820151611a206060850182611897565b506080820151611a336080850182611a9f565b5060a0820151611a4660a0850182611a9f565b5060c0820151611a5960c0850182611a9f565b5060e0820151611a6c60e0850182611a72565b50505050565b611a7b81611e5a565b82525050565b611a8a81611e7a565b82525050565b611a9981611e7a565b82525050565b611aa881611e89565b82525050565b611ab781611e89565b82525050565b6000611ac982846118ee565b915081905092915050565b6000602082019050611ae960008301846118a6565b92915050565b6000604082019050611b0460008301856118a6565b611b1160208301846118a6565b9392505050565b6000608082019050611b2d60008301876118a6565b611b3a60208301866118a6565b611b476040830185611aae565b611b5460608301846118a6565b95945050505050565b6000604082019050611b7260008301856118a6565b611b7f6020830184611aae565b9392505050565b6000602082019050611b9b600083018461191f565b92915050565b60006020820190508181036000830152611bbb818461192e565b905092915050565b60006040820190508181036000830152611bdd818561192e565b9050611bec60208301846118a6565b9392505050565b60006040820190508181036000830152611c0d818561192e565b9050611c1c6020830184611aae565b9392505050565b60006020820190508181036000830152611c3c81611967565b9050919050565b60006020820190508181036000830152611c5c8161198a565b9050919050565b60006020820190508181036000830152611c7c816119ad565b9050919050565b600061010082019050611c9960008301846119d0565b92915050565b6000602082019050611cb46000830184611a90565b92915050565b6000608082019050611ccf6000830187611aae565b611cdc6020830186611aae565b611ce960408301856118a6565b8181036060830152611cfb81846118b5565b905095945050505050565b600081519050919050565b600081519050919050565b600082825260208201905092915050565b600081905092915050565b600082825260208201905092915050565b6000611d5482611e89565b9150611d5f83611e89565b9250827fffffffffffffffffffffffffffffffffffffffffffffffffffffffffffffffff03821115611d9457611d93611eea565b5b828201905092915050565b6000611daa82611e89565b9150611db583611e89565b925082611dc557611dc4611f19565b5b828204905092915050565b6000611ddb82611e89565b9150611de683611e89565b9250817fffffffffffffffffffffffffffffffffffffffffffffffffffffffffffffffff0483118215151615611e1f57611e1e611eea565b5b828202905092915050565b6000611e3582611e5a565b9050919050565b6000611e4782611e5a565b9050919050565b60008115159050919050565b600073ffffffffffffffffffffffffffffffffffffffff82169050919050565b600062ffffff82169050919050565b6000819050919050565b6000611e9e82611ea5565b9050919050565b6000611eb082611e5a565b9050919050565b60005b83811015611ed5578082015181840152602081019050611eba565b83811115611ee4576000848401525b50505050565b7f4e487b7100000000000000000000000000000000000000000000000000000000600052601160045260246000fd5b7f4e487b7100000000000000000000000000000000000000000000000000000000600052601260045260246000fd5b6000601f19601f8301169050919050565b7f5341000000000000000000000000000000000000000000000000000000000000600082015250565b7f2170616972000000000000000000000000000000000000000000000000000000600082015250565b7f2173656e64657200000000000000000000000000000000000000000000000000600082015250565b611fdd81611e2a565b8114611fe857600080fd5b50565b611ff481611e3c565b8114611fff57600080fd5b50565b61200b81611e4e565b811461201657600080fd5b50565b61202281611e89565b811461202d57600080fd5b5056fe616674657220756e6973776170207633202c2042546f6b656e20616d6f756e74203e3e3e20616674657220756e6973776170207633202c2041546f6b656e20616d6f756e74203e3e3e20a2646970667358221220d2bcdc33b4db172bf3a62e0f475f57b9dea42aa699fc3e6fe26f97346ea37bca64736f6c63430008040033",
  "devdoc": {
    "kind": "dev",
    "methods": {},
    "version": 1
  },
  "userdoc": {
    "kind": "user",
    "methods": {},
    "version": 1
  },
  "storageLayout": {
    "storage": [
      {
        "astId": 1025,
        "contract": "contracts/FlashSwap.sol:FlashSwap",
        "label": "FACTORY",
        "offset": 0,
        "slot": "0",
        "type": "t_address"
      },
      {
        "astId": 1027,
        "contract": "contracts/FlashSwap.sol:FlashSwap",
        "label": "WETH",
        "offset": 0,
        "slot": "1",
        "type": "t_address"
      },
      {
        "astId": 1034,
        "contract": "contracts/FlashSwap.sol:FlashSwap",
        "label": "MAX_INT",
        "offset": 0,
        "slot": "2",
        "type": "t_uint256"
      },
      {
        "astId": 1037,
        "contract": "contracts/FlashSwap.sol:FlashSwap",
        "label": "SWAP_ROUTER",
        "offset": 0,
        "slot": "3",
        "type": "t_address"
      }
    ],
    "types": {
      "t_address": {
        "encoding": "inplace",
        "label": "address",
        "numberOfBytes": "20"
      },
      "t_uint256": {
        "encoding": "inplace",
        "label": "uint256",
        "numberOfBytes": "32"
      }
    }
  }
}