{
  "address": "0xE832b31E0F12B756Beb3779AD5FBE9B5Ab8B0208",
  "abi": [
    {
      "inputs": [
        {
          "internalType": "contract ILendingPoolAddressesProvider",
          "name": "_addressProvider",
          "type": "address"
        }
      ],
      "stateMutability": "nonpayable",
      "type": "constructor"
    },
    {
      "anonymous": false,
      "inputs": [
        {
          "indexed": false,
          "internalType": "string",
          "name": "message",
          "type": "string"
        },
        {
          "indexed": false,
          "internalType": "uint256",
          "name": "val",
          "type": "uint256"
        }
      ],
      "name": "Log",
      "type": "event"
    },
    {
      "inputs": [],
      "name": "ADDRESSES_PROVIDER",
      "outputs": [
        {
          "internalType": "contract ILendingPoolAddressesProvider",
          "name": "",
          "type": "address"
        }
      ],
      "stateMutability": "view",
      "type": "function"
    },
    {
      "inputs": [],
      "name": "LENDING_POOL",
      "outputs": [
        {
          "internalType": "contract ILendingPool",
          "name": "",
          "type": "address"
        }
      ],
      "stateMutability": "view",
      "type": "function"
    },
    {
      "inputs": [
        {
          "internalType": "address[]",
          "name": "assets",
          "type": "address[]"
        },
        {
          "internalType": "uint256[]",
          "name": "amounts",
          "type": "uint256[]"
        },
        {
          "internalType": "uint256[]",
          "name": "premiums",
          "type": "uint256[]"
        },
        {
          "internalType": "address",
          "name": "initiator",
          "type": "address"
        },
        {
          "internalType": "bytes",
          "name": "params",
          "type": "bytes"
        }
      ],
      "name": "executeOperation",
      "outputs": [
        {
          "internalType": "bool",
          "name": "",
          "type": "bool"
        }
      ],
      "stateMutability": "nonpayable",
      "type": "function"
    },
    {
      "inputs": [
        {
          "internalType": "address",
          "name": "asset",
          "type": "address"
        },
        {
          "internalType": "uint256",
          "name": "amount",
          "type": "uint256"
        }
      ],
      "name": "testFlashLoan",
      "outputs": [],
      "stateMutability": "nonpayable",
      "type": "function"
    }
  ],
  "transactionHash": "0x8f6c29ae52d80f2a91b0ecab743078ccf752886f3e887daf69d96a74f7e8c241",
  "args": [
    "0x88757f2f99175387ab4c6a4b3067c77a695b0349"
  ],
  "numDeployments": 1,
  "solcInputHash": "8cd27a96d4d889d0697fb293cd4d6ff9",
  "bytecode": "0x60c06040523480156200001157600080fd5b506040516200232938038062002329833981810160405281019062000037919062000189565b808073ffffffffffffffffffffffffffffffffffffffff1660808173ffffffffffffffffffffffffffffffffffffffff1660601b815250508073ffffffffffffffffffffffffffffffffffffffff16630261bf8b6040518163ffffffff1660e01b815260040160206040518083038186803b158015620000b657600080fd5b505afa158015620000cb573d6000803e3d6000fd5b505050506040513d601f19601f82011682018060405250810190620000f191906200015d565b73ffffffffffffffffffffffffffffffffffffffff1660a08173ffffffffffffffffffffffffffffffffffffffff1660601b81525050505062000231565b6000815190506200014081620001fd565b92915050565b600081519050620001578162000217565b92915050565b6000602082840312156200017057600080fd5b600062000180848285016200012f565b91505092915050565b6000602082840312156200019c57600080fd5b6000620001ac8482850162000146565b91505092915050565b6000620001c282620001dd565b9050919050565b6000620001d682620001b5565b9050919050565b600073ffffffffffffffffffffffffffffffffffffffff82169050919050565b6200020881620001b5565b81146200021457600080fd5b50565b6200022281620001c9565b81146200022e57600080fd5b50565b60805160601c60a05160601c6120bf6200026a60003960008181610c5d01528181610d1e01526110cd0152600060db01526120bf6000f3fe608060405234801561001057600080fd5b506004361061004c5760003560e01c80630542975c14610051578063920f5c841461006f578063b4dcfc771461009f578063d6b348ee146100bd575b600080fd5b6100596100d9565b6040516100669190611b5e565b60405180910390f35b610089600480360381019061008491906116dd565b6100fd565b6040516100969190611b43565b60405180910390f35b6100a7610d1c565b6040516100b49190611b79565b60405180910390f35b6100d760048036038101906100d291906116a1565b610d40565b005b7f000000000000000000000000000000000000000000000000000000000000000081565b600080600090505b8a8a9050811015610d0a5760008b8b8381811061014b577f4e487b7100000000000000000000000000000000000000000000000000000000600052603260045260246000fd5b90506020020160208101906101609190611678565b73ffffffffffffffffffffffffffffffffffffffff166370a08231306040518263ffffffff1660e01b81526004016101989190611a74565b60206040518083038186803b1580156101b057600080fd5b505afa1580156101c4573d6000803e3d6000fd5b505050506040513d601f19601f820116820180604052508101906101e8919061182f565b90507fdd970dd9b5bfe707922155b058a407655cb18288b807e2216442bca8ad83d6b58a8a84818110610244577f4e487b7100000000000000000000000000000000000000000000000000000000600052603260045260246000fd5b905060200201356040516102589190611c16565b60405180910390a17fdd970dd9b5bfe707922155b058a407655cb18288b807e2216442bca8ad83d6b58888848181106102ba577f4e487b7100000000000000000000000000000000000000000000000000000000600052603260045260246000fd5b905060200201356040516102ce9190611c44565b60405180910390a16000610369898985818110610314577f4e487b7100000000000000000000000000000000000000000000000000000000600052603260045260246000fd5b905060200201358c8c86818110610354577f4e487b7100000000000000000000000000000000000000000000000000000000600052603260045260246000fd5b9050602002013561116e90919063ffffffff16565b90506103aa6040518060400160405280600981526020017f62616c616e63653e3e000000000000000000000000000000000000000000000081525083611184565b6103e96040518060400160405280600d81526020017f616d6f756e744f77696e673e3e0000000000000000000000000000000000000081525082611184565b6000737a250d5630b4cf539739df2c5dacb4c659f2488d905060008e8e8681811061043d577f4e487b7100000000000000000000000000000000000000000000000000000000600052603260045260246000fd5b90506020020160208101906104529190611678565b90506000738916cb563b92b9fcf5d0cf0426fac9436a110fd79050600073d0a1e359811322d97991e03f863a0c30c2cf029c90506000309050600087905060008573ffffffffffffffffffffffffffffffffffffffff1663095ea7b388846040518363ffffffff1660e01b81526004016104cd929190611b1a565b602060405180830381600087803b1580156104e757600080fd5b505af11580156104fb573d6000803e3d6000fd5b505050506040513d601f19601f8201168201806040525081019061051f9190611806565b5060608473ffffffffffffffffffffffffffffffffffffffff168773ffffffffffffffffffffffffffffffffffffffff16148061058757508473ffffffffffffffffffffffffffffffffffffffff168673ffffffffffffffffffffffffffffffffffffffff16145b156106ed57600267ffffffffffffffff8111156105cd577f4e487b7100000000000000000000000000000000000000000000000000000000600052604160045260246000fd5b6040519080825280602002602001820160405280156105fb5781602001602082028036833780820191505090505b5090508681600081518110610639577f4e487b7100000000000000000000000000000000000000000000000000000000600052603260045260246000fd5b602002602001019073ffffffffffffffffffffffffffffffffffffffff16908173ffffffffffffffffffffffffffffffffffffffff168152505085816001815181106106ae577f4e487b7100000000000000000000000000000000000000000000000000000000600052603260045260246000fd5b602002602001019073ffffffffffffffffffffffffffffffffffffffff16908173ffffffffffffffffffffffffffffffffffffffff16815250506108bf565b600367ffffffffffffffff81111561072e577f4e487b7100000000000000000000000000000000000000000000000000000000600052604160045260246000fd5b60405190808252806020026020018201604052801561075c5781602001602082028036833780820191505090505b509050868160008151811061079a577f4e487b7100000000000000000000000000000000000000000000000000000000600052603260045260246000fd5b602002602001019073ffffffffffffffffffffffffffffffffffffffff16908173ffffffffffffffffffffffffffffffffffffffff1681525050848160018151811061080f577f4e487b7100000000000000000000000000000000000000000000000000000000600052603260045260246000fd5b602002602001019073ffffffffffffffffffffffffffffffffffffffff16908173ffffffffffffffffffffffffffffffffffffffff16815250508581600281518110610884577f4e487b7100000000000000000000000000000000000000000000000000000000600052603260045260246000fd5b602002602001019073ffffffffffffffffffffffffffffffffffffffff16908173ffffffffffffffffffffffffffffffffffffffff16815250505b6108fd6040518060400160405280600381526020017f3d3d3d0000000000000000000000000000000000000000000000000000000000815250611220565b610906836112b9565b61090f826112b9565b61098f6040518060400160405280600481526020017f706174680000000000000000000000000000000000000000000000000000000081525082600081518110610982577f4e487b7100000000000000000000000000000000000000000000000000000000600052603260045260246000fd5b6020026020010151611352565b610a0f6040518060400160405280600481526020017f706174680000000000000000000000000000000000000000000000000000000081525082600181518110610a02577f4e487b7100000000000000000000000000000000000000000000000000000000600052603260045260246000fd5b6020026020010151611352565b610a8f6040518060400160405280600481526020017f706174680000000000000000000000000000000000000000000000000000000081525082600281518110610a82577f4e487b7100000000000000000000000000000000000000000000000000000000600052603260045260246000fd5b6020026020010151611352565b610a98846113ee565b610aa1426112b9565b610adf6040518060400160405280600381526020017f3d3d3d0000000000000000000000000000000000000000000000000000000000815250611220565b8773ffffffffffffffffffffffffffffffffffffffff166338ed173984848488426040518663ffffffff1660e01b8152600401610b20959493929190611c8d565b600060405180830381600087803b158015610b3a57600080fd5b505af1158015610b4e573d6000803e3d6000fd5b505050506040513d6000823e3d601f19601f82011682018060405250810190610b7791906117c5565b50610c3f6040518060400160405280601281526020017f41546f6b656e20616d6f756e74203e3e3e2000000000000000000000000000008152508773ffffffffffffffffffffffffffffffffffffffff166370a08231306040518263ffffffff1660e01b8152600401610bea9190611a74565b60206040518083038186803b158015610c0257600080fd5b505afa158015610c16573d6000803e3d6000fd5b505050506040513d601f19601f82011682018060405250810190610c3a919061182f565b611184565b8673ffffffffffffffffffffffffffffffffffffffff1663095ea7b37f00000000000000000000000000000000000000000000000000000000000000008b6040518363ffffffff1660e01b8152600401610c9a929190611b1a565b602060405180830381600087803b158015610cb457600080fd5b505af1158015610cc8573d6000803e3d6000fd5b505050506040513d601f19601f82011682018060405250810190610cec9190611806565b50505050505050505050508080610d0290611f3a565b915050610105565b50600190509998505050505050505050565b7f000000000000000000000000000000000000000000000000000000000000000081565b60008273ffffffffffffffffffffffffffffffffffffffff166370a08231306040518263ffffffff1660e01b8152600401610d7b9190611a74565b60206040518083038186803b158015610d9357600080fd5b505afa158015610da7573d6000803e3d6000fd5b505050506040513d601f19601f82011682018060405250810190610dcb919061182f565b9050610e0c6040518060400160405280600981526020017f62616c616e63653e3e000000000000000000000000000000000000000000000081525082611184565b610e4b6040518060400160405280600e81526020017f626f72726f77416d6f756e743e3e00000000000000000000000000000000000081525083611184565b60003090506000600167ffffffffffffffff811115610e93577f4e487b7100000000000000000000000000000000000000000000000000000000600052604160045260246000fd5b604051908082528060200260200182016040528015610ec15781602001602082028036833780820191505090505b5090508481600081518110610eff577f4e487b7100000000000000000000000000000000000000000000000000000000600052603260045260246000fd5b602002602001019073ffffffffffffffffffffffffffffffffffffffff16908173ffffffffffffffffffffffffffffffffffffffff16815250506000600167ffffffffffffffff811115610f7c577f4e487b7100000000000000000000000000000000000000000000000000000000600052604160045260246000fd5b604051908082528060200260200182016040528015610faa5781602001602082028036833780820191505090505b5090508481600081518110610fe8577f4e487b7100000000000000000000000000000000000000000000000000000000600052603260045260246000fd5b6020026020010181815250506000600167ffffffffffffffff811115611037577f4e487b7100000000000000000000000000000000000000000000000000000000600052604160045260246000fd5b6040519080825280602002602001820160405280156110655781602001602082028036833780820191505090505b5090506000816000815181106110a4577f4e487b7100000000000000000000000000000000000000000000000000000000600052603260045260246000fd5b6020026020010181815250506000309050600060405180602001604052806000815250905060007f000000000000000000000000000000000000000000000000000000000000000073ffffffffffffffffffffffffffffffffffffffff1663ab9c4b5d888888888888886040518863ffffffff1660e01b81526004016111309796959493929190611a8f565b600060405180830381600087803b15801561114a57600080fd5b505af115801561115e573d6000803e3d6000fd5b5050505050505050505050505050565b6000818361117c9190611de2565b905092915050565b61121c828260405160240161119a929190611be6565b6040516020818303038152906040527f9710a9d0000000000000000000000000000000000000000000000000000000007bffffffffffffffffffffffffffffffffffffffffffffffffffffffff19166020820180517bffffffffffffffffffffffffffffffffffffffffffffffffffffffff8381831617835250505050611487565b5050565b6112b6816040516024016112349190611b94565b6040516020818303038152906040527f41304fac000000000000000000000000000000000000000000000000000000007bffffffffffffffffffffffffffffffffffffffffffffffffffffffff19166020820180517bffffffffffffffffffffffffffffffffffffffffffffffffffffffff8381831617835250505050611487565b50565b61134f816040516024016112cd9190611c72565b6040516020818303038152906040527ff5b1bba9000000000000000000000000000000000000000000000000000000007bffffffffffffffffffffffffffffffffffffffffffffffffffffffff19166020820180517bffffffffffffffffffffffffffffffffffffffffffffffffffffffff8381831617835250505050611487565b50565b6113ea8282604051602401611368929190611bb6565b6040516020818303038152906040527f319af333000000000000000000000000000000000000000000000000000000007bffffffffffffffffffffffffffffffffffffffffffffffffffffffff19166020820180517bffffffffffffffffffffffffffffffffffffffffffffffffffffffff8381831617835250505050611487565b5050565b611484816040516024016114029190611a74565b6040516020818303038152906040527f2c2ecbc2000000000000000000000000000000000000000000000000000000007bffffffffffffffffffffffffffffffffffffffffffffffffffffffff19166020820180517bffffffffffffffffffffffffffffffffffffffffffffffffffffffff8381831617835250505050611487565b50565b60008151905060006a636f6e736f6c652e6c6f679050602083016000808483855afa5050505050565b60006114c36114be84611d0c565b611ce7565b905080838252602082019050828560208602820111156114e257600080fd5b60005b8581101561151257816114f88882611663565b8452602084019350602083019250506001810190506114e5565b5050509392505050565b60008135905061152b81612044565b92915050565b60008083601f84011261154357600080fd5b8235905067ffffffffffffffff81111561155c57600080fd5b60208301915083602082028301111561157457600080fd5b9250929050565b60008083601f84011261158d57600080fd5b8235905067ffffffffffffffff8111156115a657600080fd5b6020830191508360208202830111156115be57600080fd5b9250929050565b600082601f8301126115d657600080fd5b81516115e68482602086016114b0565b91505092915050565b6000815190506115fe8161205b565b92915050565b60008083601f84011261161657600080fd5b8235905067ffffffffffffffff81111561162f57600080fd5b60208301915083600182028301111561164757600080fd5b9250929050565b60008135905061165d81612072565b92915050565b60008151905061167281612072565b92915050565b60006020828403121561168a57600080fd5b60006116988482850161151c565b91505092915050565b600080604083850312156116b457600080fd5b60006116c28582860161151c565b92505060206116d38582860161164e565b9150509250929050565b600080600080600080600080600060a08a8c0312156116fb57600080fd5b60008a013567ffffffffffffffff81111561171557600080fd5b6117218c828d01611531565b995099505060208a013567ffffffffffffffff81111561174057600080fd5b61174c8c828d0161157b565b975097505060408a013567ffffffffffffffff81111561176b57600080fd5b6117778c828d0161157b565b9550955050606061178a8c828d0161151c565b93505060808a013567ffffffffffffffff8111156117a757600080fd5b6117b38c828d01611604565b92509250509295985092959850929598565b6000602082840312156117d757600080fd5b600082015167ffffffffffffffff8111156117f157600080fd5b6117fd848285016115c5565b91505092915050565b60006020828403121561181857600080fd5b6000611826848285016115ef565b91505092915050565b60006020828403121561184157600080fd5b600061184f84828501611663565b91505092915050565b60006118648383611888565b60208301905092915050565b600061187c8383611a56565b60208301905092915050565b61189181611e38565b82525050565b6118a081611e38565b82525050565b60006118b182611d58565b6118bb8185611d9e565b93506118c683611d38565b8060005b838110156118f75781516118de8882611858565b97506118e983611d84565b9250506001810190506118ca565b5085935050505092915050565b600061190f82611d63565b6119198185611daf565b935061192483611d48565b8060005b8381101561195557815161193c8882611870565b975061194783611d91565b925050600181019050611928565b5085935050505092915050565b61196b81611e4a565b82525050565b600061197c82611d6e565b6119868185611dc0565b9350611996818560208601611ed6565b61199f81611fe1565b840191505092915050565b6119b381611e8e565b82525050565b6119c281611eb2565b82525050565b60006119d382611d79565b6119dd8185611dd1565b93506119ed818560208601611ed6565b6119f681611fe1565b840191505092915050565b6000611a0e600883611dd1565b9150611a1982611ff2565b602082019050919050565b6000611a31600383611dd1565b9150611a3c8261201b565b602082019050919050565b611a5081611e56565b82525050565b611a5f81611e84565b82525050565b611a6e81611e84565b82525050565b6000602082019050611a896000830184611897565b92915050565b600060e082019050611aa4600083018a611897565b8181036020830152611ab681896118a6565b90508181036040830152611aca8188611904565b90508181036060830152611ade8187611904565b9050611aed6080830186611897565b81810360a0830152611aff8185611971565b9050611b0e60c0830184611a47565b98975050505050505050565b6000604082019050611b2f6000830185611897565b611b3c6020830184611a65565b9392505050565b6000602082019050611b586000830184611962565b92915050565b6000602082019050611b7360008301846119aa565b92915050565b6000602082019050611b8e60008301846119b9565b92915050565b60006020820190508181036000830152611bae81846119c8565b905092915050565b60006040820190508181036000830152611bd081856119c8565b9050611bdf6020830184611897565b9392505050565b60006040820190508181036000830152611c0081856119c8565b9050611c0f6020830184611a65565b9392505050565b60006040820190508181036000830152611c2f81611a01565b9050611c3e6020830184611a65565b92915050565b60006040820190508181036000830152611c5d81611a24565b9050611c6c6020830184611a65565b92915050565b6000602082019050611c876000830184611a65565b92915050565b600060a082019050611ca26000830188611a65565b611caf6020830187611a65565b8181036040830152611cc181866118a6565b9050611cd06060830185611897565b611cdd6080830184611a65565b9695505050505050565b6000611cf1611d02565b9050611cfd8282611f09565b919050565b6000604051905090565b600067ffffffffffffffff821115611d2757611d26611fb2565b5b602082029050602081019050919050565b6000819050602082019050919050565b6000819050602082019050919050565b600081519050919050565b600081519050919050565b600081519050919050565b600081519050919050565b6000602082019050919050565b6000602082019050919050565b600082825260208201905092915050565b600082825260208201905092915050565b600082825260208201905092915050565b600082825260208201905092915050565b6000611ded82611e84565b9150611df883611e84565b9250827fffffffffffffffffffffffffffffffffffffffffffffffffffffffffffffffff03821115611e2d57611e2c611f83565b5b828201905092915050565b6000611e4382611e64565b9050919050565b60008115159050919050565b600061ffff82169050919050565b600073ffffffffffffffffffffffffffffffffffffffff82169050919050565b6000819050919050565b6000611e9982611ea0565b9050919050565b6000611eab82611e64565b9050919050565b6000611ebd82611ec4565b9050919050565b6000611ecf82611e64565b9050919050565b60005b83811015611ef4578082015181840152602081019050611ed9565b83811115611f03576000848401525b50505050565b611f1282611fe1565b810181811067ffffffffffffffff82111715611f3157611f30611fb2565b5b80604052505050565b6000611f4582611e84565b91507fffffffffffffffffffffffffffffffffffffffffffffffffffffffffffffffff821415611f7857611f77611f83565b5b600182019050919050565b7f4e487b7100000000000000000000000000000000000000000000000000000000600052601160045260246000fd5b7f4e487b7100000000000000000000000000000000000000000000000000000000600052604160045260246000fd5b6000601f19601f8301169050919050565b7f626f72726f776564000000000000000000000000000000000000000000000000600082015250565b7f6665650000000000000000000000000000000000000000000000000000000000600082015250565b61204d81611e38565b811461205857600080fd5b50565b61206481611e4a565b811461206f57600080fd5b50565b61207b81611e84565b811461208657600080fd5b5056fea2646970667358221220a6d4f1b056e5fd5f6e23c921875c44563aaabd42c24a954337f1d94f24b366ed64736f6c63430008040033",
  "devdoc": {
    "kind": "dev",
    "methods": {},
    "version": 1
  },
  "userdoc": {
    "kind": "user",
    "methods": {},
    "version": 1
  },
  "storageLayout": {
    "storage": [],
    "types": null
  }
}