{
  "address": "0xE832b31E0F12B756Beb3779AD5FBE9B5Ab8B0208",
  "abi": [
    {
      "inputs": [
        {
          "internalType": "contract ILendingPoolAddressesProvider",
          "name": "_addressProvider",
          "type": "address"
        }
      ],
      "stateMutability": "nonpayable",
      "type": "constructor"
    },
    {
      "anonymous": false,
      "inputs": [
        {
          "indexed": false,
          "internalType": "string",
          "name": "message",
          "type": "string"
        },
        {
          "indexed": false,
          "internalType": "uint256",
          "name": "val",
          "type": "uint256"
        }
      ],
      "name": "Log",
      "type": "event"
    },
    {
      "inputs": [],
      "name": "ADDRESSES_PROVIDER",
      "outputs": [
        {
          "internalType": "contract ILendingPoolAddressesProvider",
          "name": "",
          "type": "address"
        }
      ],
      "stateMutability": "view",
      "type": "function"
    },
    {
      "inputs": [],
      "name": "LENDING_POOL",
      "outputs": [
        {
          "internalType": "contract ILendingPool",
          "name": "",
          "type": "address"
        }
      ],
      "stateMutability": "view",
      "type": "function"
    },
    {
      "inputs": [
        {
          "internalType": "address[]",
          "name": "assets",
          "type": "address[]"
        },
        {
          "internalType": "uint256[]",
          "name": "amounts",
          "type": "uint256[]"
        },
        {
          "internalType": "uint256[]",
          "name": "premiums",
          "type": "uint256[]"
        },
        {
          "internalType": "address",
          "name": "initiator",
          "type": "address"
        },
        {
          "internalType": "bytes",
          "name": "params",
          "type": "bytes"
        }
      ],
      "name": "executeOperation",
      "outputs": [
        {
          "internalType": "bool",
          "name": "",
          "type": "bool"
        }
      ],
      "stateMutability": "nonpayable",
      "type": "function"
    },
    {
      "inputs": [],
      "name": "swapRouter",
      "outputs": [
        {
          "internalType": "contract ISwapRouter",
          "name": "",
          "type": "address"
        }
      ],
      "stateMutability": "view",
      "type": "function"
    },
    {
      "inputs": [
        {
          "internalType": "address",
          "name": "asset",
          "type": "address"
        },
        {
          "internalType": "uint256",
          "name": "amount",
          "type": "uint256"
        }
      ],
      "name": "testFlashLoan",
      "outputs": [],
      "stateMutability": "nonpayable",
      "type": "function"
    },
    {
      "inputs": [],
      "name": "v3PoolFee",
      "outputs": [
        {
          "internalType": "uint24",
          "name": "",
          "type": "uint24"
        }
      ],
      "stateMutability": "view",
      "type": "function"
    }
  ],
  "transactionHash": "0x0e89b70e67124708cfef96f342a453204dc59842a788a33ab5d0fedb07bcb329",
  "args": [
    "0x88757f2f99175387ab4c6a4b3067c77a695b0349"
  ],
  "numDeployments": 1,
  "solcInputHash": "35c2a589de393c7dc23afde59d8b2082",
  "bytecode": "0x60e0604052737a250d5630b4cf539739df2c5dacb4c659f2488d6000806101000a81548173ffffffffffffffffffffffffffffffffffffffff021916908373ffffffffffffffffffffffffffffffffffffffff160217905550738916cb563b92b9fcf5d0cf0426fac9436a110fd7600160006101000a81548173ffffffffffffffffffffffffffffffffffffffff021916908373ffffffffffffffffffffffffffffffffffffffff16021790555073d0a1e359811322d97991e03f863a0c30c2cf029c600260006101000a81548173ffffffffffffffffffffffffffffffffffffffff021916908373ffffffffffffffffffffffffffffffffffffffff16021790555073e592427a0aece92de3edee1f18e0157c05861564600360006101000a81548173ffffffffffffffffffffffffffffffffffffffff021916908373ffffffffffffffffffffffffffffffffffffffff1602179055503480156200016457600080fd5b5060405162002d3838038062002d3883398181016040528101906200018a919062000335565b808073ffffffffffffffffffffffffffffffffffffffff1660808173ffffffffffffffffffffffffffffffffffffffff1660601b815250508073ffffffffffffffffffffffffffffffffffffffff16630261bf8b6040518163ffffffff1660e01b815260040160206040518083038186803b1580156200020957600080fd5b505afa1580156200021e573d6000803e3d6000fd5b505050506040513d601f19601f8201168201806040525081019062000244919062000309565b73ffffffffffffffffffffffffffffffffffffffff1660a08173ffffffffffffffffffffffffffffffffffffffff1660601b8152505050600360009054906101000a900473ffffffffffffffffffffffffffffffffffffffff1673ffffffffffffffffffffffffffffffffffffffff1660c08173ffffffffffffffffffffffffffffffffffffffff1660601b8152505050620003dd565b600081519050620002ec81620003a9565b92915050565b6000815190506200030381620003c3565b92915050565b6000602082840312156200031c57600080fd5b60006200032c84828501620002db565b91505092915050565b6000602082840312156200034857600080fd5b60006200035884828501620002f2565b91505092915050565b60006200036e8262000389565b9050919050565b6000620003828262000361565b9050919050565b600073ffffffffffffffffffffffffffffffffffffffff82169050919050565b620003b48162000361565b8114620003c057600080fd5b50565b620003ce8162000375565b8114620003da57600080fd5b50565b60805160601c60a05160601c60c05160601c612906620004326000396000818161084d0152818161116f0152611334015260008181610542015281816108290152610b900152600061012d01526129066000f3fe608060405234801561001057600080fd5b50600436106100625760003560e01c80630542975c146100675780631727533f14610085578063920f5c84146100a3578063b4dcfc77146100d3578063c31c9c07146100f1578063d6b348ee1461010f575b600080fd5b61006f61012b565b60405161007c91906121e3565b60405180910390f35b61008d61014f565b60405161009a919061231e565b60405180910390f35b6100bd60048036038101906100b89190611be9565b610155565b6040516100ca91906121c8565b60405180910390f35b6100db610827565b6040516100e891906121fe565b60405180910390f35b6100f961084b565b6040516101069190612219565b60405180910390f35b61012960048036038101906101249190611bad565b61086f565b005b7f000000000000000000000000000000000000000000000000000000000000000081565b610bb881565b600080600090505b8a8a90508110156108155760008b8b838181106101a3577f4e487b7100000000000000000000000000000000000000000000000000000000600052603260045260246000fd5b90506020020160208101906101b89190611b30565b73ffffffffffffffffffffffffffffffffffffffff166370a08231306040518263ffffffff1660e01b81526004016101f091906120c9565b60206040518083038186803b15801561020857600080fd5b505afa15801561021c573d6000803e3d6000fd5b505050506040513d601f19601f820116820180604052508101906102409190611d3b565b90507fdd970dd9b5bfe707922155b058a407655cb18288b807e2216442bca8ad83d6b58a8a8481811061029c577f4e487b7100000000000000000000000000000000000000000000000000000000600052603260045260246000fd5b905060200201356040516102b091906122a6565b60405180910390a17fdd970dd9b5bfe707922155b058a407655cb18288b807e2216442bca8ad83d6b5888884818110610312577f4e487b7100000000000000000000000000000000000000000000000000000000600052603260045260246000fd5b9050602002013560405161032691906122d4565b60405180910390a160006103c189898581811061036c577f4e487b7100000000000000000000000000000000000000000000000000000000600052603260045260246000fd5b905060200201358c8c868181106103ac577f4e487b7100000000000000000000000000000000000000000000000000000000600052603260045260246000fd5b90506020020135610c3190919063ffffffff16565b90506104026040518060400160405280600981526020017f62616c616e63653e3e000000000000000000000000000000000000000000000081525083610c47565b6104416040518060400160405280600d81526020017f616d6f756e744f77696e673e3e0000000000000000000000000000000000000081525082610c47565b6104d78d8d8581811061047d577f4e487b7100000000000000000000000000000000000000000000000000000000600052603260045260246000fd5b90506020020160208101906104929190611b30565b8c8c868181106104cb577f4e487b7100000000000000000000000000000000000000000000000000000000600052603260045260246000fd5b90506020020135610ce3565b8c8c84818110610510577f4e487b7100000000000000000000000000000000000000000000000000000000600052603260045260246000fd5b90506020020160208101906105259190611b30565b73ffffffffffffffffffffffffffffffffffffffff1663095ea7b37f0000000000000000000000000000000000000000000000000000000000000000836040518363ffffffff1660e01b815260040161057f92919061219f565b602060405180830381600087803b15801561059957600080fd5b505af11580156105ad573d6000803e3d6000fd5b505050506040513d601f19601f820116820180604052508101906105d19190611d12565b5060008d8d8581811061060d577f4e487b7100000000000000000000000000000000000000000000000000000000600052603260045260246000fd5b90506020020160208101906106229190611b30565b73ffffffffffffffffffffffffffffffffffffffff166370a08231306040518263ffffffff1660e01b815260040161065a91906120c9565b60206040518083038186803b15801561067257600080fd5b505afa158015610686573d6000803e3d6000fd5b505050506040513d601f19601f820116820180604052508101906106aa9190611d3b565b90506106eb6040518060400160405280600e81526020017f616674657242616c616e63653e3e00000000000000000000000000000000000081525082610c47565b60008088888101906106fd9190611b59565b915091506000610716858561155e90919063ffffffff16565b11156107fd57808681518110610755577f4e487b7100000000000000000000000000000000000000000000000000000000600052603260045260246000fd5b602002602001015173ffffffffffffffffffffffffffffffffffffffff1663a9059cbb8361078c878761155e90919063ffffffff16565b6040518363ffffffff1660e01b81526004016107a992919061219f565b602060405180830381600087803b1580156107c357600080fd5b505af11580156107d7573d6000803e3d6000fd5b505050506040513d601f19601f820116820180604052508101906107fb9190611d12565b505b5050505050808061080d906126b1565b91505061015d565b50600190509998505050505050505050565b7f000000000000000000000000000000000000000000000000000000000000000081565b7f000000000000000000000000000000000000000000000000000000000000000081565b60008273ffffffffffffffffffffffffffffffffffffffff166370a08231306040518263ffffffff1660e01b81526004016108aa91906120c9565b60206040518083038186803b1580156108c257600080fd5b505afa1580156108d6573d6000803e3d6000fd5b505050506040513d601f19601f820116820180604052508101906108fa9190611d3b565b905060003090506000600167ffffffffffffffff811115610944577f4e487b7100000000000000000000000000000000000000000000000000000000600052604160045260246000fd5b6040519080825280602002602001820160405280156109725781602001602082028036833780820191505090505b50905084816000815181106109b0577f4e487b7100000000000000000000000000000000000000000000000000000000600052603260045260246000fd5b602002602001019073ffffffffffffffffffffffffffffffffffffffff16908173ffffffffffffffffffffffffffffffffffffffff16815250506000600167ffffffffffffffff811115610a2d577f4e487b7100000000000000000000000000000000000000000000000000000000600052604160045260246000fd5b604051908082528060200260200182016040528015610a5b5781602001602082028036833780820191505090505b5090508481600081518110610a99577f4e487b7100000000000000000000000000000000000000000000000000000000600052603260045260246000fd5b6020026020010181815250506000600167ffffffffffffffff811115610ae8577f4e487b7100000000000000000000000000000000000000000000000000000000600052604160045260246000fd5b604051908082528060200260200182016040528015610b165781602001602082028036833780820191505090505b509050600081600081518110610b55577f4e487b7100000000000000000000000000000000000000000000000000000000600052603260045260246000fd5b602002602001018181525050600030905060003385604051602001610b7b9291906120e4565b604051602081830303815290604052905060007f000000000000000000000000000000000000000000000000000000000000000073ffffffffffffffffffffffffffffffffffffffff1663ab9c4b5d888888888888886040518863ffffffff1660e01b8152600401610bf39796959493929190612114565b600060405180830381600087803b158015610c0d57600080fd5b505af1158015610c21573d6000803e3d6000fd5b5050505050505050505050505050565b60008183610c3f91906124e0565b905092915050565b610cdf8282604051602401610c5d929190612256565b6040516020818303038152906040527f9710a9d0000000000000000000000000000000000000000000000000000000007bffffffffffffffffffffffffffffffffffffffffffffffffffffffff19166020820180517bffffffffffffffffffffffffffffffffffffffffffffffffffffffff8381831617835250505050611574565b5050565b60008273ffffffffffffffffffffffffffffffffffffffff1663095ea7b360008054906101000a900473ffffffffffffffffffffffffffffffffffffffff16846040518363ffffffff1660e01b8152600401610d4092919061219f565b602060405180830381600087803b158015610d5a57600080fd5b505af1158015610d6e573d6000803e3d6000fd5b505050506040513d601f19601f82011682018060405250810190610d929190611d12565b506060600267ffffffffffffffff811115610dd6577f4e487b7100000000000000000000000000000000000000000000000000000000600052604160045260246000fd5b604051908082528060200260200182016040528015610e045781602001602082028036833780820191505090505b5090508381600081518110610e42577f4e487b7100000000000000000000000000000000000000000000000000000000600052603260045260246000fd5b602002602001019073ffffffffffffffffffffffffffffffffffffffff16908173ffffffffffffffffffffffffffffffffffffffff1681525050600160009054906101000a900473ffffffffffffffffffffffffffffffffffffffff1681600181518110610ed9577f4e487b7100000000000000000000000000000000000000000000000000000000600052603260045260246000fd5b602002602001019073ffffffffffffffffffffffffffffffffffffffff16908173ffffffffffffffffffffffffffffffffffffffff168152505060008054906101000a900473ffffffffffffffffffffffffffffffffffffffff1673ffffffffffffffffffffffffffffffffffffffff166338ed173984848430426040518663ffffffff1660e01b8152600401610f74959493929190612354565b600060405180830381600087803b158015610f8e57600080fd5b505af1158015610fa2573d6000803e3d6000fd5b505050506040513d6000823e3d601f19601f82011682018060405250810190610fcb9190611cd1565b506000600160009054906101000a900473ffffffffffffffffffffffffffffffffffffffff1673ffffffffffffffffffffffffffffffffffffffff166370a08231306040518263ffffffff1660e01b815260040161102991906120c9565b60206040518083038186803b15801561104157600080fd5b505afa158015611055573d6000803e3d6000fd5b505050506040513d601f19601f820116820180604052508101906110799190611d3b565b905061109d6040518060600160405280602581526020016128ac6025913982610c47565b611147604051806060016040528060238152602001612889602391398673ffffffffffffffffffffffffffffffffffffffff166370a08231306040518263ffffffff1660e01b81526004016110f291906120c9565b60206040518083038186803b15801561110a57600080fd5b505afa15801561111e573d6000803e3d6000fd5b505050506040513d601f19601f820116820180604052508101906111429190611d3b565b610c47565b611194600160009054906101000a900473ffffffffffffffffffffffffffffffffffffffff167f00000000000000000000000000000000000000000000000000000000000000008361159d565b6000604051806101000160405280600160009054906101000a900473ffffffffffffffffffffffffffffffffffffffff1673ffffffffffffffffffffffffffffffffffffffff1681526020018773ffffffffffffffffffffffffffffffffffffffff168152602001610bb862ffffff1681526020013073ffffffffffffffffffffffffffffffffffffffff16815260200142815260200183815260200160008152602001600073ffffffffffffffffffffffffffffffffffffffff1681525090506112936040518060400160405280600881526020017f3d64656275673d3d0000000000000000000000000000000000000000000000008152506116f2565b6112be600160009054906101000a900473ffffffffffffffffffffffffffffffffffffffff1661178b565b6112c78661178b565b6112d7610bb862ffffff16611824565b6112e03061178b565b6112e942611824565b6112f282611824565b6113306040518060400160405280600381526020017f3d3d3d00000000000000000000000000000000000000000000000000000000008152506116f2565b60007f000000000000000000000000000000000000000000000000000000000000000073ffffffffffffffffffffffffffffffffffffffff1663414bf389836040518263ffffffff1660e01b815260040161138b9190612302565b602060405180830381600087803b1580156113a557600080fd5b505af11580156113b9573d6000803e3d6000fd5b505050506040513d601f19601f820116820180604052508101906113dd9190611d3b565b90506114ab60405180606001604052806025815260200161286460259139600160009054906101000a900473ffffffffffffffffffffffffffffffffffffffff1673ffffffffffffffffffffffffffffffffffffffff166370a08231306040518263ffffffff1660e01b815260040161145691906120c9565b60206040518083038186803b15801561146e57600080fd5b505afa158015611482573d6000803e3d6000fd5b505050506040513d601f19601f820116820180604052508101906114a69190611d3b565b610c47565b611555604051806060016040528060238152602001612841602391398873ffffffffffffffffffffffffffffffffffffffff166370a08231306040518263ffffffff1660e01b815260040161150091906120c9565b60206040518083038186803b15801561151857600080fd5b505afa15801561152c573d6000803e3d6000fd5b505050506040513d601f19601f820116820180604052508101906115509190611d3b565b610c47565b50505050505050565b6000818361156c9190612536565b905092915050565b60008151905060006a636f6e736f6c652e6c6f679050602083016000808483855afa5050505050565b6000808473ffffffffffffffffffffffffffffffffffffffff1663095ea7b360e01b85856040516024016115d292919061219f565b604051602081830303815290604052907bffffffffffffffffffffffffffffffffffffffffffffffffffffffff19166020820180517bffffffffffffffffffffffffffffffffffffffffffffffffffffffff838183161783525050505060405161163c91906120b2565b6000604051808303816000865af19150503d8060008114611679576040519150601f19603f3d011682016040523d82523d6000602084013e61167e565b606091505b50915091508180156116ac57506000815114806116ab5750808060200190518101906116aa9190611d12565b5b5b6116eb576040517f08c379a00000000000000000000000000000000000000000000000000000000081526004016116e290612286565b60405180910390fd5b5050505050565b611788816040516024016117069190612234565b6040516020818303038152906040527f41304fac000000000000000000000000000000000000000000000000000000007bffffffffffffffffffffffffffffffffffffffffffffffffffffffff19166020820180517bffffffffffffffffffffffffffffffffffffffffffffffffffffffff8381831617835250505050611574565b50565b6118218160405160240161179f91906120c9565b6040516020818303038152906040527f2c2ecbc2000000000000000000000000000000000000000000000000000000007bffffffffffffffffffffffffffffffffffffffffffffffffffffffff19166020820180517bffffffffffffffffffffffffffffffffffffffffffffffffffffffff8381831617835250505050611574565b50565b6118ba816040516024016118389190612339565b6040516020818303038152906040527ff5b1bba9000000000000000000000000000000000000000000000000000000007bffffffffffffffffffffffffffffffffffffffffffffffffffffffff19166020820180517bffffffffffffffffffffffffffffffffffffffffffffffffffffffff8381831617835250505050611574565b50565b60006118d06118cb846123d3565b6123ae565b905080838252602082019050828560208602820111156118ef57600080fd5b60005b8581101561191f57816119058882611995565b8452602084019350602083019250506001810190506118f2565b5050509392505050565b600061193c611937846123ff565b6123ae565b9050808382526020820190508285602086028201111561195b57600080fd5b60005b8581101561198b57816119718882611b1b565b84526020840193506020830192505060018101905061195e565b5050509392505050565b6000813590506119a4816127e4565b92915050565b6000813590506119b9816127fb565b92915050565b60008083601f8401126119d157600080fd5b8235905067ffffffffffffffff8111156119ea57600080fd5b602083019150836020820283011115611a0257600080fd5b9250929050565b600082601f830112611a1a57600080fd5b8135611a2a8482602086016118bd565b91505092915050565b60008083601f840112611a4557600080fd5b8235905067ffffffffffffffff811115611a5e57600080fd5b602083019150836020820283011115611a7657600080fd5b9250929050565b600082601f830112611a8e57600080fd5b8151611a9e848260208601611929565b91505092915050565b600081519050611ab681612812565b92915050565b60008083601f840112611ace57600080fd5b8235905067ffffffffffffffff811115611ae757600080fd5b602083019150836001820283011115611aff57600080fd5b9250929050565b600081359050611b1581612829565b92915050565b600081519050611b2a81612829565b92915050565b600060208284031215611b4257600080fd5b6000611b5084828501611995565b91505092915050565b60008060408385031215611b6c57600080fd5b6000611b7a858286016119aa565b925050602083013567ffffffffffffffff811115611b9757600080fd5b611ba385828601611a09565b9150509250929050565b60008060408385031215611bc057600080fd5b6000611bce85828601611995565b9250506020611bdf85828601611b06565b9150509250929050565b600080600080600080600080600060a08a8c031215611c0757600080fd5b60008a013567ffffffffffffffff811115611c2157600080fd5b611c2d8c828d016119bf565b995099505060208a013567ffffffffffffffff811115611c4c57600080fd5b611c588c828d01611a33565b975097505060408a013567ffffffffffffffff811115611c7757600080fd5b611c838c828d01611a33565b95509550506060611c968c828d01611995565b93505060808a013567ffffffffffffffff811115611cb357600080fd5b611cbf8c828d01611abc565b92509250509295985092959850929598565b600060208284031215611ce357600080fd5b600082015167ffffffffffffffff811115611cfd57600080fd5b611d0984828501611a7d565b91505092915050565b600060208284031215611d2457600080fd5b6000611d3284828501611aa7565b91505092915050565b600060208284031215611d4d57600080fd5b6000611d5b84828501611b1b565b91505092915050565b6000611d708383611d94565b60208301905092915050565b6000611d888383612094565b60208301905092915050565b611d9d8161256a565b82525050565b611dac8161256a565b82525050565b6000611dbd8261244b565b611dc78185612491565b9350611dd28361242b565b8060005b83811015611e03578151611dea8882611d64565b9750611df583612477565b925050600181019050611dd6565b5085935050505092915050565b6000611e1b82612456565b611e2581856124a2565b9350611e308361243b565b8060005b83811015611e61578151611e488882611d7c565b9750611e5383612484565b925050600181019050611e34565b5085935050505092915050565b611e778161258e565b82525050565b6000611e8882612461565b611e9281856124b3565b9350611ea281856020860161264d565b611eab81612758565b840191505092915050565b6000611ec182612461565b611ecb81856124c4565b9350611edb81856020860161264d565b80840191505092915050565b611ef0816125e1565b82525050565b611eff81612605565b82525050565b611f0e81612629565b82525050565b6000611f1f8261246c565b611f2981856124cf565b9350611f3981856020860161264d565b611f4281612758565b840191505092915050565b6000611f5a6002836124cf565b9150611f6582612769565b602082019050919050565b6000611f7d6008836124cf565b9150611f8882612792565b602082019050919050565b6000611fa06003836124cf565b9150611fab826127bb565b602082019050919050565b61010082016000820151611fcd6000850182611d94565b506020820151611fe06020850182611d94565b506040820151611ff36040850182612076565b5060608201516120066060850182611d94565b5060808201516120196080850182612094565b5060a082015161202c60a0850182612094565b5060c082015161203f60c0850182612094565b5060e082015161205260e0850182612058565b50505050565b612061816125a8565b82525050565b6120708161259a565b82525050565b61207f816125c8565b82525050565b61208e816125c8565b82525050565b61209d816125d7565b82525050565b6120ac816125d7565b82525050565b60006120be8284611eb6565b915081905092915050565b60006020820190506120de6000830184611da3565b92915050565b60006040820190506120f96000830185611da3565b818103602083015261210b8184611db2565b90509392505050565b600060e082019050612129600083018a611da3565b818103602083015261213b8189611db2565b9050818103604083015261214f8188611e10565b905081810360608301526121638187611e10565b90506121726080830186611da3565b81810360a08301526121848185611e7d565b905061219360c0830184612067565b98975050505050505050565b60006040820190506121b46000830185611da3565b6121c160208301846120a3565b9392505050565b60006020820190506121dd6000830184611e6e565b92915050565b60006020820190506121f86000830184611ee7565b92915050565b60006020820190506122136000830184611ef6565b92915050565b600060208201905061222e6000830184611f05565b92915050565b6000602082019050818103600083015261224e8184611f14565b905092915050565b600060408201905081810360008301526122708185611f14565b905061227f60208301846120a3565b9392505050565b6000602082019050818103600083015261229f81611f4d565b9050919050565b600060408201905081810360008301526122bf81611f70565b90506122ce60208301846120a3565b92915050565b600060408201905081810360008301526122ed81611f93565b90506122fc60208301846120a3565b92915050565b6000610100820190506123186000830184611fb6565b92915050565b60006020820190506123336000830184612085565b92915050565b600060208201905061234e60008301846120a3565b92915050565b600060a08201905061236960008301886120a3565b61237660208301876120a3565b81810360408301526123888186611db2565b90506123976060830185611da3565b6123a460808301846120a3565b9695505050505050565b60006123b86123c9565b90506123c48282612680565b919050565b6000604051905090565b600067ffffffffffffffff8211156123ee576123ed612729565b5b602082029050602081019050919050565b600067ffffffffffffffff82111561241a57612419612729565b5b602082029050602081019050919050565b6000819050602082019050919050565b6000819050602082019050919050565b600081519050919050565b600081519050919050565b600081519050919050565b600081519050919050565b6000602082019050919050565b6000602082019050919050565b600082825260208201905092915050565b600082825260208201905092915050565b600082825260208201905092915050565b600081905092915050565b600082825260208201905092915050565b60006124eb826125d7565b91506124f6836125d7565b9250827fffffffffffffffffffffffffffffffffffffffffffffffffffffffffffffffff0382111561252b5761252a6126fa565b5b828201905092915050565b6000612541826125d7565b915061254c836125d7565b92508282101561255f5761255e6126fa565b5b828203905092915050565b6000612575826125a8565b9050919050565b6000612587826125a8565b9050919050565b60008115159050919050565b600061ffff82169050919050565b600073ffffffffffffffffffffffffffffffffffffffff82169050919050565b600062ffffff82169050919050565b6000819050919050565b60006125ec826125f3565b9050919050565b60006125fe826125a8565b9050919050565b600061261082612617565b9050919050565b6000612622826125a8565b9050919050565b60006126348261263b565b9050919050565b6000612646826125a8565b9050919050565b60005b8381101561266b578082015181840152602081019050612650565b8381111561267a576000848401525b50505050565b61268982612758565b810181811067ffffffffffffffff821117156126a8576126a7612729565b5b80604052505050565b60006126bc826125d7565b91507fffffffffffffffffffffffffffffffffffffffffffffffffffffffffffffffff8214156126ef576126ee6126fa565b5b600182019050919050565b7f4e487b7100000000000000000000000000000000000000000000000000000000600052601160045260246000fd5b7f4e487b7100000000000000000000000000000000000000000000000000000000600052604160045260246000fd5b6000601f19601f8301169050919050565b7f5341000000000000000000000000000000000000000000000000000000000000600082015250565b7f626f72726f776564000000000000000000000000000000000000000000000000600082015250565b7f6665650000000000000000000000000000000000000000000000000000000000600082015250565b6127ed8161256a565b81146127f857600080fd5b50565b6128048161257c565b811461280f57600080fd5b50565b61281b8161258e565b811461282657600080fd5b50565b612832816125d7565b811461283d57600080fd5b5056fe616674657220756e6973776170207633202c204255534420616d6f756e74203e3e3e20616674657220756e6973776170207633202c2041546f6b656e20616d6f756e74203e3e3e20616674657220756e6973776170207632202c204255534420616d6f756e74203e3e3e20616674657220756e6973776170207632202c2041546f6b656e20616d6f756e74203e3e3e20a264697066735822122076c9516e5983961dcd72bc545e2b87f40c616333c795f6583f1dec02d98d0dfa64736f6c63430008040033",
  "devdoc": {
    "kind": "dev",
    "methods": {},
    "version": 1
  },
  "userdoc": {
    "kind": "user",
    "methods": {},
    "version": 1
  },
  "storageLayout": {
    "storage": [
      {
        "astId": 1609,
        "contract": "contracts/AaveFlashLoan.sol:AaveFlashLoan",
        "label": "UNISWAP_V2_ROUTER",
        "offset": 0,
        "slot": "0",
        "type": "t_address"
      },
      {
        "astId": 1612,
        "contract": "contracts/AaveFlashLoan.sol:AaveFlashLoan",
        "label": "ATOKEN",
        "offset": 0,
        "slot": "1",
        "type": "t_address"
      },
      {
        "astId": 1615,
        "contract": "contracts/AaveFlashLoan.sol:AaveFlashLoan",
        "label": "WETH",
        "offset": 0,
        "slot": "2",
        "type": "t_address"
      },
      {
        "astId": 1618,
        "contract": "contracts/AaveFlashLoan.sol:AaveFlashLoan",
        "label": "SWAP_ROUTER",
        "offset": 0,
        "slot": "3",
        "type": "t_address"
      }
    ],
    "types": {
      "t_address": {
        "encoding": "inplace",
        "label": "address",
        "numberOfBytes": "20"
      }
    }
  }
}