{
  "address": "0xE832b31E0F12B756Beb3779AD5FBE9B5Ab8B0208",
  "abi": [
    {
      "inputs": [
        {
          "internalType": "contract ILendingPoolAddressesProvider",
          "name": "_addressProvider",
          "type": "address"
        }
      ],
      "stateMutability": "nonpayable",
      "type": "constructor"
    },
    {
      "anonymous": false,
      "inputs": [
        {
          "indexed": false,
          "internalType": "string",
          "name": "message",
          "type": "string"
        },
        {
          "indexed": false,
          "internalType": "uint256",
          "name": "val",
          "type": "uint256"
        }
      ],
      "name": "Log",
      "type": "event"
    },
    {
      "inputs": [],
      "name": "ADDRESSES_PROVIDER",
      "outputs": [
        {
          "internalType": "contract ILendingPoolAddressesProvider",
          "name": "",
          "type": "address"
        }
      ],
      "stateMutability": "view",
      "type": "function"
    },
    {
      "inputs": [],
      "name": "LENDING_POOL",
      "outputs": [
        {
          "internalType": "contract ILendingPool",
          "name": "",
          "type": "address"
        }
      ],
      "stateMutability": "view",
      "type": "function"
    },
    {
      "inputs": [
        {
          "internalType": "address[]",
          "name": "assets",
          "type": "address[]"
        },
        {
          "internalType": "uint256[]",
          "name": "amounts",
          "type": "uint256[]"
        },
        {
          "internalType": "uint256[]",
          "name": "premiums",
          "type": "uint256[]"
        },
        {
          "internalType": "address",
          "name": "initiator",
          "type": "address"
        },
        {
          "internalType": "bytes",
          "name": "params",
          "type": "bytes"
        }
      ],
      "name": "executeOperation",
      "outputs": [
        {
          "internalType": "bool",
          "name": "",
          "type": "bool"
        }
      ],
      "stateMutability": "nonpayable",
      "type": "function"
    },
    {
      "inputs": [],
      "name": "swapRouter",
      "outputs": [
        {
          "internalType": "contract ISwapRouter",
          "name": "",
          "type": "address"
        }
      ],
      "stateMutability": "view",
      "type": "function"
    },
    {
      "inputs": [
        {
          "internalType": "address",
          "name": "asset",
          "type": "address"
        },
        {
          "internalType": "uint256",
          "name": "amount",
          "type": "uint256"
        }
      ],
      "name": "testFlashLoan",
      "outputs": [],
      "stateMutability": "nonpayable",
      "type": "function"
    },
    {
      "inputs": [],
      "name": "v3PoolFee",
      "outputs": [
        {
          "internalType": "uint24",
          "name": "",
          "type": "uint24"
        }
      ],
      "stateMutability": "view",
      "type": "function"
    }
  ],
  "transactionHash": "0x2dae9db174db1324dfbb5065c958d39655f5e3f9697b658db6566e7afe449dcf",
  "args": [
    "0x88757f2f99175387ab4c6a4b3067c77a695b0349"
  ],
  "numDeployments": 1,
  "solcInputHash": "d52a2844f7fb7806561062e670ca38ac",
  "bytecode": "0x60e0604052737a250d5630b4cf539739df2c5dacb4c659f2488d6000806101000a81548173ffffffffffffffffffffffffffffffffffffffff021916908373ffffffffffffffffffffffffffffffffffffffff160217905550738916cb563b92b9fcf5d0cf0426fac9436a110fd7600160006101000a81548173ffffffffffffffffffffffffffffffffffffffff021916908373ffffffffffffffffffffffffffffffffffffffff16021790555073d0a1e359811322d97991e03f863a0c30c2cf029c600260006101000a81548173ffffffffffffffffffffffffffffffffffffffff021916908373ffffffffffffffffffffffffffffffffffffffff1602179055503480156200010f57600080fd5b50604051620028c7380380620028c78339818101604052810190620001359190620002d2565b808073ffffffffffffffffffffffffffffffffffffffff1660808173ffffffffffffffffffffffffffffffffffffffff1660601b815250508073ffffffffffffffffffffffffffffffffffffffff16630261bf8b6040518163ffffffff1660e01b815260040160206040518083038186803b158015620001b457600080fd5b505afa158015620001c9573d6000803e3d6000fd5b505050506040513d601f19601f82011682018060405250810190620001ef9190620002a6565b73ffffffffffffffffffffffffffffffffffffffff1660a08173ffffffffffffffffffffffffffffffffffffffff1660601b81525050507368b3465833fb72a70ecdf485e0e4c7bd8665fc4573ffffffffffffffffffffffffffffffffffffffff1660c08173ffffffffffffffffffffffffffffffffffffffff1660601b81525050506200037a565b600081519050620002898162000346565b92915050565b600081519050620002a08162000360565b92915050565b600060208284031215620002b957600080fd5b6000620002c98482850162000278565b91505092915050565b600060208284031215620002e557600080fd5b6000620002f5848285016200028f565b91505092915050565b60006200030b8262000326565b9050919050565b60006200031f82620002fe565b9050919050565b600073ffffffffffffffffffffffffffffffffffffffff82169050919050565b6200035181620002fe565b81146200035d57600080fd5b50565b6200036b8162000312565b81146200037757600080fd5b50565b60805160601c60a05160601c60c05160601c6124f8620003cf6000396000818161061f01528181610f2f01526110f4015260008181610542015281816105fb01526109500152600061012d01526124f86000f3fe608060405234801561001057600080fd5b50600436106100625760003560e01c80630542975c146100675780631727533f14610085578063920f5c84146100a3578063b4dcfc77146100d3578063c31c9c07146100f1578063d6b348ee1461010f575b600080fd5b61006f61012b565b60405161007c9190611e5e565b60405180910390f35b61008d61014f565b60405161009a9190611f99565b60405180910390f35b6100bd60048036038101906100b89190611894565b610155565b6040516100ca9190611e43565b60405180910390f35b6100db6105f9565b6040516100e89190611e79565b60405180910390f35b6100f961061d565b6040516101069190611e94565b60405180910390f35b61012960048036038101906101249190611858565b610641565b005b7f000000000000000000000000000000000000000000000000000000000000000081565b610bb881565b600080600090505b8a8a90508110156105e75760008b8b838181106101a3577f4e487b7100000000000000000000000000000000000000000000000000000000600052603260045260246000fd5b90506020020160208101906101b8919061182f565b73ffffffffffffffffffffffffffffffffffffffff166370a08231306040518263ffffffff1660e01b81526004016101f09190611d74565b60206040518083038186803b15801561020857600080fd5b505afa15801561021c573d6000803e3d6000fd5b505050506040513d601f19601f8201168201806040525081019061024091906119e6565b90507fdd970dd9b5bfe707922155b058a407655cb18288b807e2216442bca8ad83d6b58a8a8481811061029c577f4e487b7100000000000000000000000000000000000000000000000000000000600052603260045260246000fd5b905060200201356040516102b09190611f21565b60405180910390a17fdd970dd9b5bfe707922155b058a407655cb18288b807e2216442bca8ad83d6b5888884818110610312577f4e487b7100000000000000000000000000000000000000000000000000000000600052603260045260246000fd5b905060200201356040516103269190611f4f565b60405180910390a160006103c189898581811061036c577f4e487b7100000000000000000000000000000000000000000000000000000000600052603260045260246000fd5b905060200201358c8c868181106103ac577f4e487b7100000000000000000000000000000000000000000000000000000000600052603260045260246000fd5b905060200201356109f190919063ffffffff16565b90506104026040518060400160405280600981526020017f62616c616e63653e3e000000000000000000000000000000000000000000000081525083610a07565b6104416040518060400160405280600d81526020017f616d6f756e744f77696e673e3e0000000000000000000000000000000000000081525082610a07565b6104d78d8d8581811061047d577f4e487b7100000000000000000000000000000000000000000000000000000000600052603260045260246000fd5b9050602002016020810190610492919061182f565b8c8c868181106104cb577f4e487b7100000000000000000000000000000000000000000000000000000000600052603260045260246000fd5b90506020020135610aa3565b8c8c84818110610510577f4e487b7100000000000000000000000000000000000000000000000000000000600052603260045260246000fd5b9050602002016020810190610525919061182f565b73ffffffffffffffffffffffffffffffffffffffff1663095ea7b37f0000000000000000000000000000000000000000000000000000000000000000836040518363ffffffff1660e01b815260040161057f929190611e1a565b602060405180830381600087803b15801561059957600080fd5b505af11580156105ad573d6000803e3d6000fd5b505050506040513d601f19601f820116820180604052508101906105d191906119bd565b50505080806105df906122ba565b91505061015d565b50600190509998505050505050505050565b7f000000000000000000000000000000000000000000000000000000000000000081565b7f000000000000000000000000000000000000000000000000000000000000000081565b60008273ffffffffffffffffffffffffffffffffffffffff166370a08231306040518263ffffffff1660e01b815260040161067c9190611d74565b60206040518083038186803b15801561069457600080fd5b505afa1580156106a8573d6000803e3d6000fd5b505050506040513d601f19601f820116820180604052508101906106cc91906119e6565b905060003090506000600167ffffffffffffffff811115610716577f4e487b7100000000000000000000000000000000000000000000000000000000600052604160045260246000fd5b6040519080825280602002602001820160405280156107445781602001602082028036833780820191505090505b5090508481600081518110610782577f4e487b7100000000000000000000000000000000000000000000000000000000600052603260045260246000fd5b602002602001019073ffffffffffffffffffffffffffffffffffffffff16908173ffffffffffffffffffffffffffffffffffffffff16815250506000600167ffffffffffffffff8111156107ff577f4e487b7100000000000000000000000000000000000000000000000000000000600052604160045260246000fd5b60405190808252806020026020018201604052801561082d5781602001602082028036833780820191505090505b509050848160008151811061086b577f4e487b7100000000000000000000000000000000000000000000000000000000600052603260045260246000fd5b6020026020010181815250506000600167ffffffffffffffff8111156108ba577f4e487b7100000000000000000000000000000000000000000000000000000000600052604160045260246000fd5b6040519080825280602002602001820160405280156108e85781602001602082028036833780820191505090505b509050600081600081518110610927577f4e487b7100000000000000000000000000000000000000000000000000000000600052603260045260246000fd5b6020026020010181815250506000309050600060405180602001604052806000815250905060007f000000000000000000000000000000000000000000000000000000000000000073ffffffffffffffffffffffffffffffffffffffff1663ab9c4b5d888888888888886040518863ffffffff1660e01b81526004016109b39796959493929190611d8f565b600060405180830381600087803b1580156109cd57600080fd5b505af11580156109e1573d6000803e3d6000fd5b5050505050505050505050505050565b600081836109ff919061212f565b905092915050565b610a9f8282604051602401610a1d929190611ed1565b6040516020818303038152906040527f9710a9d0000000000000000000000000000000000000000000000000000000007bffffffffffffffffffffffffffffffffffffffffffffffffffffffff19166020820180517bffffffffffffffffffffffffffffffffffffffffffffffffffffffff838183161783525050505061131e565b5050565b60008273ffffffffffffffffffffffffffffffffffffffff1663095ea7b360008054906101000a900473ffffffffffffffffffffffffffffffffffffffff16846040518363ffffffff1660e01b8152600401610b00929190611e1a565b602060405180830381600087803b158015610b1a57600080fd5b505af1158015610b2e573d6000803e3d6000fd5b505050506040513d601f19601f82011682018060405250810190610b5291906119bd565b506060600267ffffffffffffffff811115610b96577f4e487b7100000000000000000000000000000000000000000000000000000000600052604160045260246000fd5b604051908082528060200260200182016040528015610bc45781602001602082028036833780820191505090505b5090508381600081518110610c02577f4e487b7100000000000000000000000000000000000000000000000000000000600052603260045260246000fd5b602002602001019073ffffffffffffffffffffffffffffffffffffffff16908173ffffffffffffffffffffffffffffffffffffffff1681525050600160009054906101000a900473ffffffffffffffffffffffffffffffffffffffff1681600181518110610c99577f4e487b7100000000000000000000000000000000000000000000000000000000600052603260045260246000fd5b602002602001019073ffffffffffffffffffffffffffffffffffffffff16908173ffffffffffffffffffffffffffffffffffffffff168152505060008054906101000a900473ffffffffffffffffffffffffffffffffffffffff1673ffffffffffffffffffffffffffffffffffffffff166338ed173984848430426040518663ffffffff1660e01b8152600401610d34959493929190611fcf565b600060405180830381600087803b158015610d4e57600080fd5b505af1158015610d62573d6000803e3d6000fd5b505050506040513d6000823e3d601f19601f82011682018060405250810190610d8b919061197c565b506000600160009054906101000a900473ffffffffffffffffffffffffffffffffffffffff1673ffffffffffffffffffffffffffffffffffffffff166370a08231306040518263ffffffff1660e01b8152600401610de99190611d74565b60206040518083038186803b158015610e0157600080fd5b505afa158015610e15573d6000803e3d6000fd5b505050506040513d601f19601f82011682018060405250810190610e3991906119e6565b9050610e5d60405180606001604052806025815260200161249e6025913982610a07565b610f0760405180606001604052806023815260200161247b602391398673ffffffffffffffffffffffffffffffffffffffff166370a08231306040518263ffffffff1660e01b8152600401610eb29190611d74565b60206040518083038186803b158015610eca57600080fd5b505afa158015610ede573d6000803e3d6000fd5b505050506040513d601f19601f82011682018060405250810190610f0291906119e6565b610a07565b610f54600160009054906101000a900473ffffffffffffffffffffffffffffffffffffffff167f000000000000000000000000000000000000000000000000000000000000000083611347565b6000604051806101000160405280600160009054906101000a900473ffffffffffffffffffffffffffffffffffffffff1673ffffffffffffffffffffffffffffffffffffffff1681526020018773ffffffffffffffffffffffffffffffffffffffff168152602001610bb862ffffff1681526020013073ffffffffffffffffffffffffffffffffffffffff16815260200142815260200183815260200160008152602001600073ffffffffffffffffffffffffffffffffffffffff1681525090506110536040518060400160405280600381526020017f3d3d3d000000000000000000000000000000000000000000000000000000000081525061149c565b61107e600160009054906101000a900473ffffffffffffffffffffffffffffffffffffffff16611535565b61108786611535565b611097610bb862ffffff166115ce565b6110a030611535565b6110a9426115ce565b6110b2826115ce565b6110f06040518060400160405280600381526020017f3d3d3d000000000000000000000000000000000000000000000000000000000081525061149c565b60007f000000000000000000000000000000000000000000000000000000000000000073ffffffffffffffffffffffffffffffffffffffff1663414bf389836040518263ffffffff1660e01b815260040161114b9190611f7d565b602060405180830381600087803b15801561116557600080fd5b505af1158015611179573d6000803e3d6000fd5b505050506040513d601f19601f8201168201806040525081019061119d91906119e6565b905061126b60405180606001604052806025815260200161245660259139600160009054906101000a900473ffffffffffffffffffffffffffffffffffffffff1673ffffffffffffffffffffffffffffffffffffffff166370a08231306040518263ffffffff1660e01b81526004016112169190611d74565b60206040518083038186803b15801561122e57600080fd5b505afa158015611242573d6000803e3d6000fd5b505050506040513d601f19601f8201168201806040525081019061126691906119e6565b610a07565b611315604051806060016040528060238152602001612433602391398873ffffffffffffffffffffffffffffffffffffffff166370a08231306040518263ffffffff1660e01b81526004016112c09190611d74565b60206040518083038186803b1580156112d857600080fd5b505afa1580156112ec573d6000803e3d6000fd5b505050506040513d601f19601f8201168201806040525081019061131091906119e6565b610a07565b50505050505050565b60008151905060006a636f6e736f6c652e6c6f679050602083016000808483855afa5050505050565b6000808473ffffffffffffffffffffffffffffffffffffffff1663095ea7b360e01b858560405160240161137c929190611e1a565b604051602081830303815290604052907bffffffffffffffffffffffffffffffffffffffffffffffffffffffff19166020820180517bffffffffffffffffffffffffffffffffffffffffffffffffffffffff83818316178352505050506040516113e69190611d5d565b6000604051808303816000865af19150503d8060008114611423576040519150601f19603f3d011682016040523d82523d6000602084013e611428565b606091505b5091509150818015611456575060008151148061145557508080602001905181019061145491906119bd565b5b5b611495576040517f08c379a000000000000000000000000000000000000000000000000000000000815260040161148c90611f01565b60405180910390fd5b5050505050565b611532816040516024016114b09190611eaf565b6040516020818303038152906040527f41304fac000000000000000000000000000000000000000000000000000000007bffffffffffffffffffffffffffffffffffffffffffffffffffffffff19166020820180517bffffffffffffffffffffffffffffffffffffffffffffffffffffffff838183161783525050505061131e565b50565b6115cb816040516024016115499190611d74565b6040516020818303038152906040527f2c2ecbc2000000000000000000000000000000000000000000000000000000007bffffffffffffffffffffffffffffffffffffffffffffffffffffffff19166020820180517bffffffffffffffffffffffffffffffffffffffffffffffffffffffff838183161783525050505061131e565b50565b611664816040516024016115e29190611fb4565b6040516020818303038152906040527ff5b1bba9000000000000000000000000000000000000000000000000000000007bffffffffffffffffffffffffffffffffffffffffffffffffffffffff19166020820180517bffffffffffffffffffffffffffffffffffffffffffffffffffffffff838183161783525050505061131e565b50565b600061167a6116758461204e565b612029565b9050808382526020820190508285602086028201111561169957600080fd5b60005b858110156116c957816116af888261181a565b84526020840193506020830192505060018101905061169c565b5050509392505050565b6000813590506116e2816123ed565b92915050565b60008083601f8401126116fa57600080fd5b8235905067ffffffffffffffff81111561171357600080fd5b60208301915083602082028301111561172b57600080fd5b9250929050565b60008083601f84011261174457600080fd5b8235905067ffffffffffffffff81111561175d57600080fd5b60208301915083602082028301111561177557600080fd5b9250929050565b600082601f83011261178d57600080fd5b815161179d848260208601611667565b91505092915050565b6000815190506117b581612404565b92915050565b60008083601f8401126117cd57600080fd5b8235905067ffffffffffffffff8111156117e657600080fd5b6020830191508360018202830111156117fe57600080fd5b9250929050565b6000813590506118148161241b565b92915050565b6000815190506118298161241b565b92915050565b60006020828403121561184157600080fd5b600061184f848285016116d3565b91505092915050565b6000806040838503121561186b57600080fd5b6000611879858286016116d3565b925050602061188a85828601611805565b9150509250929050565b600080600080600080600080600060a08a8c0312156118b257600080fd5b60008a013567ffffffffffffffff8111156118cc57600080fd5b6118d88c828d016116e8565b995099505060208a013567ffffffffffffffff8111156118f757600080fd5b6119038c828d01611732565b975097505060408a013567ffffffffffffffff81111561192257600080fd5b61192e8c828d01611732565b955095505060606119418c828d016116d3565b93505060808a013567ffffffffffffffff81111561195e57600080fd5b61196a8c828d016117bb565b92509250509295985092959850929598565b60006020828403121561198e57600080fd5b600082015167ffffffffffffffff8111156119a857600080fd5b6119b48482850161177c565b91505092915050565b6000602082840312156119cf57600080fd5b60006119dd848285016117a6565b91505092915050565b6000602082840312156119f857600080fd5b6000611a068482850161181a565b91505092915050565b6000611a1b8383611a3f565b60208301905092915050565b6000611a338383611d3f565b60208301905092915050565b611a4881612185565b82525050565b611a5781612185565b82525050565b6000611a688261209a565b611a7281856120e0565b9350611a7d8361207a565b8060005b83811015611aae578151611a958882611a0f565b9750611aa0836120c6565b925050600181019050611a81565b5085935050505092915050565b6000611ac6826120a5565b611ad081856120f1565b9350611adb8361208a565b8060005b83811015611b0c578151611af38882611a27565b9750611afe836120d3565b925050600181019050611adf565b5085935050505092915050565b611b2281612197565b82525050565b6000611b33826120b0565b611b3d8185612102565b9350611b4d818560208601612256565b611b5681612361565b840191505092915050565b6000611b6c826120b0565b611b768185612113565b9350611b86818560208601612256565b80840191505092915050565b611b9b816121ea565b82525050565b611baa8161220e565b82525050565b611bb981612232565b82525050565b6000611bca826120bb565b611bd4818561211e565b9350611be4818560208601612256565b611bed81612361565b840191505092915050565b6000611c0560028361211e565b9150611c1082612372565b602082019050919050565b6000611c2860088361211e565b9150611c338261239b565b602082019050919050565b6000611c4b60038361211e565b9150611c56826123c4565b602082019050919050565b61010082016000820151611c786000850182611a3f565b506020820151611c8b6020850182611a3f565b506040820151611c9e6040850182611d21565b506060820151611cb16060850182611a3f565b506080820151611cc46080850182611d3f565b5060a0820151611cd760a0850182611d3f565b5060c0820151611cea60c0850182611d3f565b5060e0820151611cfd60e0850182611d03565b50505050565b611d0c816121b1565b82525050565b611d1b816121a3565b82525050565b611d2a816121d1565b82525050565b611d39816121d1565b82525050565b611d48816121e0565b82525050565b611d57816121e0565b82525050565b6000611d698284611b61565b915081905092915050565b6000602082019050611d896000830184611a4e565b92915050565b600060e082019050611da4600083018a611a4e565b8181036020830152611db68189611a5d565b90508181036040830152611dca8188611abb565b90508181036060830152611dde8187611abb565b9050611ded6080830186611a4e565b81810360a0830152611dff8185611b28565b9050611e0e60c0830184611d12565b98975050505050505050565b6000604082019050611e2f6000830185611a4e565b611e3c6020830184611d4e565b9392505050565b6000602082019050611e586000830184611b19565b92915050565b6000602082019050611e736000830184611b92565b92915050565b6000602082019050611e8e6000830184611ba1565b92915050565b6000602082019050611ea96000830184611bb0565b92915050565b60006020820190508181036000830152611ec98184611bbf565b905092915050565b60006040820190508181036000830152611eeb8185611bbf565b9050611efa6020830184611d4e565b9392505050565b60006020820190508181036000830152611f1a81611bf8565b9050919050565b60006040820190508181036000830152611f3a81611c1b565b9050611f496020830184611d4e565b92915050565b60006040820190508181036000830152611f6881611c3e565b9050611f776020830184611d4e565b92915050565b600061010082019050611f936000830184611c61565b92915050565b6000602082019050611fae6000830184611d30565b92915050565b6000602082019050611fc96000830184611d4e565b92915050565b600060a082019050611fe46000830188611d4e565b611ff16020830187611d4e565b81810360408301526120038186611a5d565b90506120126060830185611a4e565b61201f6080830184611d4e565b9695505050505050565b6000612033612044565b905061203f8282612289565b919050565b6000604051905090565b600067ffffffffffffffff82111561206957612068612332565b5b602082029050602081019050919050565b6000819050602082019050919050565b6000819050602082019050919050565b600081519050919050565b600081519050919050565b600081519050919050565b600081519050919050565b6000602082019050919050565b6000602082019050919050565b600082825260208201905092915050565b600082825260208201905092915050565b600082825260208201905092915050565b600081905092915050565b600082825260208201905092915050565b600061213a826121e0565b9150612145836121e0565b9250827fffffffffffffffffffffffffffffffffffffffffffffffffffffffffffffffff0382111561217a57612179612303565b5b828201905092915050565b6000612190826121b1565b9050919050565b60008115159050919050565b600061ffff82169050919050565b600073ffffffffffffffffffffffffffffffffffffffff82169050919050565b600062ffffff82169050919050565b6000819050919050565b60006121f5826121fc565b9050919050565b6000612207826121b1565b9050919050565b600061221982612220565b9050919050565b600061222b826121b1565b9050919050565b600061223d82612244565b9050919050565b600061224f826121b1565b9050919050565b60005b83811015612274578082015181840152602081019050612259565b83811115612283576000848401525b50505050565b61229282612361565b810181811067ffffffffffffffff821117156122b1576122b0612332565b5b80604052505050565b60006122c5826121e0565b91507fffffffffffffffffffffffffffffffffffffffffffffffffffffffffffffffff8214156122f8576122f7612303565b5b600182019050919050565b7f4e487b7100000000000000000000000000000000000000000000000000000000600052601160045260246000fd5b7f4e487b7100000000000000000000000000000000000000000000000000000000600052604160045260246000fd5b6000601f19601f8301169050919050565b7f5341000000000000000000000000000000000000000000000000000000000000600082015250565b7f626f72726f776564000000000000000000000000000000000000000000000000600082015250565b7f6665650000000000000000000000000000000000000000000000000000000000600082015250565b6123f681612185565b811461240157600080fd5b50565b61240d81612197565b811461241857600080fd5b50565b612424816121e0565b811461242f57600080fd5b5056fe616674657220756e6973776170207633202c204255534420616d6f756e74203e3e3e20616674657220756e6973776170207633202c2041546f6b656e20616d6f756e74203e3e3e20616674657220756e6973776170207632202c204255534420616d6f756e74203e3e3e20616674657220756e6973776170207632202c2041546f6b656e20616d6f756e74203e3e3e20a26469706673582212201d5e727ffebcf5b7652f0c34df38f407c8a17b6560b25cc94b4a6e80980290d764736f6c63430008040033",
  "devdoc": {
    "kind": "dev",
    "methods": {},
    "version": 1
  },
  "userdoc": {
    "kind": "user",
    "methods": {},
    "version": 1
  },
  "storageLayout": {
    "storage": [
      {
        "astId": 1608,
        "contract": "contracts/AaveFlashLoan.sol:AaveFlashLoan",
        "label": "UNISWAP_V2_ROUTER",
        "offset": 0,
        "slot": "0",
        "type": "t_address"
      },
      {
        "astId": 1611,
        "contract": "contracts/AaveFlashLoan.sol:AaveFlashLoan",
        "label": "ATOKEN",
        "offset": 0,
        "slot": "1",
        "type": "t_address"
      },
      {
        "astId": 1614,
        "contract": "contracts/AaveFlashLoan.sol:AaveFlashLoan",
        "label": "WETH",
        "offset": 0,
        "slot": "2",
        "type": "t_address"
      }
    ],
    "types": {
      "t_address": {
        "encoding": "inplace",
        "label": "address",
        "numberOfBytes": "20"
      }
    }
  }
}