{
  "address": "0xe7f1725E7734CE288F8367e1Bb143E90bb3F0512",
  "abi": [
    {
      "inputs": [
        {
          "internalType": "address",
          "name": "_token",
          "type": "address"
        }
      ],
      "stateMutability": "nonpayable",
      "type": "constructor"
    },
    {
      "inputs": [
        {
          "internalType": "address",
          "name": "user",
          "type": "address"
        },
        {
          "internalType": "uint256",
          "name": "amount",
          "type": "uint256"
        }
      ],
      "name": "deposit",
      "outputs": [],
      "stateMutability": "nonpayable",
      "type": "function"
    },
    {
      "inputs": [
        {
          "internalType": "address",
          "name": "",
          "type": "address"
        }
      ],
      "name": "deposited",
      "outputs": [
        {
          "internalType": "uint256",
          "name": "",
          "type": "uint256"
        }
      ],
      "stateMutability": "view",
      "type": "function"
    },
    {
      "inputs": [],
      "name": "token",
      "outputs": [
        {
          "internalType": "address",
          "name": "",
          "type": "address"
        }
      ],
      "stateMutability": "view",
      "type": "function"
    },
    {
      "inputs": [
        {
          "internalType": "uint256",
          "name": "amount",
          "type": "uint256"
        }
      ],
      "name": "withdraw",
      "outputs": [],
      "stateMutability": "nonpayable",
      "type": "function"
    }
  ],
  "transactionHash": "0xcaa69f9fe280de5ed0a218a5bde09cebae884711c07050649847ffa72beb5a8e",
  "args": [
    "0x5FbDB2315678afecb367f032d93F642f64180aa3"
  ],
  "numDeployments": 1,
  "solcInputHash": "47e7effd00332984b32f277568a78d07",
  "bytecode": "0x60a060405234801561001057600080fd5b5060405161091e38038061091e83398181016040528101906100329190610084565b8073ffffffffffffffffffffffffffffffffffffffff1660808173ffffffffffffffffffffffffffffffffffffffff1660601b81525050506100f6565b60008151905061007e816100df565b92915050565b60006020828403121561009657600080fd5b60006100a48482850161006f565b91505092915050565b60006100b8826100bf565b9050919050565b600073ffffffffffffffffffffffffffffffffffffffff82169050919050565b6100e8816100ad565b81146100f357600080fd5b50565b60805160601c6107fc610122600039600081816101660152818161026c01526103cb01526107fc6000f3fe608060405234801561001057600080fd5b506004361061004c5760003560e01c80632e1a7d4d1461005157806347e7ef241461006d578063cb13cddb14610089578063fc0c546a146100b9575b600080fd5b61006b600480360381019061006691906104ba565b6100d7565b005b61008760048036038101906100829190610455565b61026a565b005b6100a3600480360381019061009e919061042c565b6103b1565b6040516100b09190610602565b60405180910390f35b6100c16103c9565b6040516100ce9190610547565b60405180910390f35b6000816000803373ffffffffffffffffffffffffffffffffffffffff1673ffffffffffffffffffffffffffffffffffffffff168152602001908152602001600020546101239190610684565b1015610164576040517f08c379a000000000000000000000000000000000000000000000000000000000815260040161015b906105c2565b60405180910390fd5b7f000000000000000000000000000000000000000000000000000000000000000073ffffffffffffffffffffffffffffffffffffffff1663a9059cbb33836040518363ffffffff1660e01b81526004016101bf929190610599565b602060405180830381600087803b1580156101d957600080fd5b505af11580156101ed573d6000803e3d6000fd5b505050506040513d601f19601f820116820180604052508101906102119190610491565b50806000803373ffffffffffffffffffffffffffffffffffffffff1673ffffffffffffffffffffffffffffffffffffffff16815260200190815260200160002060008282546102609190610684565b9250508190555050565b7f000000000000000000000000000000000000000000000000000000000000000073ffffffffffffffffffffffffffffffffffffffff166323b872dd3330846040518463ffffffff1660e01b81526004016102c793929190610562565b602060405180830381600087803b1580156102e157600080fd5b505af11580156102f5573d6000803e3d6000fd5b505050506040513d601f19601f820116820180604052508101906103199190610491565b610358576040517f08c379a000000000000000000000000000000000000000000000000000000000815260040161034f906105e2565b60405180910390fd5b806000808473ffffffffffffffffffffffffffffffffffffffff1673ffffffffffffffffffffffffffffffffffffffff16815260200190815260200160002060008282546103a6919061062e565b925050819055505050565b60006020528060005260406000206000915090505481565b7f000000000000000000000000000000000000000000000000000000000000000081565b6000813590506103fc81610781565b92915050565b60008151905061041181610798565b92915050565b600081359050610426816107af565b92915050565b60006020828403121561043e57600080fd5b600061044c848285016103ed565b91505092915050565b6000806040838503121561046857600080fd5b6000610476858286016103ed565b925050602061048785828601610417565b9150509250929050565b6000602082840312156104a357600080fd5b60006104b184828501610402565b91505092915050565b6000602082840312156104cc57600080fd5b60006104da84828501610417565b91505092915050565b6104ec816106b8565b82525050565b60006104ff60128361061d565b915061050a8261072f565b602082019050919050565b600061052260138361061d565b915061052d82610758565b602082019050919050565b610541816106f6565b82525050565b600060208201905061055c60008301846104e3565b92915050565b600060608201905061057760008301866104e3565b61058460208301856104e3565b6105916040830184610538565b949350505050565b60006040820190506105ae60008301856104e3565b6105bb6020830184610538565b9392505050565b600060208201905081810360008301526105db816104f2565b9050919050565b600060208201905081810360008301526105fb81610515565b9050919050565b60006020820190506106176000830184610538565b92915050565b600082825260208201905092915050565b6000610639826106f6565b9150610644836106f6565b9250827fffffffffffffffffffffffffffffffffffffffffffffffffffffffffffffffff0382111561067957610678610700565b5b828201905092915050565b600061068f826106f6565b915061069a836106f6565b9250828210156106ad576106ac610700565b5b828203905092915050565b60006106c3826106d6565b9050919050565b60008115159050919050565b600073ffffffffffffffffffffffffffffffffffffffff82169050919050565b6000819050919050565b7f4e487b7100000000000000000000000000000000000000000000000000000000600052601160045260246000fd5b7f42616c616e6365206e6f7420656e6f7567680000000000000000000000000000600082015250565b7f5472616e736665722066726f6d206572726f7200000000000000000000000000600082015250565b61078a816106b8565b811461079557600080fd5b50565b6107a1816106ca565b81146107ac57600080fd5b50565b6107b8816106f6565b81146107c357600080fd5b5056fea2646970667358221220de3455776e64e219c8799ece36f5b2e1f5fcc12af1b8de32ce8d875a8af6162064736f6c63430008040033",
  "devdoc": {
    "kind": "dev",
    "methods": {},
    "version": 1
  },
  "userdoc": {
    "kind": "user",
    "methods": {},
    "version": 1
  },
  "storageLayout": {
    "storage": [
      {
        "astId": 84,
        "contract": "contracts/Vault.sol:Vault",
        "label": "deposited",
        "offset": 0,
        "slot": "0",
        "type": "t_mapping(t_address,t_uint256)"
      }
    ],
    "types": {
      "t_address": {
        "encoding": "inplace",
        "label": "address",
        "numberOfBytes": "20"
      },
      "t_mapping(t_address,t_uint256)": {
        "encoding": "mapping",
        "key": "t_address",
        "label": "mapping(address => uint256)",
        "numberOfBytes": "32",
        "value": "t_uint256"
      },
      "t_uint256": {
        "encoding": "inplace",
        "label": "uint256",
        "numberOfBytes": "32"
      }
    }
  }
}