{
  "address": "0x51A1ceB83B83F1985a81C295d1fF28Afef186E02",
  "abi": [
    {
      "inputs": [
        {
          "internalType": "contract SushiToken",
          "name": "_sushi",
          "type": "address"
        },
        {
          "internalType": "address",
          "name": "_devaddr",
          "type": "address"
        },
        {
          "internalType": "uint256",
          "name": "_sushiPerBlock",
          "type": "uint256"
        },
        {
          "internalType": "uint256",
          "name": "_startBlock",
          "type": "uint256"
        },
        {
          "internalType": "uint256",
          "name": "_bonusEndBlock",
          "type": "uint256"
        }
      ],
      "stateMutability": "nonpayable",
      "type": "constructor"
    },
    {
      "anonymous": false,
      "inputs": [
        {
          "indexed": true,
          "internalType": "address",
          "name": "user",
          "type": "address"
        },
        {
          "indexed": true,
          "internalType": "uint256",
          "name": "pid",
          "type": "uint256"
        },
        {
          "indexed": false,
          "internalType": "uint256",
          "name": "amount",
          "type": "uint256"
        }
      ],
      "name": "Deposit",
      "type": "event"
    },
    {
      "anonymous": false,
      "inputs": [
        {
          "indexed": true,
          "internalType": "address",
          "name": "user",
          "type": "address"
        },
        {
          "indexed": true,
          "internalType": "uint256",
          "name": "pid",
          "type": "uint256"
        },
        {
          "indexed": false,
          "internalType": "uint256",
          "name": "amount",
          "type": "uint256"
        }
      ],
      "name": "EmergencyWithdraw",
      "type": "event"
    },
    {
      "anonymous": false,
      "inputs": [
        {
          "indexed": true,
          "internalType": "address",
          "name": "previousOwner",
          "type": "address"
        },
        {
          "indexed": true,
          "internalType": "address",
          "name": "newOwner",
          "type": "address"
        }
      ],
      "name": "OwnershipTransferred",
      "type": "event"
    },
    {
      "anonymous": false,
      "inputs": [
        {
          "indexed": true,
          "internalType": "address",
          "name": "user",
          "type": "address"
        },
        {
          "indexed": true,
          "internalType": "uint256",
          "name": "pid",
          "type": "uint256"
        },
        {
          "indexed": false,
          "internalType": "uint256",
          "name": "amount",
          "type": "uint256"
        }
      ],
      "name": "Withdraw",
      "type": "event"
    },
    {
      "inputs": [],
      "name": "BONUS_MULTIPLIER",
      "outputs": [
        {
          "internalType": "uint256",
          "name": "",
          "type": "uint256"
        }
      ],
      "stateMutability": "view",
      "type": "function"
    },
    {
      "inputs": [
        {
          "internalType": "uint256",
          "name": "_allocPoint",
          "type": "uint256"
        },
        {
          "internalType": "contract IERC20",
          "name": "_lpToken",
          "type": "address"
        },
        {
          "internalType": "bool",
          "name": "_withUpdate",
          "type": "bool"
        }
      ],
      "name": "add",
      "outputs": [],
      "stateMutability": "nonpayable",
      "type": "function"
    },
    {
      "inputs": [],
      "name": "bonusEndBlock",
      "outputs": [
        {
          "internalType": "uint256",
          "name": "",
          "type": "uint256"
        }
      ],
      "stateMutability": "view",
      "type": "function"
    },
    {
      "inputs": [
        {
          "internalType": "uint256",
          "name": "_pid",
          "type": "uint256"
        },
        {
          "internalType": "uint256",
          "name": "_amount",
          "type": "uint256"
        }
      ],
      "name": "deposit",
      "outputs": [],
      "stateMutability": "nonpayable",
      "type": "function"
    },
    {
      "inputs": [
        {
          "internalType": "address",
          "name": "_devaddr",
          "type": "address"
        }
      ],
      "name": "dev",
      "outputs": [],
      "stateMutability": "nonpayable",
      "type": "function"
    },
    {
      "inputs": [],
      "name": "devaddr",
      "outputs": [
        {
          "internalType": "address",
          "name": "",
          "type": "address"
        }
      ],
      "stateMutability": "view",
      "type": "function"
    },
    {
      "inputs": [
        {
          "internalType": "uint256",
          "name": "_pid",
          "type": "uint256"
        }
      ],
      "name": "emergencyWithdraw",
      "outputs": [],
      "stateMutability": "nonpayable",
      "type": "function"
    },
    {
      "inputs": [
        {
          "internalType": "uint256",
          "name": "_from",
          "type": "uint256"
        },
        {
          "internalType": "uint256",
          "name": "_to",
          "type": "uint256"
        }
      ],
      "name": "getMultiplier",
      "outputs": [
        {
          "internalType": "uint256",
          "name": "",
          "type": "uint256"
        }
      ],
      "stateMutability": "view",
      "type": "function"
    },
    {
      "inputs": [],
      "name": "massUpdatePools",
      "outputs": [],
      "stateMutability": "nonpayable",
      "type": "function"
    },
    {
      "inputs": [
        {
          "internalType": "uint256",
          "name": "_pid",
          "type": "uint256"
        }
      ],
      "name": "migrate",
      "outputs": [],
      "stateMutability": "nonpayable",
      "type": "function"
    },
    {
      "inputs": [],
      "name": "migrator",
      "outputs": [
        {
          "internalType": "contract IMigratorChef",
          "name": "",
          "type": "address"
        }
      ],
      "stateMutability": "view",
      "type": "function"
    },
    {
      "inputs": [],
      "name": "owner",
      "outputs": [
        {
          "internalType": "address",
          "name": "",
          "type": "address"
        }
      ],
      "stateMutability": "view",
      "type": "function"
    },
    {
      "inputs": [
        {
          "internalType": "uint256",
          "name": "_pid",
          "type": "uint256"
        },
        {
          "internalType": "address",
          "name": "_user",
          "type": "address"
        }
      ],
      "name": "pendingSushi",
      "outputs": [
        {
          "internalType": "uint256",
          "name": "",
          "type": "uint256"
        }
      ],
      "stateMutability": "view",
      "type": "function"
    },
    {
      "inputs": [
        {
          "internalType": "uint256",
          "name": "",
          "type": "uint256"
        }
      ],
      "name": "poolInfo",
      "outputs": [
        {
          "internalType": "contract IERC20",
          "name": "lpToken",
          "type": "address"
        },
        {
          "internalType": "uint256",
          "name": "allocPoint",
          "type": "uint256"
        },
        {
          "internalType": "uint256",
          "name": "lastRewardBlock",
          "type": "uint256"
        },
        {
          "internalType": "uint256",
          "name": "accSushiPerShare",
          "type": "uint256"
        }
      ],
      "stateMutability": "view",
      "type": "function"
    },
    {
      "inputs": [],
      "name": "poolLength",
      "outputs": [
        {
          "internalType": "uint256",
          "name": "",
          "type": "uint256"
        }
      ],
      "stateMutability": "view",
      "type": "function"
    },
    {
      "inputs": [],
      "name": "renounceOwnership",
      "outputs": [],
      "stateMutability": "nonpayable",
      "type": "function"
    },
    {
      "inputs": [
        {
          "internalType": "uint256",
          "name": "_pid",
          "type": "uint256"
        },
        {
          "internalType": "uint256",
          "name": "_allocPoint",
          "type": "uint256"
        },
        {
          "internalType": "bool",
          "name": "_withUpdate",
          "type": "bool"
        }
      ],
      "name": "set",
      "outputs": [],
      "stateMutability": "nonpayable",
      "type": "function"
    },
    {
      "inputs": [
        {
          "internalType": "contract IMigratorChef",
          "name": "_migrator",
          "type": "address"
        }
      ],
      "name": "setMigrator",
      "outputs": [],
      "stateMutability": "nonpayable",
      "type": "function"
    },
    {
      "inputs": [],
      "name": "startBlock",
      "outputs": [
        {
          "internalType": "uint256",
          "name": "",
          "type": "uint256"
        }
      ],
      "stateMutability": "view",
      "type": "function"
    },
    {
      "inputs": [],
      "name": "sushi",
      "outputs": [
        {
          "internalType": "contract SushiToken",
          "name": "",
          "type": "address"
        }
      ],
      "stateMutability": "view",
      "type": "function"
    },
    {
      "inputs": [],
      "name": "sushiPerBlock",
      "outputs": [
        {
          "internalType": "uint256",
          "name": "",
          "type": "uint256"
        }
      ],
      "stateMutability": "view",
      "type": "function"
    },
    {
      "inputs": [],
      "name": "totalAllocPoint",
      "outputs": [
        {
          "internalType": "uint256",
          "name": "",
          "type": "uint256"
        }
      ],
      "stateMutability": "view",
      "type": "function"
    },
    {
      "inputs": [
        {
          "internalType": "address",
          "name": "newOwner",
          "type": "address"
        }
      ],
      "name": "transferOwnership",
      "outputs": [],
      "stateMutability": "nonpayable",
      "type": "function"
    },
    {
      "inputs": [
        {
          "internalType": "uint256",
          "name": "_pid",
          "type": "uint256"
        }
      ],
      "name": "updatePool",
      "outputs": [],
      "stateMutability": "nonpayable",
      "type": "function"
    },
    {
      "inputs": [
        {
          "internalType": "uint256",
          "name": "",
          "type": "uint256"
        },
        {
          "internalType": "address",
          "name": "",
          "type": "address"
        }
      ],
      "name": "userInfo",
      "outputs": [
        {
          "internalType": "uint256",
          "name": "amount",
          "type": "uint256"
        },
        {
          "internalType": "uint256",
          "name": "rewardDebt",
          "type": "uint256"
        }
      ],
      "stateMutability": "view",
      "type": "function"
    },
    {
      "inputs": [
        {
          "internalType": "uint256",
          "name": "_pid",
          "type": "uint256"
        },
        {
          "internalType": "uint256",
          "name": "_amount",
          "type": "uint256"
        }
      ],
      "name": "withdraw",
      "outputs": [],
      "stateMutability": "nonpayable",
      "type": "function"
    }
  ],
  "transactionHash": "0x664f55961981d7420306bc13a62d04747b03d691448455aea4fdcd367b2b8580",
  "args": [
    "0xDC11f7E700A4c898AE5CAddB1082cFfa76512aDD",
    "0xf39Fd6e51aad88F6F4ce6aB8827279cffFb92266",
    "1000000000000000000000",
    "0",
    "1000000000000000000000"
  ],
  "numDeployments": 1,
  "solcInputHash": "c9135176da105c578247ee3f0c6fef5c",
  "bytecode": "0x608060405260006008553480156200001657600080fd5b5060405162002edb38038062002edb833981810160405260a08110156200003c57600080fd5b810190808051906020019092919080519060200190929190805190602001909291908051906020019092919080519060200190929190505050600062000087620001c760201b60201c565b9050806000806101000a81548173ffffffffffffffffffffffffffffffffffffffff021916908373ffffffffffffffffffffffffffffffffffffffff1602179055508073ffffffffffffffffffffffffffffffffffffffff16600073ffffffffffffffffffffffffffffffffffffffff167f8be0079c531659141344cd1fd0a4f28419497f9722a3daafe3b4186f6b6457e060405160405180910390a35084600160006101000a81548173ffffffffffffffffffffffffffffffffffffffff021916908373ffffffffffffffffffffffffffffffffffffffff16021790555083600260006101000a81548173ffffffffffffffffffffffffffffffffffffffff021916908373ffffffffffffffffffffffffffffffffffffffff1602179055508260048190555080600381905550816009819055505050505050620001cf565b600033905090565b612cfc80620001df6000396000f3fe608060405234801561001057600080fd5b506004361061018e5760003560e01c8063630b5ba1116100de5780638da5cb5b11610097578063b0bcf42a11610071578063b0bcf42a14610645578063d49e77cd14610663578063e2bbb15814610697578063f2fde38b146106cf5761018e565b80638da5cb5b1461055c5780638dbb1e3a1461059057806393f1a40b146105dc5761018e565b8063630b5ba11461046e57806364482f7914610478578063715018a6146104bc5780637cd07e47146104c65780638aa28550146104fa5780638d88a90e146105185761018e565b80631eaaa0451161014b578063454b060811610125578063454b0608146103c657806348cd4cb1146103f457806351eb05a6146104125780635312ea8e146104405761018e565b80631eaaa045146102f057806323cf31181461034a578063441a3e701461038e5761018e565b8063081e3eda146101935780630a087903146101b15780631526fe27146101e557806317caf6f114610252578063195426ec146102705780631aed6553146102d2575b600080fd5b61019b610713565b6040518082815260200191505060405180910390f35b6101b9610720565b604051808273ffffffffffffffffffffffffffffffffffffffff16815260200191505060405180910390f35b610211600480360360208110156101fb57600080fd5b8101908080359060200190929190505050610746565b604051808573ffffffffffffffffffffffffffffffffffffffff16815260200184815260200183815260200182815260200194505050505060405180910390f35b61025a6107a3565b6040518082815260200191505060405180910390f35b6102bc6004803603604081101561028657600080fd5b8101908080359060200190929190803573ffffffffffffffffffffffffffffffffffffffff1690602001909291905050506107a9565b6040518082815260200191505060405180910390f35b6102da6109ef565b6040518082815260200191505060405180910390f35b6103486004803603606081101561030657600080fd5b8101908080359060200190929190803573ffffffffffffffffffffffffffffffffffffffff1690602001909291908035151590602001909291905050506109f5565b005b61038c6004803603602081101561036057600080fd5b81019080803573ffffffffffffffffffffffffffffffffffffffff169060200190929190505050610bb5565b005b6103c4600480360360408110156103a457600080fd5b810190808035906020019092919080359060200190929190505050610ca8565b005b6103f2600480360360208110156103dc57600080fd5b8101908080359060200190929190505050610ef2565b005b6103fc61131c565b6040518082815260200191505060405180910390f35b61043e6004803603602081101561042857600080fd5b8101908080359060200190929190505050611322565b005b61046c6004803603602081101561045657600080fd5b810190808035906020019092919050505061166e565b005b6104766117a0565b005b6104ba6004803603606081101561048e57600080fd5b8101908080359060200190929190803590602001909291908035151590602001909291905050506117cd565b005b6104c46118fe565b005b6104ce611a6b565b604051808273ffffffffffffffffffffffffffffffffffffffff16815260200191505060405180910390f35b610502611a91565b6040518082815260200191505060405180910390f35b61055a6004803603602081101561052e57600080fd5b81019080803573ffffffffffffffffffffffffffffffffffffffff169060200190929190505050611a96565b005b610564611b9d565b604051808273ffffffffffffffffffffffffffffffffffffffff16815260200191505060405180910390f35b6105c6600480360360408110156105a657600080fd5b810190808035906020019092919080359060200190929190505050611bc6565b6040518082815260200191505060405180910390f35b610628600480360360408110156105f257600080fd5b8101908080359060200190929190803573ffffffffffffffffffffffffffffffffffffffff169060200190929190505050611c78565b604051808381526020018281526020019250505060405180910390f35b61064d611ca9565b6040518082815260200191505060405180910390f35b61066b611caf565b604051808273ffffffffffffffffffffffffffffffffffffffff16815260200191505060405180910390f35b6106cd600480360360408110156106ad57600080fd5b810190808035906020019092919080359060200190929190505050611cd5565b005b610711600480360360208110156106e557600080fd5b81019080803573ffffffffffffffffffffffffffffffffffffffff169060200190929190505050611eb5565b005b6000600680549050905090565b600160009054906101000a900473ffffffffffffffffffffffffffffffffffffffff1681565b6006818154811061075357fe5b90600052602060002090600402016000915090508060000160009054906101000a900473ffffffffffffffffffffffffffffffffffffffff16908060010154908060020154908060030154905084565b60085481565b600080600684815481106107b957fe5b9060005260206000209060040201905060006007600086815260200190815260200160002060008573ffffffffffffffffffffffffffffffffffffffff1673ffffffffffffffffffffffffffffffffffffffff168152602001908152602001600020905060008260030154905060008360000160009054906101000a900473ffffffffffffffffffffffffffffffffffffffff1673ffffffffffffffffffffffffffffffffffffffff166370a08231306040518263ffffffff1660e01b8152600401808273ffffffffffffffffffffffffffffffffffffffff16815260200191505060206040518083038186803b1580156108b357600080fd5b505afa1580156108c7573d6000803e3d6000fd5b505050506040513d60208110156108dd57600080fd5b81019080805190602001909291905050509050836002015443118015610904575060008114155b1561099f576000610919856002015443611bc6565b9050600061095c60085461094e8860010154610940600454876120a790919063ffffffff16565b6120a790919063ffffffff16565b61212d90919063ffffffff16565b905061099a61098b8461097d64e8d4a51000856120a790919063ffffffff16565b61212d90919063ffffffff16565b856121b690919063ffffffff16565b935050505b6109e383600101546109d564e8d4a510006109c78688600001546120a790919063ffffffff16565b61212d90919063ffffffff16565b61223e90919063ffffffff16565b94505050505092915050565b60035481565b6109fd6122c1565b73ffffffffffffffffffffffffffffffffffffffff16610a1b611b9d565b73ffffffffffffffffffffffffffffffffffffffff1614610aa4576040517f08c379a00000000000000000000000000000000000000000000000000000000081526004018080602001828103825260208152602001807f4f776e61626c653a2063616c6c6572206973206e6f7420746865206f776e657281525060200191505060405180910390fd5b8015610ab357610ab26117a0565b5b60006009544311610ac657600954610ac8565b435b9050610adf846008546121b690919063ffffffff16565b600881905550600660405180608001604052808573ffffffffffffffffffffffffffffffffffffffff1681526020018681526020018381526020016000815250908060018154018082558091505060019003906000526020600020906004020160009091909190915060008201518160000160006101000a81548173ffffffffffffffffffffffffffffffffffffffff021916908373ffffffffffffffffffffffffffffffffffffffff160217905550602082015181600101556040820151816002015560608201518160030155505050505050565b610bbd6122c1565b73ffffffffffffffffffffffffffffffffffffffff16610bdb611b9d565b73ffffffffffffffffffffffffffffffffffffffff1614610c64576040517f08c379a00000000000000000000000000000000000000000000000000000000081526004018080602001828103825260208152602001807f4f776e61626c653a2063616c6c6572206973206e6f7420746865206f776e657281525060200191505060405180910390fd5b80600560006101000a81548173ffffffffffffffffffffffffffffffffffffffff021916908373ffffffffffffffffffffffffffffffffffffffff16021790555050565b600060068381548110610cb757fe5b9060005260206000209060040201905060006007600085815260200190815260200160002060003373ffffffffffffffffffffffffffffffffffffffff1673ffffffffffffffffffffffffffffffffffffffff16815260200190815260200160002090508281600001541015610d95576040517f08c379a00000000000000000000000000000000000000000000000000000000081526004018080602001828103825260128152602001807f77697468647261773a206e6f7420676f6f64000000000000000000000000000081525060200191505060405180910390fd5b610d9e84611322565b6000610de88260010154610dda64e8d4a51000610dcc876003015487600001546120a790919063ffffffff16565b61212d90919063ffffffff16565b61223e90919063ffffffff16565b9050610df433826122c9565b610e0b84836000015461223e90919063ffffffff16565b8260000181905550610e4564e8d4a51000610e37856003015485600001546120a790919063ffffffff16565b61212d90919063ffffffff16565b8260010181905550610e9c33858560000160009054906101000a900473ffffffffffffffffffffffffffffffffffffffff1673ffffffffffffffffffffffffffffffffffffffff166125429092919063ffffffff16565b843373ffffffffffffffffffffffffffffffffffffffff167ff279e6a1f5e320cca91135676d9cb6e44ca8a08c0b88342bcdb1144f6511b568866040518082815260200191505060405180910390a35050505050565b600073ffffffffffffffffffffffffffffffffffffffff16600560009054906101000a900473ffffffffffffffffffffffffffffffffffffffff1673ffffffffffffffffffffffffffffffffffffffff161415610fb7576040517f08c379a00000000000000000000000000000000000000000000000000000000081526004018080602001828103825260148152602001807f6d6967726174653a206e6f206d69677261746f7200000000000000000000000081525060200191505060405180910390fd5b600060068281548110610fc657fe5b9060005260206000209060040201905060008160000160009054906101000a900473ffffffffffffffffffffffffffffffffffffffff16905060008173ffffffffffffffffffffffffffffffffffffffff166370a08231306040518263ffffffff1660e01b8152600401808273ffffffffffffffffffffffffffffffffffffffff16815260200191505060206040518083038186803b15801561106857600080fd5b505afa15801561107c573d6000803e3d6000fd5b505050506040513d602081101561109257600080fd5b810190808051906020019092919050505090506110f2600560009054906101000a900473ffffffffffffffffffffffffffffffffffffffff16828473ffffffffffffffffffffffffffffffffffffffff166125e49092919063ffffffff16565b6000600560009054906101000a900473ffffffffffffffffffffffffffffffffffffffff1673ffffffffffffffffffffffffffffffffffffffff1663ce5494bb846040518263ffffffff1660e01b8152600401808273ffffffffffffffffffffffffffffffffffffffff168152602001915050602060405180830381600087803b15801561117f57600080fd5b505af1158015611193573d6000803e3d6000fd5b505050506040513d60208110156111a957600080fd5b810190808051906020019092919050505090508073ffffffffffffffffffffffffffffffffffffffff166370a08231306040518263ffffffff1660e01b8152600401808273ffffffffffffffffffffffffffffffffffffffff16815260200191505060206040518083038186803b15801561122357600080fd5b505afa158015611237573d6000803e3d6000fd5b505050506040513d602081101561124d57600080fd5b810190808051906020019092919050505082146112d2576040517f08c379a000000000000000000000000000000000000000000000000000000000815260040180806020018281038252600c8152602001807f6d6967726174653a20626164000000000000000000000000000000000000000081525060200191505060405180910390fd5b808460000160006101000a81548173ffffffffffffffffffffffffffffffffffffffff021916908373ffffffffffffffffffffffffffffffffffffffff1602179055505050505050565b60095481565b60006006828154811061133157fe5b9060005260206000209060040201905080600201544311611352575061166b565b60008160000160009054906101000a900473ffffffffffffffffffffffffffffffffffffffff1673ffffffffffffffffffffffffffffffffffffffff166370a08231306040518263ffffffff1660e01b8152600401808273ffffffffffffffffffffffffffffffffffffffff16815260200191505060206040518083038186803b1580156113df57600080fd5b505afa1580156113f3573d6000803e3d6000fd5b505050506040513d602081101561140957600080fd5b81019080805190602001909291905050509050600081141561143557438260020181905550505061166b565b6000611445836002015443611bc6565b9050600061148860085461147a866001015461146c600454876120a790919063ffffffff16565b6120a790919063ffffffff16565b61212d90919063ffffffff16565b9050600160009054906101000a900473ffffffffffffffffffffffffffffffffffffffff1673ffffffffffffffffffffffffffffffffffffffff166340c10f19600260009054906101000a900473ffffffffffffffffffffffffffffffffffffffff166114ff600a8561212d90919063ffffffff16565b6040518363ffffffff1660e01b8152600401808373ffffffffffffffffffffffffffffffffffffffff16815260200182815260200192505050600060405180830381600087803b15801561155257600080fd5b505af1158015611566573d6000803e3d6000fd5b50505050600160009054906101000a900473ffffffffffffffffffffffffffffffffffffffff1673ffffffffffffffffffffffffffffffffffffffff166340c10f1930836040518363ffffffff1660e01b8152600401808373ffffffffffffffffffffffffffffffffffffffff16815260200182815260200192505050600060405180830381600087803b1580156115fd57600080fd5b505af1158015611611573d6000803e3d6000fd5b505050506116556116428461163464e8d4a51000856120a790919063ffffffff16565b61212d90919063ffffffff16565b85600301546121b690919063ffffffff16565b8460030181905550438460020181905550505050505b50565b60006006828154811061167d57fe5b9060005260206000209060040201905060006007600084815260200190815260200160002060003373ffffffffffffffffffffffffffffffffffffffff1673ffffffffffffffffffffffffffffffffffffffff16815260200190815260200160002090506117343382600001548460000160009054906101000a900473ffffffffffffffffffffffffffffffffffffffff1673ffffffffffffffffffffffffffffffffffffffff166125429092919063ffffffff16565b823373ffffffffffffffffffffffffffffffffffffffff167fbb757047c2b5f3974fe26b7c10f732e7bce710b0952a71082702781e62ae059583600001546040518082815260200191505060405180910390a36000816000018190555060008160010181905550505050565b6000600680549050905060005b818110156117c9576117be81611322565b8060010190506117ad565b5050565b6117d56122c1565b73ffffffffffffffffffffffffffffffffffffffff166117f3611b9d565b73ffffffffffffffffffffffffffffffffffffffff161461187c576040517f08c379a00000000000000000000000000000000000000000000000000000000081526004018080602001828103825260208152602001807f4f776e61626c653a2063616c6c6572206973206e6f7420746865206f776e657281525060200191505060405180910390fd5b801561188b5761188a6117a0565b5b6118d0826118c26006868154811061189f57fe5b90600052602060002090600402016001015460085461223e90919063ffffffff16565b6121b690919063ffffffff16565b60088190555081600684815481106118e457fe5b906000526020600020906004020160010181905550505050565b6119066122c1565b73ffffffffffffffffffffffffffffffffffffffff16611924611b9d565b73ffffffffffffffffffffffffffffffffffffffff16146119ad576040517f08c379a00000000000000000000000000000000000000000000000000000000081526004018080602001828103825260208152602001807f4f776e61626c653a2063616c6c6572206973206e6f7420746865206f776e657281525060200191505060405180910390fd5b600073ffffffffffffffffffffffffffffffffffffffff1660008054906101000a900473ffffffffffffffffffffffffffffffffffffffff1673ffffffffffffffffffffffffffffffffffffffff167f8be0079c531659141344cd1fd0a4f28419497f9722a3daafe3b4186f6b6457e060405160405180910390a360008060006101000a81548173ffffffffffffffffffffffffffffffffffffffff021916908373ffffffffffffffffffffffffffffffffffffffff160217905550565b600560009054906101000a900473ffffffffffffffffffffffffffffffffffffffff1681565b600a81565b600260009054906101000a900473ffffffffffffffffffffffffffffffffffffffff1673ffffffffffffffffffffffffffffffffffffffff163373ffffffffffffffffffffffffffffffffffffffff1614611b59576040517f08c379a00000000000000000000000000000000000000000000000000000000081526004018080602001828103825260098152602001807f6465763a207775743f000000000000000000000000000000000000000000000081525060200191505060405180910390fd5b80600260006101000a81548173ffffffffffffffffffffffffffffffffffffffff021916908373ffffffffffffffffffffffffffffffffffffffff16021790555050565b60008060009054906101000a900473ffffffffffffffffffffffffffffffffffffffff16905090565b60006003548211611bfe57611bf7600a611be9858561223e90919063ffffffff16565b6120a790919063ffffffff16565b9050611c72565b6003548310611c2157611c1a838361223e90919063ffffffff16565b9050611c72565b611c6f611c396003548461223e90919063ffffffff16565b611c61600a611c538760035461223e90919063ffffffff16565b6120a790919063ffffffff16565b6121b690919063ffffffff16565b90505b92915050565b6007602052816000526040600020602052806000526040600020600091509150508060000154908060010154905082565b60045481565b600260009054906101000a900473ffffffffffffffffffffffffffffffffffffffff1681565b600060068381548110611ce457fe5b9060005260206000209060040201905060006007600085815260200190815260200160002060003373ffffffffffffffffffffffffffffffffffffffff1673ffffffffffffffffffffffffffffffffffffffff1681526020019081526020016000209050611d5184611322565b600081600001541115611db6576000611da88260010154611d9a64e8d4a51000611d8c876003015487600001546120a790919063ffffffff16565b61212d90919063ffffffff16565b61223e90919063ffffffff16565b9050611db433826122c9565b505b611e073330858560000160009054906101000a900473ffffffffffffffffffffffffffffffffffffffff1673ffffffffffffffffffffffffffffffffffffffff166127a9909392919063ffffffff16565b611e1e8382600001546121b690919063ffffffff16565b8160000181905550611e5864e8d4a51000611e4a846003015484600001546120a790919063ffffffff16565b61212d90919063ffffffff16565b8160010181905550833373ffffffffffffffffffffffffffffffffffffffff167f90890809c654f11d6e72a28fa60149770a0d11ec6c92319d6ceb2bb0a4ea1a15856040518082815260200191505060405180910390a350505050565b611ebd6122c1565b73ffffffffffffffffffffffffffffffffffffffff16611edb611b9d565b73ffffffffffffffffffffffffffffffffffffffff1614611f64576040517f08c379a00000000000000000000000000000000000000000000000000000000081526004018080602001828103825260208152602001807f4f776e61626c653a2063616c6c6572206973206e6f7420746865206f776e657281525060200191505060405180910390fd5b600073ffffffffffffffffffffffffffffffffffffffff168173ffffffffffffffffffffffffffffffffffffffff161415611fea576040517f08c379a0000000000000000000000000000000000000000000000000000000008152600401808060200182810382526026815260200180612bfa6026913960400191505060405180910390fd5b8073ffffffffffffffffffffffffffffffffffffffff1660008054906101000a900473ffffffffffffffffffffffffffffffffffffffff1673ffffffffffffffffffffffffffffffffffffffff167f8be0079c531659141344cd1fd0a4f28419497f9722a3daafe3b4186f6b6457e060405160405180910390a3806000806101000a81548173ffffffffffffffffffffffffffffffffffffffff021916908373ffffffffffffffffffffffffffffffffffffffff16021790555050565b6000808314156120ba5760009050612127565b60008284029050828482816120cb57fe5b0414612122576040517f08c379a0000000000000000000000000000000000000000000000000000000008152600401808060200182810382526021815260200180612c466021913960400191505060405180910390fd5b809150505b92915050565b60008082116121a4576040517f08c379a000000000000000000000000000000000000000000000000000000000815260040180806020018281038252601a8152602001807f536166654d6174683a206469766973696f6e206279207a65726f00000000000081525060200191505060405180910390fd5b8183816121ad57fe5b04905092915050565b600080828401905083811015612234576040517f08c379a000000000000000000000000000000000000000000000000000000000815260040180806020018281038252601b8152602001807f536166654d6174683a206164646974696f6e206f766572666c6f77000000000081525060200191505060405180910390fd5b8091505092915050565b6000828211156122b6576040517f08c379a000000000000000000000000000000000000000000000000000000000815260040180806020018281038252601e8152602001807f536166654d6174683a207375627472616374696f6e206f766572666c6f77000081525060200191505060405180910390fd5b818303905092915050565b600033905090565b6000600160009054906101000a900473ffffffffffffffffffffffffffffffffffffffff1673ffffffffffffffffffffffffffffffffffffffff166370a08231306040518263ffffffff1660e01b8152600401808273ffffffffffffffffffffffffffffffffffffffff16815260200191505060206040518083038186803b15801561235457600080fd5b505afa158015612368573d6000803e3d6000fd5b505050506040513d602081101561237e57600080fd5b810190808051906020019092919050505090508082111561246d57600160009054906101000a900473ffffffffffffffffffffffffffffffffffffffff1673ffffffffffffffffffffffffffffffffffffffff1663a9059cbb84836040518363ffffffff1660e01b8152600401808373ffffffffffffffffffffffffffffffffffffffff16815260200182815260200192505050602060405180830381600087803b15801561242c57600080fd5b505af1158015612440573d6000803e3d6000fd5b505050506040513d602081101561245657600080fd5b81019080805190602001909291905050505061253d565b600160009054906101000a900473ffffffffffffffffffffffffffffffffffffffff1673ffffffffffffffffffffffffffffffffffffffff1663a9059cbb84846040518363ffffffff1660e01b8152600401808373ffffffffffffffffffffffffffffffffffffffff16815260200182815260200192505050602060405180830381600087803b15801561250057600080fd5b505af1158015612514573d6000803e3d6000fd5b505050506040513d602081101561252a57600080fd5b8101908080519060200190929190505050505b505050565b6125df8363a9059cbb60e01b8484604051602401808373ffffffffffffffffffffffffffffffffffffffff16815260200182815260200192505050604051602081830303815290604052907bffffffffffffffffffffffffffffffffffffffffffffffffffffffff19166020820180517bffffffffffffffffffffffffffffffffffffffffffffffffffffffff838183161783525050505061286a565b505050565b60008114806126b2575060008373ffffffffffffffffffffffffffffffffffffffff1663dd62ed3e30856040518363ffffffff1660e01b8152600401808373ffffffffffffffffffffffffffffffffffffffff1681526020018273ffffffffffffffffffffffffffffffffffffffff1681526020019250505060206040518083038186803b15801561267557600080fd5b505afa158015612689573d6000803e3d6000fd5b505050506040513d602081101561269f57600080fd5b8101908080519060200190929190505050145b612707576040517f08c379a0000000000000000000000000000000000000000000000000000000008152600401808060200182810382526036815260200180612c916036913960400191505060405180910390fd5b6127a48363095ea7b360e01b8484604051602401808373ffffffffffffffffffffffffffffffffffffffff16815260200182815260200192505050604051602081830303815290604052907bffffffffffffffffffffffffffffffffffffffffffffffffffffffff19166020820180517bffffffffffffffffffffffffffffffffffffffffffffffffffffffff838183161783525050505061286a565b505050565b612864846323b872dd60e01b858585604051602401808473ffffffffffffffffffffffffffffffffffffffff1681526020018373ffffffffffffffffffffffffffffffffffffffff1681526020018281526020019350505050604051602081830303815290604052907bffffffffffffffffffffffffffffffffffffffffffffffffffffffff19166020820180517bffffffffffffffffffffffffffffffffffffffffffffffffffffffff838183161783525050505061286a565b50505050565b60606128cc826040518060400160405280602081526020017f5361666545524332303a206c6f772d6c6576656c2063616c6c206661696c65648152508573ffffffffffffffffffffffffffffffffffffffff166129599092919063ffffffff16565b9050600081511115612954578080602001905160208110156128ed57600080fd5b8101908080519060200190929190505050612953576040517f08c379a000000000000000000000000000000000000000000000000000000000815260040180806020018281038252602a815260200180612c67602a913960400191505060405180910390fd5b5b505050565b60606129688484600085612971565b90509392505050565b6060824710156129cc576040517f08c379a0000000000000000000000000000000000000000000000000000000008152600401808060200182810382526026815260200180612c206026913960400191505060405180910390fd5b6129d585612b1a565b612a47576040517f08c379a000000000000000000000000000000000000000000000000000000000815260040180806020018281038252601d8152602001807f416464726573733a2063616c6c20746f206e6f6e2d636f6e747261637400000081525060200191505060405180910390fd5b600060608673ffffffffffffffffffffffffffffffffffffffff1685876040518082805190602001908083835b60208310612a975780518252602082019150602081019050602083039250612a74565b6001836020036101000a03801982511681845116808217855250505050505090500191505060006040518083038185875af1925050503d8060008114612af9576040519150601f19603f3d011682016040523d82523d6000602084013e612afe565b606091505b5091509150612b0e828286612b2d565b92505050949350505050565b600080823b905060008111915050919050565b60608315612b3d57829050612bf2565b600083511115612b505782518084602001fd5b816040517f08c379a00000000000000000000000000000000000000000000000000000000081526004018080602001828103825283818151815260200191508051906020019080838360005b83811015612bb7578082015181840152602081019050612b9c565b50505050905090810190601f168015612be45780820380516001836020036101000a031916815260200191505b509250505060405180910390fd5b939250505056fe4f776e61626c653a206e6577206f776e657220697320746865207a65726f2061646472657373416464726573733a20696e73756666696369656e742062616c616e636520666f722063616c6c536166654d6174683a206d756c7469706c69636174696f6e206f766572666c6f775361666545524332303a204552433230206f7065726174696f6e20646964206e6f7420737563636565645361666545524332303a20617070726f76652066726f6d206e6f6e2d7a65726f20746f206e6f6e2d7a65726f20616c6c6f77616e6365a2646970667358221220b445fdc3bb502d459440ca743442e709926913738b7f92046487a780ed046f1f64736f6c634300060c0033",
  "devdoc": {
    "kind": "dev",
    "methods": {
      "owner()": {
        "details": "Returns the address of the current owner."
      },
      "renounceOwnership()": {
        "details": "Leaves the contract without owner. It will not be possible to call `onlyOwner` functions anymore. Can only be called by the current owner. NOTE: Renouncing ownership will leave the contract without an owner, thereby removing any functionality that is only available to the owner."
      },
      "transferOwnership(address)": {
        "details": "Transfers ownership of the contract to a new account (`newOwner`). Can only be called by the current owner."
      }
    },
    "version": 1
  },
  "userdoc": {
    "kind": "user",
    "methods": {},
    "version": 1
  },
  "storageLayout": {
    "storage": [
      {
        "astId": 7,
        "contract": "contracts/MasterChef.sol:MasterChef",
        "label": "_owner",
        "offset": 0,
        "slot": "0",
        "type": "t_address"
      },
      {
        "astId": 2109,
        "contract": "contracts/MasterChef.sol:MasterChef",
        "label": "sushi",
        "offset": 0,
        "slot": "1",
        "type": "t_contract(SushiToken)3612"
      },
      {
        "astId": 2111,
        "contract": "contracts/MasterChef.sol:MasterChef",
        "label": "devaddr",
        "offset": 0,
        "slot": "2",
        "type": "t_address"
      },
      {
        "astId": 2113,
        "contract": "contracts/MasterChef.sol:MasterChef",
        "label": "bonusEndBlock",
        "offset": 0,
        "slot": "3",
        "type": "t_uint256"
      },
      {
        "astId": 2115,
        "contract": "contracts/MasterChef.sol:MasterChef",
        "label": "sushiPerBlock",
        "offset": 0,
        "slot": "4",
        "type": "t_uint256"
      },
      {
        "astId": 2120,
        "contract": "contracts/MasterChef.sol:MasterChef",
        "label": "migrator",
        "offset": 0,
        "slot": "5",
        "type": "t_contract(IMigratorChef)2085"
      },
      {
        "astId": 2123,
        "contract": "contracts/MasterChef.sol:MasterChef",
        "label": "poolInfo",
        "offset": 0,
        "slot": "6",
        "type": "t_array(t_struct(PoolInfo)2107_storage)dyn_storage"
      },
      {
        "astId": 2129,
        "contract": "contracts/MasterChef.sol:MasterChef",
        "label": "userInfo",
        "offset": 0,
        "slot": "7",
        "type": "t_mapping(t_uint256,t_mapping(t_address,t_struct(UserInfo)2098_storage))"
      },
      {
        "astId": 2132,
        "contract": "contracts/MasterChef.sol:MasterChef",
        "label": "totalAllocPoint",
        "offset": 0,
        "slot": "8",
        "type": "t_uint256"
      },
      {
        "astId": 2134,
        "contract": "contracts/MasterChef.sol:MasterChef",
        "label": "startBlock",
        "offset": 0,
        "slot": "9",
        "type": "t_uint256"
      }
    ],
    "types": {
      "t_address": {
        "encoding": "inplace",
        "label": "address",
        "numberOfBytes": "20"
      },
      "t_array(t_struct(PoolInfo)2107_storage)dyn_storage": {
        "base": "t_struct(PoolInfo)2107_storage",
        "encoding": "dynamic_array",
        "label": "struct MasterChef.PoolInfo[]",
        "numberOfBytes": "32"
      },
      "t_contract(IERC20)1045": {
        "encoding": "inplace",
        "label": "contract IERC20",
        "numberOfBytes": "20"
      },
      "t_contract(IMigratorChef)2085": {
        "encoding": "inplace",
        "label": "contract IMigratorChef",
        "numberOfBytes": "20"
      },
      "t_contract(SushiToken)3612": {
        "encoding": "inplace",
        "label": "contract SushiToken",
        "numberOfBytes": "20"
      },
      "t_mapping(t_address,t_struct(UserInfo)2098_storage)": {
        "encoding": "mapping",
        "key": "t_address",
        "label": "mapping(address => struct MasterChef.UserInfo)",
        "numberOfBytes": "32",
        "value": "t_struct(UserInfo)2098_storage"
      },
      "t_mapping(t_uint256,t_mapping(t_address,t_struct(UserInfo)2098_storage))": {
        "encoding": "mapping",
        "key": "t_uint256",
        "label": "mapping(uint256 => mapping(address => struct MasterChef.UserInfo))",
        "numberOfBytes": "32",
        "value": "t_mapping(t_address,t_struct(UserInfo)2098_storage)"
      },
      "t_struct(PoolInfo)2107_storage": {
        "encoding": "inplace",
        "label": "struct MasterChef.PoolInfo",
        "members": [
          {
            "astId": 2100,
            "contract": "contracts/MasterChef.sol:MasterChef",
            "label": "lpToken",
            "offset": 0,
            "slot": "0",
            "type": "t_contract(IERC20)1045"
          },
          {
            "astId": 2102,
            "contract": "contracts/MasterChef.sol:MasterChef",
            "label": "allocPoint",
            "offset": 0,
            "slot": "1",
            "type": "t_uint256"
          },
          {
            "astId": 2104,
            "contract": "contracts/MasterChef.sol:MasterChef",
            "label": "lastRewardBlock",
            "offset": 0,
            "slot": "2",
            "type": "t_uint256"
          },
          {
            "astId": 2106,
            "contract": "contracts/MasterChef.sol:MasterChef",
            "label": "accSushiPerShare",
            "offset": 0,
            "slot": "3",
            "type": "t_uint256"
          }
        ],
        "numberOfBytes": "128"
      },
      "t_struct(UserInfo)2098_storage": {
        "encoding": "inplace",
        "label": "struct MasterChef.UserInfo",
        "members": [
          {
            "astId": 2095,
            "contract": "contracts/MasterChef.sol:MasterChef",
            "label": "amount",
            "offset": 0,
            "slot": "0",
            "type": "t_uint256"
          },
          {
            "astId": 2097,
            "contract": "contracts/MasterChef.sol:MasterChef",
            "label": "rewardDebt",
            "offset": 0,
            "slot": "1",
            "type": "t_uint256"
          }
        ],
        "numberOfBytes": "64"
      },
      "t_uint256": {
        "encoding": "inplace",
        "label": "uint256",
        "numberOfBytes": "32"
      }
    }
  }
}