{
  "address": "0xb30483Ce9E47FdE0aff773e8A1307D953e704B95",
  "abi": [
    {
      "inputs": [
        {
          "internalType": "contract ILendingPoolAddressesProvider",
          "name": "_addressProvider",
          "type": "address"
        }
      ],
      "stateMutability": "nonpayable",
      "type": "constructor"
    },
    {
      "anonymous": false,
      "inputs": [
        {
          "indexed": false,
          "internalType": "string",
          "name": "message",
          "type": "string"
        },
        {
          "indexed": false,
          "internalType": "uint256",
          "name": "val",
          "type": "uint256"
        }
      ],
      "name": "Log",
      "type": "event"
    },
    {
      "inputs": [],
      "name": "ADDRESSES_PROVIDER",
      "outputs": [
        {
          "internalType": "contract ILendingPoolAddressesProvider",
          "name": "",
          "type": "address"
        }
      ],
      "stateMutability": "view",
      "type": "function"
    },
    {
      "inputs": [],
      "name": "LENDING_POOL",
      "outputs": [
        {
          "internalType": "contract ILendingPool",
          "name": "",
          "type": "address"
        }
      ],
      "stateMutability": "view",
      "type": "function"
    },
    {
      "inputs": [
        {
          "internalType": "address[]",
          "name": "assets",
          "type": "address[]"
        },
        {
          "internalType": "uint256[]",
          "name": "amounts",
          "type": "uint256[]"
        },
        {
          "internalType": "uint256[]",
          "name": "premiums",
          "type": "uint256[]"
        },
        {
          "internalType": "address",
          "name": "initiator",
          "type": "address"
        },
        {
          "internalType": "bytes",
          "name": "params",
          "type": "bytes"
        }
      ],
      "name": "executeOperation",
      "outputs": [
        {
          "internalType": "bool",
          "name": "",
          "type": "bool"
        }
      ],
      "stateMutability": "nonpayable",
      "type": "function"
    },
    {
      "inputs": [
        {
          "internalType": "address",
          "name": "asset",
          "type": "address"
        },
        {
          "internalType": "uint256",
          "name": "amount",
          "type": "uint256"
        }
      ],
      "name": "testFlashLoan",
      "outputs": [],
      "stateMutability": "nonpayable",
      "type": "function"
    }
  ],
  "transactionHash": "0xe70960bce4b24d342b2fb4b4580ac3ecc4a39c32d2f9c17cbc6a84d6b0f5b248",
  "args": [
    "0x88757f2f99175387ab4c6a4b3067c77a695b0349"
  ],
  "numDeployments": 1,
  "solcInputHash": "6ec91d34e83eaf400302f50e4c1327a1",
  "bytecode": "0x60c06040523480156200001157600080fd5b506040516200166238038062001662833981810160405281019062000037919062000189565b808073ffffffffffffffffffffffffffffffffffffffff1660808173ffffffffffffffffffffffffffffffffffffffff1660601b815250508073ffffffffffffffffffffffffffffffffffffffff16630261bf8b6040518163ffffffff1660e01b815260040160206040518083038186803b158015620000b657600080fd5b505afa158015620000cb573d6000803e3d6000fd5b505050506040513d601f19601f82011682018060405250810190620000f191906200015d565b73ffffffffffffffffffffffffffffffffffffffff1660a08173ffffffffffffffffffffffffffffffffffffffff1660601b81525050505062000231565b6000815190506200014081620001fd565b92915050565b600081519050620001578162000217565b92915050565b6000602082840312156200017057600080fd5b600062000180848285016200012f565b91505092915050565b6000602082840312156200019c57600080fd5b6000620001ac8482850162000146565b91505092915050565b6000620001c282620001dd565b9050919050565b6000620001d682620001b5565b9050919050565b600073ffffffffffffffffffffffffffffffffffffffff82169050919050565b6200020881620001b5565b81146200021457600080fd5b50565b6200022281620001c9565b81146200022e57600080fd5b50565b60805160601c60a05160601c6113f86200026a600039600081816104540152818161050d01526108bc0152600060db01526113f86000f3fe608060405234801561001057600080fd5b506004361061004c5760003560e01c80630542975c14610051578063920f5c841461006f578063b4dcfc771461009f578063d6b348ee146100bd575b600080fd5b6100596100d9565b604051610066919061100f565b60405180910390f35b61008960048036038101906100849190610bcf565b6100fd565b6040516100969190610ff4565b60405180910390f35b6100a761050b565b6040516100b4919061102a565b60405180910390f35b6100d760048036038101906100d29190610b93565b61052f565b005b7f000000000000000000000000000000000000000000000000000000000000000081565b600080600090505b8a8a90508110156104f95760008b8b8381811061014b577f4e487b7100000000000000000000000000000000000000000000000000000000600052603260045260246000fd5b90506020020160208101906101609190610b6a565b73ffffffffffffffffffffffffffffffffffffffff166370a08231306040518263ffffffff1660e01b81526004016101989190610f25565b60206040518083038186803b1580156101b057600080fd5b505afa1580156101c4573d6000803e3d6000fd5b505050506040513d601f19601f820116820180604052508101906101e89190610ce0565b90507fdd970dd9b5bfe707922155b058a407655cb18288b807e2216442bca8ad83d6b58a8a84818110610244577f4e487b7100000000000000000000000000000000000000000000000000000000600052603260045260246000fd5b905060200201356040516102589190611075565b60405180910390a17fdd970dd9b5bfe707922155b058a407655cb18288b807e2216442bca8ad83d6b58888848181106102ba577f4e487b7100000000000000000000000000000000000000000000000000000000600052603260045260246000fd5b905060200201356040516102ce91906110a3565b60405180910390a16000610369898985818110610314577f4e487b7100000000000000000000000000000000000000000000000000000000600052603260045260246000fd5b905060200201358c8c86818110610354577f4e487b7100000000000000000000000000000000000000000000000000000000600052603260045260246000fd5b9050602002013561095d90919063ffffffff16565b90506103aa6040518060400160405280600981526020017f62616c616e63653e3e000000000000000000000000000000000000000000000081525083610973565b6103e96040518060400160405280600d81526020017f616d6f756e744f77696e673e3e0000000000000000000000000000000000000081525082610973565b8c8c84818110610422577f4e487b7100000000000000000000000000000000000000000000000000000000600052603260045260246000fd5b90506020020160208101906104379190610b6a565b73ffffffffffffffffffffffffffffffffffffffff1663095ea7b37f0000000000000000000000000000000000000000000000000000000000000000836040518363ffffffff1660e01b8152600401610491929190610fcb565b602060405180830381600087803b1580156104ab57600080fd5b505af11580156104bf573d6000803e3d6000fd5b505050506040513d601f19601f820116820180604052508101906104e39190610cb7565b50505080806104f1906112a2565b915050610105565b50600190509998505050505050505050565b7f000000000000000000000000000000000000000000000000000000000000000081565b60008273ffffffffffffffffffffffffffffffffffffffff166370a08231306040518263ffffffff1660e01b815260040161056a9190610f25565b60206040518083038186803b15801561058257600080fd5b505afa158015610596573d6000803e3d6000fd5b505050506040513d601f19601f820116820180604052508101906105ba9190610ce0565b90506105fb6040518060400160405280600981526020017f62616c616e63653e3e000000000000000000000000000000000000000000000081525082610973565b61063a6040518060400160405280600e81526020017f626f72726f77416d6f756e743e3e00000000000000000000000000000000000081525083610973565b60003090506000600167ffffffffffffffff811115610682577f4e487b7100000000000000000000000000000000000000000000000000000000600052604160045260246000fd5b6040519080825280602002602001820160405280156106b05781602001602082028036833780820191505090505b50905084816000815181106106ee577f4e487b7100000000000000000000000000000000000000000000000000000000600052603260045260246000fd5b602002602001019073ffffffffffffffffffffffffffffffffffffffff16908173ffffffffffffffffffffffffffffffffffffffff16815250506000600167ffffffffffffffff81111561076b577f4e487b7100000000000000000000000000000000000000000000000000000000600052604160045260246000fd5b6040519080825280602002602001820160405280156107995781602001602082028036833780820191505090505b50905084816000815181106107d7577f4e487b7100000000000000000000000000000000000000000000000000000000600052603260045260246000fd5b6020026020010181815250506000600167ffffffffffffffff811115610826577f4e487b7100000000000000000000000000000000000000000000000000000000600052604160045260246000fd5b6040519080825280602002602001820160405280156108545781602001602082028036833780820191505090505b509050600081600081518110610893577f4e487b7100000000000000000000000000000000000000000000000000000000600052603260045260246000fd5b6020026020010181815250506000309050600060405180602001604052806000815250905060007f000000000000000000000000000000000000000000000000000000000000000073ffffffffffffffffffffffffffffffffffffffff1663ab9c4b5d888888888888886040518863ffffffff1660e01b815260040161091f9796959493929190610f40565b600060405180830381600087803b15801561093957600080fd5b505af115801561094d573d6000803e3d6000fd5b5050505050505050505050505050565b6000818361096b919061117b565b905092915050565b610a0b8282604051602401610989929190611045565b6040516020818303038152906040527f9710a9d0000000000000000000000000000000000000000000000000000000007bffffffffffffffffffffffffffffffffffffffffffffffffffffffff19166020820180517bffffffffffffffffffffffffffffffffffffffffffffffffffffffff8381831617835250505050610a0f565b5050565b60008151905060006a636f6e736f6c652e6c6f679050602083016000808483855afa5050505050565b600081359050610a478161137d565b92915050565b60008083601f840112610a5f57600080fd5b8235905067ffffffffffffffff811115610a7857600080fd5b602083019150836020820283011115610a9057600080fd5b9250929050565b60008083601f840112610aa957600080fd5b8235905067ffffffffffffffff811115610ac257600080fd5b602083019150836020820283011115610ada57600080fd5b9250929050565b600081519050610af081611394565b92915050565b60008083601f840112610b0857600080fd5b8235905067ffffffffffffffff811115610b2157600080fd5b602083019150836001820283011115610b3957600080fd5b9250929050565b600081359050610b4f816113ab565b92915050565b600081519050610b64816113ab565b92915050565b600060208284031215610b7c57600080fd5b6000610b8a84828501610a38565b91505092915050565b60008060408385031215610ba657600080fd5b6000610bb485828601610a38565b9250506020610bc585828601610b40565b9150509250929050565b600080600080600080600080600060a08a8c031215610bed57600080fd5b60008a013567ffffffffffffffff811115610c0757600080fd5b610c138c828d01610a4d565b995099505060208a013567ffffffffffffffff811115610c3257600080fd5b610c3e8c828d01610a97565b975097505060408a013567ffffffffffffffff811115610c5d57600080fd5b610c698c828d01610a97565b95509550506060610c7c8c828d01610a38565b93505060808a013567ffffffffffffffff811115610c9957600080fd5b610ca58c828d01610af6565b92509250509295985092959850929598565b600060208284031215610cc957600080fd5b6000610cd784828501610ae1565b91505092915050565b600060208284031215610cf257600080fd5b6000610d0084828501610b55565b91505092915050565b6000610d158383610d39565b60208301905092915050565b6000610d2d8383610f07565b60208301905092915050565b610d42816111d1565b82525050565b610d51816111d1565b82525050565b6000610d62826110f1565b610d6c8185611137565b9350610d77836110d1565b8060005b83811015610da8578151610d8f8882610d09565b9750610d9a8361111d565b925050600181019050610d7b565b5085935050505092915050565b6000610dc0826110fc565b610dca8185611148565b9350610dd5836110e1565b8060005b83811015610e06578151610ded8882610d21565b9750610df88361112a565b925050600181019050610dd9565b5085935050505092915050565b610e1c816111e3565b82525050565b6000610e2d82611107565b610e378185611159565b9350610e4781856020860161126f565b610e508161131a565b840191505092915050565b610e6481611227565b82525050565b610e738161124b565b82525050565b6000610e8482611112565b610e8e818561116a565b9350610e9e81856020860161126f565b610ea78161131a565b840191505092915050565b6000610ebf60088361116a565b9150610eca8261132b565b602082019050919050565b6000610ee260038361116a565b9150610eed82611354565b602082019050919050565b610f01816111ef565b82525050565b610f108161121d565b82525050565b610f1f8161121d565b82525050565b6000602082019050610f3a6000830184610d48565b92915050565b600060e082019050610f55600083018a610d48565b8181036020830152610f678189610d57565b90508181036040830152610f7b8188610db5565b90508181036060830152610f8f8187610db5565b9050610f9e6080830186610d48565b81810360a0830152610fb08185610e22565b9050610fbf60c0830184610ef8565b98975050505050505050565b6000604082019050610fe06000830185610d48565b610fed6020830184610f16565b9392505050565b60006020820190506110096000830184610e13565b92915050565b60006020820190506110246000830184610e5b565b92915050565b600060208201905061103f6000830184610e6a565b92915050565b6000604082019050818103600083015261105f8185610e79565b905061106e6020830184610f16565b9392505050565b6000604082019050818103600083015261108e81610eb2565b905061109d6020830184610f16565b92915050565b600060408201905081810360008301526110bc81610ed5565b90506110cb6020830184610f16565b92915050565b6000819050602082019050919050565b6000819050602082019050919050565b600081519050919050565b600081519050919050565b600081519050919050565b600081519050919050565b6000602082019050919050565b6000602082019050919050565b600082825260208201905092915050565b600082825260208201905092915050565b600082825260208201905092915050565b600082825260208201905092915050565b60006111868261121d565b91506111918361121d565b9250827fffffffffffffffffffffffffffffffffffffffffffffffffffffffffffffffff038211156111c6576111c56112eb565b5b828201905092915050565b60006111dc826111fd565b9050919050565b60008115159050919050565b600061ffff82169050919050565b600073ffffffffffffffffffffffffffffffffffffffff82169050919050565b6000819050919050565b600061123282611239565b9050919050565b6000611244826111fd565b9050919050565b60006112568261125d565b9050919050565b6000611268826111fd565b9050919050565b60005b8381101561128d578082015181840152602081019050611272565b8381111561129c576000848401525b50505050565b60006112ad8261121d565b91507fffffffffffffffffffffffffffffffffffffffffffffffffffffffffffffffff8214156112e0576112df6112eb565b5b600182019050919050565b7f4e487b7100000000000000000000000000000000000000000000000000000000600052601160045260246000fd5b6000601f19601f8301169050919050565b7f626f72726f776564000000000000000000000000000000000000000000000000600082015250565b7f6665650000000000000000000000000000000000000000000000000000000000600082015250565b611386816111d1565b811461139157600080fd5b50565b61139d816111e3565b81146113a857600080fd5b50565b6113b48161121d565b81146113bf57600080fd5b5056fea26469706673582212208bda62189d704a4f7961c6672a4d64bf9894d76f168c81b9b36f7dbd96f73a6764736f6c63430008040033",
  "devdoc": {
    "kind": "dev",
    "methods": {},
    "version": 1
  },
  "userdoc": {
    "kind": "user",
    "methods": {},
    "version": 1
  },
  "storageLayout": {
    "storage": [],
    "types": null
  }
}