{
  "address": "0x92EE09045EaeAaD1942dC16ECFbec23422ca6D51",
  "abi": [
    {
      "inputs": [
        {
          "internalType": "address",
          "name": "_factory",
          "type": "address"
        },
        {
          "internalType": "address",
          "name": "_wETH",
          "type": "address"
        }
      ],
      "stateMutability": "nonpayable",
      "type": "constructor"
    },
    {
      "anonymous": false,
      "inputs": [
        {
          "indexed": false,
          "internalType": "string",
          "name": "message",
          "type": "string"
        },
        {
          "indexed": false,
          "internalType": "uint256",
          "name": "val",
          "type": "uint256"
        }
      ],
      "name": "Log",
      "type": "event"
    },
    {
      "inputs": [],
      "name": "swapRouter",
      "outputs": [
        {
          "internalType": "contract ISwapRouter",
          "name": "",
          "type": "address"
        }
      ],
      "stateMutability": "view",
      "type": "function"
    },
    {
      "inputs": [
        {
          "internalType": "address",
          "name": "_tokenB",
          "type": "address"
        },
        {
          "internalType": "address",
          "name": "_tokenA",
          "type": "address"
        },
        {
          "internalType": "uint256",
          "name": "_amount",
          "type": "uint256"
        }
      ],
      "name": "testFlashSwap",
      "outputs": [],
      "stateMutability": "nonpayable",
      "type": "function"
    },
    {
      "inputs": [
        {
          "internalType": "address",
          "name": "_sender",
          "type": "address"
        },
        {
          "internalType": "uint256",
          "name": "_amount0",
          "type": "uint256"
        },
        {
          "internalType": "uint256",
          "name": "_amount1",
          "type": "uint256"
        },
        {
          "internalType": "bytes",
          "name": "_data",
          "type": "bytes"
        }
      ],
      "name": "uniswapV2Call",
      "outputs": [],
      "stateMutability": "nonpayable",
      "type": "function"
    },
    {
      "stateMutability": "payable",
      "type": "receive"
    }
  ],
  "transactionHash": "0xbf66feba2ac0094509491885d44d4d8dddb21daed4b2f1b41c0a9d94155c1479",
  "args": [
    "0x5C69bEe701ef814a2B6a3EDD4B1652CB9cc5aA6f",
    "0xc778417E063141139Fce010982780140Aa0cD5Ab"
  ],
  "numDeployments": 1,
  "solcInputHash": "ec29081c29a667319c727d7cd8d0713d",
  "bytecode": "0x60a06040527fffffffffffffffffffffffffffffffffffffffffffffffffffffffffffffffff60025573e592427a0aece92de3edee1f18e0157c05861564600360006101000a81548173ffffffffffffffffffffffffffffffffffffffff021916908373ffffffffffffffffffffffffffffffffffffffff1602179055503480156200008a57600080fd5b506040516200188c3803806200188c8339818101604052810190620000b09190620001a9565b816000806101000a81548173ffffffffffffffffffffffffffffffffffffffff021916908373ffffffffffffffffffffffffffffffffffffffff16021790555080600160006101000a81548173ffffffffffffffffffffffffffffffffffffffff021916908373ffffffffffffffffffffffffffffffffffffffff160217905550600360009054906101000a900473ffffffffffffffffffffffffffffffffffffffff1673ffffffffffffffffffffffffffffffffffffffff1660808173ffffffffffffffffffffffffffffffffffffffff1660601b81525050505062000238565b600081519050620001a3816200021e565b92915050565b60008060408385031215620001bd57600080fd5b6000620001cd8582860162000192565b9250506020620001e08582860162000192565b9150509250929050565b6000620001f782620001fe565b9050919050565b600073ffffffffffffffffffffffffffffffffffffffff82169050919050565b6200022981620001ea565b81146200023557600080fd5b50565b60805160601c611635620002576000396000610be901526116356000f3fe6080604052600436106100385760003560e01c806310d1e85c14610044578063a39992d41461006d578063c31c9c07146100965761003f565b3661003f57005b600080fd5b34801561005057600080fd5b5061006b60048036038101906100669190610f94565b6100c1565b005b34801561007957600080fd5b50610094600480360381019061008f9190610f45565b610811565b005b3480156100a257600080fd5b506100ab610be7565b6040516100b891906111ef565b60405180910390f35b60003373ffffffffffffffffffffffffffffffffffffffff16630dfe16816040518163ffffffff1660e01b815260040160206040518083038186803b15801561010957600080fd5b505afa15801561011d573d6000803e3d6000fd5b505050506040513d601f19601f820116820180604052508101906101419190610ecd565b905060003373ffffffffffffffffffffffffffffffffffffffff1663d21220a76040518163ffffffff1660e01b815260040160206040518083038186803b15801561018b57600080fd5b505afa15801561019f573d6000803e3d6000fd5b505050506040513d601f19601f820116820180604052508101906101c39190610ecd565b905060008060009054906101000a900473ffffffffffffffffffffffffffffffffffffffff1673ffffffffffffffffffffffffffffffffffffffff1663e6a4390584846040518363ffffffff1660e01b8152600401610223929190611166565b60206040518083038186803b15801561023b57600080fd5b505afa15801561024f573d6000803e3d6000fd5b505050506040513d601f19601f820116820180604052508101906102739190610ecd565b90508073ffffffffffffffffffffffffffffffffffffffff163373ffffffffffffffffffffffffffffffffffffffff16146102e3576040517f08c379a00000000000000000000000000000000000000000000000000000000081526004016102da9061128c565b60405180910390fd5b3073ffffffffffffffffffffffffffffffffffffffff168873ffffffffffffffffffffffffffffffffffffffff1614610351576040517f08c379a0000000000000000000000000000000000000000000000000000000008152600401610348906112ac565b60405180910390fd5b600080600087878101906103659190610ef6565b9250925092506103aa6040518060400160405280600681526020017f616d6f756e74000000000000000000000000000000000000000000000000000081525082610c0b565b6103e96040518060400160405280600781526020017f616d6f756e7430000000000000000000000000000000000000000000000000008152508b610c0b565b6104286040518060400160405280600781526020017f616d6f756e7431000000000000000000000000000000000000000000000000008152508a610c0b565b60008373ffffffffffffffffffffffffffffffffffffffff166370a08231306040518263ffffffff1660e01b8152600401610463919061114b565b60206040518083038186803b15801561047b57600080fd5b505afa15801561048f573d6000803e3d6000fd5b505050506040513d601f19601f820116820180604052508101906104b3919061103d565b905060008373ffffffffffffffffffffffffffffffffffffffff166370a08231306040518263ffffffff1660e01b81526004016104f0919061114b565b60206040518083038186803b15801561050857600080fd5b505afa15801561051c573d6000803e3d6000fd5b505050506040513d601f19601f82011682018060405250810190610540919061103d565b90506105806040518060400160405280600981526020017f3d3d64656275673d3d0000000000000000000000000000000000000000000000815250610ca7565b6105bf6040518060400160405280600681526020017f746f6b656e42000000000000000000000000000000000000000000000000000081525086610d40565b6105fe6040518060400160405280600681526020017f746f6b656e41000000000000000000000000000000000000000000000000000081525085610d40565b61063d6040518060400160405280600681526020017f61746f6b656e000000000000000000000000000000000000000000000000000081525082610c0b565b61067c6040518060400160405280600681526020017f62746f6b656e000000000000000000000000000000000000000000000000000081525083610c0b565b6106ba6040518060400160405280600481526020017f3d3d3d3d00000000000000000000000000000000000000000000000000000000815250610ca7565b600060016103e56003866106ce91906113d7565b6106d891906113a6565b6106e29190611350565b9050600081856106f29190611350565b90506107336040518060400160405280600381526020017f666565000000000000000000000000000000000000000000000000000000000081525083610c0b565b6107726040518060400160405280600f81526020017f616d6f756e7420746f207265706179000000000000000000000000000000000081525082610c0b565b8673ffffffffffffffffffffffffffffffffffffffff1663a9059cbb89836040518363ffffffff1660e01b81526004016107ad9291906111c6565b602060405180830381600087803b1580156107c757600080fd5b505af11580156107db573d6000803e3d6000fd5b505050506040513d601f19601f820116820180604052508101906107ff9190611014565b50505050505050505050505050505050565b60008060009054906101000a900473ffffffffffffffffffffffffffffffffffffffff1673ffffffffffffffffffffffffffffffffffffffff1663e6a4390585856040518363ffffffff1660e01b815260040161086f929190611166565b60206040518083038186803b15801561088757600080fd5b505afa15801561089b573d6000803e3d6000fd5b505050506040513d601f19601f820116820180604052508101906108bf9190610ecd565b9050600073ffffffffffffffffffffffffffffffffffffffff168173ffffffffffffffffffffffffffffffffffffffff161415610931576040517f08c379a00000000000000000000000000000000000000000000000000000000081526004016109289061128c565b60405180910390fd5b60008173ffffffffffffffffffffffffffffffffffffffff16630dfe16816040518163ffffffff1660e01b815260040160206040518083038186803b15801561097957600080fd5b505afa15801561098d573d6000803e3d6000fd5b505050506040513d601f19601f820116820180604052508101906109b19190610ecd565b905060008273ffffffffffffffffffffffffffffffffffffffff1663d21220a76040518163ffffffff1660e01b815260040160206040518083038186803b1580156109fb57600080fd5b505afa158015610a0f573d6000803e3d6000fd5b505050506040513d601f19601f82011682018060405250810190610a339190610ecd565b905060008273ffffffffffffffffffffffffffffffffffffffff168773ffffffffffffffffffffffffffffffffffffffff1614610a71576000610a73565b845b905060008273ffffffffffffffffffffffffffffffffffffffff168873ffffffffffffffffffffffffffffffffffffffff1614610ab1576000610ab3565b855b90506000888888604051602001610acc9392919061118f565b60405160208183030381529060405290508873ffffffffffffffffffffffffffffffffffffffff1663095ea7b387896040518363ffffffff1660e01b8152600401610b189291906111c6565b602060405180830381600087803b158015610b3257600080fd5b505af1158015610b46573d6000803e3d6000fd5b505050506040513d601f19601f82011682018060405250810190610b6a9190611014565b508573ffffffffffffffffffffffffffffffffffffffff1663022c0d9f848430856040518563ffffffff1660e01b8152600401610baa94939291906112cc565b600060405180830381600087803b158015610bc457600080fd5b505af1158015610bd8573d6000803e3d6000fd5b50505050505050505050505050565b7f000000000000000000000000000000000000000000000000000000000000000081565b610ca38282604051602401610c2192919061125c565b6040516020818303038152906040527f9710a9d0000000000000000000000000000000000000000000000000000000007bffffffffffffffffffffffffffffffffffffffffffffffffffffffff19166020820180517bffffffffffffffffffffffffffffffffffffffffffffffffffffffff8381831617835250505050610ddc565b5050565b610d3d81604051602401610cbb919061120a565b6040516020818303038152906040527f41304fac000000000000000000000000000000000000000000000000000000007bffffffffffffffffffffffffffffffffffffffffffffffffffffffff19166020820180517bffffffffffffffffffffffffffffffffffffffffffffffffffffffff8381831617835250505050610ddc565b50565b610dd88282604051602401610d5692919061122c565b6040516020818303038152906040527f319af333000000000000000000000000000000000000000000000000000000007bffffffffffffffffffffffffffffffffffffffffffffffffffffffff19166020820180517bffffffffffffffffffffffffffffffffffffffffffffffffffffffff8381831617835250505050610ddc565b5050565b60008151905060006a636f6e736f6c652e6c6f679050602083016000808483855afa5050505050565b600081359050610e14816115a3565b92915050565b600081519050610e29816115a3565b92915050565b600081359050610e3e816115ba565b92915050565b600081519050610e53816115d1565b92915050565b60008083601f840112610e6b57600080fd5b8235905067ffffffffffffffff811115610e8457600080fd5b602083019150836001820283011115610e9c57600080fd5b9250929050565b600081359050610eb2816115e8565b92915050565b600081519050610ec7816115e8565b92915050565b600060208284031215610edf57600080fd5b6000610eed84828501610e1a565b91505092915050565b600080600060608486031215610f0b57600080fd5b6000610f1986828701610e2f565b9350506020610f2a86828701610e2f565b9250506040610f3b86828701610ea3565b9150509250925092565b600080600060608486031215610f5a57600080fd5b6000610f6886828701610e05565b9350506020610f7986828701610e05565b9250506040610f8a86828701610ea3565b9150509250925092565b600080600080600060808688031215610fac57600080fd5b6000610fba88828901610e05565b9550506020610fcb88828901610ea3565b9450506040610fdc88828901610ea3565b935050606086013567ffffffffffffffff811115610ff957600080fd5b61100588828901610e59565b92509250509295509295909350565b60006020828403121561102657600080fd5b600061103484828501610e44565b91505092915050565b60006020828403121561104f57600080fd5b600061105d84828501610eb8565b91505092915050565b61106f81611431565b82525050565b600061108082611318565b61108a818561132e565b935061109a8185602086016114af565b6110a381611540565b840191505092915050565b6110b78161148b565b82525050565b60006110c882611323565b6110d2818561133f565b93506110e28185602086016114af565b6110eb81611540565b840191505092915050565b600061110360058361133f565b915061110e82611551565b602082019050919050565b600061112660078361133f565b91506111318261157a565b602082019050919050565b61114581611481565b82525050565b60006020820190506111606000830184611066565b92915050565b600060408201905061117b6000830185611066565b6111886020830184611066565b9392505050565b60006060820190506111a46000830186611066565b6111b16020830185611066565b6111be604083018461113c565b949350505050565b60006040820190506111db6000830185611066565b6111e8602083018461113c565b9392505050565b600060208201905061120460008301846110ae565b92915050565b6000602082019050818103600083015261122481846110bd565b905092915050565b6000604082019050818103600083015261124681856110bd565b90506112556020830184611066565b9392505050565b6000604082019050818103600083015261127681856110bd565b9050611285602083018461113c565b9392505050565b600060208201905081810360008301526112a5816110f6565b9050919050565b600060208201905081810360008301526112c581611119565b9050919050565b60006080820190506112e1600083018761113c565b6112ee602083018661113c565b6112fb6040830185611066565b818103606083015261130d8184611075565b905095945050505050565b600081519050919050565b600081519050919050565b600082825260208201905092915050565b600082825260208201905092915050565b600061135b82611481565b915061136683611481565b9250827fffffffffffffffffffffffffffffffffffffffffffffffffffffffffffffffff0382111561139b5761139a6114e2565b5b828201905092915050565b60006113b182611481565b91506113bc83611481565b9250826113cc576113cb611511565b5b828204905092915050565b60006113e282611481565b91506113ed83611481565b9250817fffffffffffffffffffffffffffffffffffffffffffffffffffffffffffffffff0483118215151615611426576114256114e2565b5b828202905092915050565b600061143c82611461565b9050919050565b600061144e82611461565b9050919050565b60008115159050919050565b600073ffffffffffffffffffffffffffffffffffffffff82169050919050565b6000819050919050565b60006114968261149d565b9050919050565b60006114a882611461565b9050919050565b60005b838110156114cd5780820151818401526020810190506114b2565b838111156114dc576000848401525b50505050565b7f4e487b7100000000000000000000000000000000000000000000000000000000600052601160045260246000fd5b7f4e487b7100000000000000000000000000000000000000000000000000000000600052601260045260246000fd5b6000601f19601f8301169050919050565b7f2170616972000000000000000000000000000000000000000000000000000000600082015250565b7f2173656e64657200000000000000000000000000000000000000000000000000600082015250565b6115ac81611431565b81146115b757600080fd5b50565b6115c381611443565b81146115ce57600080fd5b50565b6115da81611455565b81146115e557600080fd5b50565b6115f181611481565b81146115fc57600080fd5b5056fea2646970667358221220d6f753eeff223eec1549f93a98ad682b2cc53128f824fb872d68c35cd94c150764736f6c63430008040033",
  "devdoc": {
    "kind": "dev",
    "methods": {},
    "version": 1
  },
  "userdoc": {
    "kind": "user",
    "methods": {},
    "version": 1
  },
  "storageLayout": {
    "storage": [
      {
        "astId": 1025,
        "contract": "contracts/FlashSwap.sol:FlashSwap",
        "label": "FACTORY",
        "offset": 0,
        "slot": "0",
        "type": "t_address"
      },
      {
        "astId": 1027,
        "contract": "contracts/FlashSwap.sol:FlashSwap",
        "label": "WETH",
        "offset": 0,
        "slot": "1",
        "type": "t_address"
      },
      {
        "astId": 1034,
        "contract": "contracts/FlashSwap.sol:FlashSwap",
        "label": "MAX_INT",
        "offset": 0,
        "slot": "2",
        "type": "t_uint256"
      },
      {
        "astId": 1037,
        "contract": "contracts/FlashSwap.sol:FlashSwap",
        "label": "SWAP_ROUTER",
        "offset": 0,
        "slot": "3",
        "type": "t_address"
      }
    ],
    "types": {
      "t_address": {
        "encoding": "inplace",
        "label": "address",
        "numberOfBytes": "20"
      },
      "t_uint256": {
        "encoding": "inplace",
        "label": "uint256",
        "numberOfBytes": "32"
      }
    }
  }
}